:020000040800F2
:1000000000040020E1020008A95C00087157000804
:10001000A15C0008490600085965000800000000BE
:10002000000000000000000000000000215F000848
:100030008907000800000000B15C0008F95F0008B3
:10004000FF020008FF020008FF020008FF0200088C
:10005000FF020008095F0008FF020008FF02000815
:10006000FF020008FF020008FF0200085106000816
:10007000FF020008FF020008FF020008FF0200085C
:10008000FF020008FF020008FF020008FF0200084C
:10009000FF020008FF020008FF020008FF0200083C
:1000A000FF020008A1610008FF020008FF0200082B
:1000B000FF020008B1610008C1610008FF020008EA
:1000C000FF020008FF020008FF020008FF0200080C
:1000D000FF020008FF020008FF020008FF020008FC
:1000E000FF020008FF02000800000000FF020008F5
:1000F000FF020008FF020008FF020008FF020008DC
:10010000FF020008FF020008D1610008FF0200089A
:10011000FF020008FF020008FF020008FF020008BB
:10012000FF020008FF020008FF020008FF020008AB
:10013000FF020008FF020008FF020008FF0200089B
:1001400000000000000000000000000000000000AF
:10015000FF020008FF020008FF020008FF0200087B
:10016000FF020008FF020008FF020008FF0200086B
:10017000FF020008FF020008FF0200080000000064
:10018000FF020008FF020008FF020008FF0200084B
:10019000FF020008FF020008FF020008FF0200083B
:1001A000FF020008FF020008FF0200080000000034
:1001B000FF020008FF020008FF020008FF0200081B
:1001C000FF020008FF02000800000000000000001D
:1001D0000000000000000000FF0200080000000016
:1001E000000000000000000000000000000000000F
:1001F0000000000000000000FF020008FF020008ED
:10020000FF020008FF02000800000000FF020008D3
:10021000FF020008FF020008FF020008FF020008BA
:10022000FF02000800000000FF02000800000000BC
:10023000FF020008FF02000800000000FF020008A3
:10024000FF020008FF020008FF020008FF0200088A
:10025000FF020008FF020008FF020008FF0200087A
:10026000FF020008FF020008FF020008FF0200086A
:10027000FF020008FF020008FF0200080000000063
:10028000FF020008FF020008FF020008FF0200084A
:1002900000000000FF020008FF020008000000004C
:1002A00000000000FF020008FF020008FF02000833
:1002B000FF020008FF020008FF020008FF0200081A
:1002C000FF020008FF020008FF020008DFF80CD060
:1002D00000F026F90048004761650008000400208E
:1002E000074880470748804707480047FEE7FEE782
:1002F000FEE7FEE7FEE7FEE7FEE7FEE7FEE7FEE7D6
:10030000D1080008C9600008CD0200082DE9F05F9F
:100310000546002092469B46884606468146402474
:100320001BE0284641464746224600F088F85346DF
:100330005A46C01A914110D311461846224600F081
:100340006FF82D1A67EB01084F4622460120002165
:1003500000F066F817EB00094E41201EA4F10104DD
:10036000DFDC484631462A464346BDE8F09F2DE98A
:10037000F0410024061B254671F1000605DA012430
:100380000027D0EB070067EB0101161E73F1000692
:1003900005DA0027D2EB0702012567EB0303FFF71D
:1003A000B5FF86460E4617469C46AC4204D0002553
:1003B000D0EB050E65EB010624B10020D2EB00075F
:1003C00060EB030C704631463A466346BDE8F08167
:1003D000D2B201E000F8012B491EFBD27047002287
:1003E000F6E710B513460A4604461946FFF7F0FF34
:1003F000204610BDF0B4CA17CB0F50405140C6186C
:1004000041F100054FEAC372314628004FF09603D0
:1004100003D0B623F0BC00F02BB830460021F9E73A
:10042000202A04DB203A00FA02F1002070479140B4
:10043000C2F1200320FA03F3194390407047202AA9
:1004400004DB203A21FA02F00021704721FA02F37E
:10045000D040C2F12002914008431946704700295C
:10046000A8BF7047401C490008BF20F0010070473A
:1004700010B4B0FA80FC00FA0CF050EA010404BF9A
:1004800010BC704749B1CCF1200421FA04F411FAF0
:100490000CF118BF012121430843A3EB0C01CB1D34
:1004A0004FEA00614FEA102042BF002010BC7047A5
:1004B00000EBC35010440029A4BF10BC7047401C7F
:1004C000490008BF20F0010010BC7047F0B400F0F4
:1004D000004221F0004120F00040CE0DC30DC1F3D9
:1004E000160141F40001C0F316004C42154640F4D9
:1004F0000000761E09E010EB440002D582F00042B5
:1005000040428842F7D840005B1EB342F9DA18B186
:10051000F0BC0021FFF7ACBF2846F0BC70470000DC
:10052000064C074D06E0E06840F0010394E8070040
:1005300098471034AC42F6D3FFF7CCFED0660008E3
:10054000006700080000000010B50446006842F291
:10055000001140F48070C4F20201884218D142F2C6
:100560000830C4F20200006810F4403F18D003F0D5
:100570009FFB6168B1F5803F05D0B1F5403F2BD0BE
:10058000B1F5003F29D1090CB0FBF1F025E000BF27
:1005900046F20830C5F60200006810F4403FE6D18C
:1005A0004FF40020002102F0F7FA6168A1F58022E3
:1005B0004FEAB2420A2A10D8DFE802F00606060621
:1005C00006063C3E404244006FF0010202EA5141FF
:1005D000B0FBF1F001E000BF80084BF62141C0F212
:1005E000BE01884206D82068816821F4407181608C
:1005F00010BD00BF47F64101C0F27D11884207D807
:1006000020680122816862F30921816010BD00BF6A
:1006100021684FF28102C0F2FA229042886805D820
:10062000022262F30920886010BD00BF40F44070D0
:10063000886010BD0009D0E74009CEE78009CCE70B
:10064000C009CAE7000AC8E7FEE700000000000092
:1006500040F2C800C2F2004000F03ABF00000000C3
:1006600040F20F42D0F800C0C4F20202944511DCFF
:100670006F22C4F20202944522DC3F22C4F202023D
:10068000944539DC1022C4F2020294455AD0282243
:1006900054E000BF40F26F42C4F2020294451BDCFA
:1006A00040F23F42C4F2020294452DDC40F2104277
:1006B000C4F20202944545D040F228423EE000BF19
:1006C0009F22C4F20202944528DC7022C4F2020286
:1006D000944537D0882231E040F29F42C4F20202B2
:1006E000944523DC40F27042C4F20202944529D0C2
:1006F00040F2884222E000BF4022C4F20202944548
:1007000020D058221AE000BF40F24042C4F2020258
:10071000944517D040F2584210E000BFA022C4F226
:10072000020294450ED0B82208E000BF40F2B84261
:10073000C4F20202944505D040F2A042C4F2020283
:10074000944517D10CF0F8024AF6AB23103ACAF6DA
:10075000AA23A2FB03310AA35F2AC1F302115B5C47
:1007600040F2FF312CEA0101C36588BF0431816585
:10077000084670472CF0FF0181650846704700BFAE
:10078000000610160006101670470000000000005A
:10079000F0B581B02DED028B01F0D6FE40F22805B8
:1007A0000746C2F200459FED421A6968401A08BF29
:1007B0000120696A00EE100A40F28C10C2F200407B
:1007C000B8EE400A0268C068536A20EE010A591A5E
:1007D000B1EB500F02DDC043014405E04408644220
:1007E000A142BCBF0844411C01EE101A9FED312A02
:1007F0009FED318A6B6240F2D8132962B8EEC11ABC
:10080000C2F20043D5E9060440181B6881EE021AC3
:10081000A86144EBE171E96121EE081A81EE000A5A
:1008200085ED030A5B6A2C7DEB626CB9AE6AB3425C
:100830000AD000205062C5E9060001212975C5E9EA
:100840000903002102E000BFAB6264B340F6C412AA
:10085000002340F6C414FFF78AFD101943F100018C
:10086000002B5CBF10461946FFF7C4FD00EE100ACE
:100870009FED121A9FED122AF0EE480A80EE010A4F
:1008800030EE001A9FED0F0A01EE020A05F09DFE00
:1008900030EE081AB5EE400AF1EE10FAB8BFB0EE2D
:1008A000410A85ED020A6F60BDEC028B01B0F0BD1C
:1008B0006F12833A00401C46DB0FC94000401C45C4
:1008C000DB0F4940368DA74072B600BFFEE700003F
:1008D00044F60400C5F60200816841F0020181601F
:1008E0000168890409D4016889045CBF01685FEA72
:1008F000814102D401688904F2D5704700000000EC
:10090000B0B582B090F85C20012A03D102210846DC
:1009100002B0B0BD42F2083200230193C4F20202D9
:100920000093A2F542740368A34227D14FF6006EEC
:100930004FF60055CFF6FF7ECFF6FF7552F80E400A
:10094000535923435B0719D4D1F800C01368BCF195
:10095000000F23F440441DD04B68234313605359C8
:1009600052F80E502B43DB0722D1136840F61F7557
:10097000AB438968194341EA0C0116E0016E41F06E
:10098000200101660121002280F85C20084602B0A7
:10099000B0BD00BF1460515952F80E301943C90759
:1009A00008D1116840F61F73994311600021EAE7EE
:1009B0000021E8E70021E6E72DE9F04F81B00022B1
:1009C000009290F85C20012A04D10221084601B06F
:1009D000BDE8F08F0368012280F85C209A68520716
:1009E00000F1008346F2083C0A68C5F6020C4FF697
:1009F000FF78002AC0F20F08ACF5427E14D473458C
:100A000012D092FAA2F512EA080FB5FA85F54FF066
:100A1000010608BF950E920E05F01F0506FA05F5B2
:100A2000DE693543DD6100E0920E4D681F2402F05F
:100A30001F02C5F3012605F01F05AC4003EB860637
:100A4000AA40376B27EA0404224332639A689C6801
:100A500002F0040204F00804121940F02E810A6822
:100A600007268D687345C2F34064C2F3045203EB5A
:100A7000840406FA02F6676905FA02F227EA060616
:100A800042EA060262610FD041F20002C5F600425E
:100A9000126802F07042B2F1805F6DD14A69DC6881
:100AA0000E2505EA5404A3E04FF604540A69CFF674
:100AB000FF74042A4D695CF8046067D14FF6585200
:100AC000CFF6FF725CF802201C6E0E68C4F38464DB
:100AD00016EA0802C6F3846596FAA6F6B6FA86F612
:100AE000374608BF2F46BC420CD11A6E22F0004296
:100AF0001A660C6804EA0802C4F3846594FAA4F444
:100B0000B4FA84F65C6E37465C6E002A08BF2F4646
:100B1000C4F38464BC420CD15A6E22F000425A667F
:100B20000C6804EA0802C4F3846594FAA4F4B4FAE5
:100B300084F69C6E37469C6E002A08BF2F46C4F38D
:100B40008464BC420CD19A6E22F000429A660C6812
:100B500004EA0802C4F3846594FAA4F4B4FA84F6AF
:100B6000DC6E002ADC6E08BF2E46C4F38462B242FB
:100B700000F09F80A1E000BFDC684A69DD68E40600
:100B80004FEA550532D405F00E0431E0ACF52A7475
:100B90004FF2000BD1F800A0062754F82290C0F2C3
:100BA000FF3B07EA96060AF0F84A09EA0B07B54048
:100BB0000AEB0706354345F0004544F822500A6920
:100BC000CD6954F8226026F08076354344F82250EF
:100BD0000A6991F8205054F82260012D26F0007621
:100BE00008BF06F1007644F8226066E005F00804CC
:100BF0000D69A240042D1FD11A6E0C6802F0F84551
:100C0000A206954242D11C6E24F000441C665C6E24
:100C100004F0F84494423ED09C6E04F0F8449442B0
:100C200042D19C6E24F000449C66DC6E04F0F844D3
:100C3000944242D13DE000BF03F160040E6806F02B
:100C4000F84654F8257007F000473A43324344F819
:100C500025200A6991F8215054F82260012D26F0D0
:100C6000004608BF06F1004644F822600A7E0C697F
:100C70001D69013A04F01F04B2FA82F225F4F0452E
:100C80005209D202A2402A431A6116E05C6E04F0B7
:100C9000F8449442C0D15C6E24F000445C669C6EC3
:100CA00004F0F8449442BCD0DC6E04F0F844944262
:100CB00003D1DA6E22F00042DA669A68D20711D1C7
:100CC00073450A68CD680FD005F01804D3F8C0103A
:100CD00028FA04F402EA0806B14314402143C3F899
:100CE000C01012E0002182E14FF6A85105F018066D
:100CF000CFF6FF7128FA06F602EA080716405CF8FC
:100D00000140BC4334434CF801400021C4F252710D
:100D100001F52D04A54240F0138146F20004C5F60A
:100D20000204A3422CD042F20014C4F20204A342F3
:100D30003CD042F20004C4F20204A34250D11F246A
:100D4000C1F2F044A24275DD40F2FF74C2F6306495
:100D5000A2425FDD40F60004C2F63064A24200F019
:100D6000BF8041F20004C3F26024A24200F0B280CE
:100D70000024C4F22134A24200F0CD80B6E000BFCE
:100D80001F21C1F2F0418A422CDC0721C0F69041BC
:100D90008A426DDC0221C0F230418A4254D00421E3
:100DA000C0F660018A4216D0AAE000BF1F21C1F23E
:100DB000F0418A4228DC0721C0F690418A4245DC96
:100DC0000221C0F230418A423ED00421C0F66001C7
:100DD0008A4240F08B804021C1F620119BE000BF89
:100DE000002198E040F2FF71C2F630618A4253DC84
:100DF0002021C1F2F0418A4234D040F20041C2F6D3
:100E000000218A4211D07BE040F2FF71C2F63061CE
:100E10008A4253DC2021C1F2F0418A4222D040F2C2
:100E20000041C2F600218A4260D140F60001C2F6BC
:100E3000306170E00721C0F690418A4206DC022151
:100E4000C0F230418A42C0D1012164E00821C0F6DD
:100E500090418A421CD01021C1F2C0018A4211D0B7
:100E600044E000BF40F20021C2F2B05153E000BFA5
:100E70000821C0F690418A420AD01021C1F2C00177
:100E80008A423DD140F20011C2F2801143E000BF1E
:100E90008021C1F650513EE040F60001C2F63061BB
:100EA0008A421DD042F20001C3F290618A4227D1EA
:100EB00044F20001C3F6C0212DE000BF40F600015E
:100EC000C2F630618A420BD041F20001C3F26021C8
:100ED0008A420BD142F20001C3F290611BE000BFD5
:100EE00041F20001C3F2602115E000BF002400219F
:100EF000C4F68434A24204BF0021C4F6B8710AE0EB
:100F000044F200040021C3F6C024A24204BF48F208
:100F10000001C3F6F061734512D091FAA1F44FF6C7
:100F2000C135B4FA84F4C0F20A05294208BF8C0E18
:100F300004F01F01012404FA01F1DC692143D961A5
:100F4000B2F1FF3F02DD002151E000BF42F200019B
:100F500042F20016C4F20201C4F2020601F58074E6
:100F600001F54275A342644608BF2C468B4208BF78
:100F70002C4643F48075B54225682BD18C68D1F896
:100F800008112143C9072DD1002105F0E074CCF2EE
:100F900052718A4208BF15F400012FD00021CCF213
:100FA00021318A4208BF15F080712BD00021CCF688
:100FB00084318A424FF0000119D115F4800208BF34
:100FC000734514D1DCF8001021F0E071214341F4A5
:100FD000800156E04FF60051CFF6FF715CF801102A
:100FE000C907D1D0016E41F0200101660121002224
:100FF00080F85C20084601B0BDE8F08F734505D04D
:101000000021F4E7734535D00021F0E7DCF800104B
:1010100042F6635221F0E071C0F23E52214341F4A6
:101020000001CCF8001040F20C01C2F20041096846
:101030008909A1FB02129109022202EB41010091F0
:10104000009919B3009901390091009901B30099F1
:10105000013900910099E9B1009901390091009995
:10106000D1B1009901390091009900294FF0000198
:10107000E8D1BCE7DCF8001021F0E071214341F039
:101080008071CCF800100021B1E700BF0021AEE76D
:101090000021ACE70021AAE70021A8E7000000003A
:1010A000F0B581B0044600284FF0000000902DD02C
:1010B000206E30B9204600F07BF90020606684F88D
:1010C0005C002068816889004FF6C071C5F6FF7129
:1010D00002D582680A4082608268D20031D4826878
:1010E00001F18051114042F6635241F0805181601C
:1010F00040F20C01C0F23E52C2F200410968890977
:10110000A1FB0212012101EB921105E00125284605
:1011100001B0F0BD009901390091009989B10099A1
:1011200001390091009961B100990139009100994C
:1011300000291FBF009901390091009918BF0029AB
:10114000E8D18168C90009D4216E012541F0100160
:101150002166616E41F00101616600E00025816851
:10116000226E02F0100201F004018918216E59D19B
:1011700021F4817146F2100C023121668168C5F6B6
:10118000020CC90724D142F2001240F48071C4F26B
:101190000202914242F20001C4F2020140F0F080EA
:1011A0008A68D1F808311A43D20711D101F580724B
:1011B00001F5427390421A4618BF0CF53E72884200
:1011C00008BF1A466168136823F47C131943116041
:1011D000617EE36BACF11006B04243EA413329D0A3
:1011E000A168194394F82030012B41EA034306D14A
:1011F000616A0022CFF6FE7202EB41410B43A16A05
:1012000021B101F47871E26A11430B43B0421FD05F
:101210004CF20302C168CFF6F07211401943C1606D
:1012200028E000BF41F0100001252066284601B0EB
:10123000F0BD00BFA168D4F80CE0082900F0A6803A
:101240000C2900F0A5801C2940F0A4801021A4E006
:1012500044F207025CF8041CCFF6F0721140194307
:101260004CF8041CDCF80010626B21F04061114363
:10127000CCF800108168826801F0040102F00802D5
:10128000891869D1217EB0424FEA813126D0226B84
:10129000C36844F20307BB431A431143C16094F887
:1012A0004410012948D14FF61E020169CFF60042D1
:1012B0000126D4E912371140CFF6FF7606EB03433F
:1012C0003943276D1943636D3943226C194301611A
:1012D000016921F07041114301613AE05CF8042C8E
:1012E00094F8383044F2030E94F8447022EA0E0267
:1012F00042EA4302012F41EA02014CF8041C1BD1CF
:101300004FF61E01DCF80000CFF600410840D4E99A
:1013100012120843216D1043626D0843216C104383
:1013200040F00100CCF80000DCF8000020F0704034
:101330000843CCF800000FE00169B04221F0010140
:1013400001610169226C21F0704141EA02010161F1
:1013500002D02046FFF7F8F820682169026B0129C6
:1013600022F00F0102D1E269013A11430163012128
:10137000206E61F301002066284601B0F0BD00BF79
:101380005CF8082CD2073FF411AF21E7002104E0FC
:10139000082102E0182918BF002141EA0E01194373
:1013A00094F82030012B41EA03433FF421AF26E7B4
:1013B0002DE9F043B5B0044602A82830902100255D
:1013C0003095CDE93355CDE93155FFF708F842F2B4
:1013D00000012068C4F20201884203D035B0BDE8A4
:1013E000F08300BF4FF400200290022004901021EF
:1013F0000395CDE90510CDE90700C0200B95CDE997
:10140000090502A801F0CCFD08B1FFF75DFA44F22E
:10141000E0400025C5F60200C5F6020530AE4FF0EB
:10142000030850F8081C002741F0200140F8081C70
:1014300050F8081C01F0200101910199016841F068
:1014400001010160016801F0010101910199016848
:1014500041F0200101600068314600F02000019059
:101460000198402030902846CDF8C480329700F093
:101470007BFF05F5A05031464FF400693297CDE966
:10148000309800F071FF40F2C8051020C2F200450C
:10149000C4F2020028600920C5E901074FF480600A
:1014A000EF60C5E904094FF40050A8614FF4807063
:1014B0006F62C5E90707284600F026FC08B1FFF770
:1014C00003FAA565AC6335B0BDE8F0830000000009
:1014D0002DE9F04782B00021019140F20C01044651
:1014E000C2F2004148F2B512C1F64E32A56D09684C
:1014F00040F26F490068C4F20209A1FB0218484596
:101500002E68296816DC9F21C4F2020188422DDC76
:101510005721C4F20201884252DC1021C4F20201B8
:1015200088427CD02821C4F20201884277D0402131
:1015300070E000BF45F22F42C5F60202904229DC5E
:1015400040F2B742C4F20202904245DC40F27041E0
:10155000C4F20201884262D040F28841C4F2020122
:1015600088425CD040F2A04154E000BF40F22741E5
:10157000C4F2020188423FDCA021C4F20201884289
:101580004DD0B821C4F20201884248D040F2104147
:1015900040E000BF45F26B42C5F60202904275DCA6
:1015A00045F23042C5F60202904200F0828045F2D8
:1015B0004442C5F6020290427BD045F2584273E0A5
:1015C0005821C4F20201884229D07021C4F20201DC
:1015D000884224D088211DE040F2B842C4F20202C1
:1015E00090421CD045F20842C5F60202904260D0FB
:1015F00045F21C4258E000BF40F22841C4F202010B
:1016000088420CD040F24041C4F20201884206D028
:1016100040F25841C4F20201884240F05A83E16D21
:10162000082201F01F0140F20F4A8A40C4F2020A68
:10163000324200F0E68050454FF0040312DC6F2781
:10164000C4F20207B8426FDC3F27C4F20207B84277
:1016500000F3A4801027C4F20207B84200F0C5804E
:101660002827BDE048456BDC40F23F47C4F2020743
:10167000B84200F39B8040F21047C4F20207B84220
:1016800000F0B38040F22847AAE000BF45F26C4268
:10169000C5F6020290420CD045F28042C5F6020225
:1016A000904206D045F29442C5F60202904240F0C4
:1016B00010830268E36D03F01F0304279F400F426D
:1016C00018BF12F0040621D102279F400F4218BF15
:1016D00012F002064CD1D940090740F1FA8212F00B
:1016E000080100F0F682016821F00E01016001207E
:1016F00000FA03F16960606584F835000020E16C50
:1017000084F83400002940F0DC82E2E211046F60CA
:1017100026D4910603D4016821F004010160216CF4
:10172000002940F0CE82D4E29F27C4F20207B842DB
:1017300046DC7027C4F20207B84256D088274FE033
:1017400040F29F47C4F20207B84241DC40F27047C2
:10175000C4F20207B84248D040F2884740E000BFD8
:10176000D00300F1B382216C002940F0AA82B0E2DC
:1017700011046F6000F1B482910609D4016821F070
:101780000A010160012084F83500002084F834004B
:10179000E16B002940F095829BE200BF4027C4F234
:1017A0000207B84221D058271AE000BF40F2404754
:1017B000C4F20207B84218D040F2584710E000BF08
:1017C000A027C4F20207B8420FD0B82708E000BF34
:1017D00040F2A047C4F20207B84206D040F2B84730
:1017E000C4F20207B84218BF082307681F4208D096
:1017F000036823F004030360AA60626D42F00102F3
:10180000626501228A4032426FD0504510DC6F235E
:10181000C4F2020398421DDC3F23C4F20203984243
:1018200034DC1023C4F20203984256D028234FE040
:1018300048451BDC40F23F43C4F2020398422DDCD2
:1018400040F21043C4F20203984246D040F22843CB
:101850003EE000BF9F23C4F20203984228DC7023BD
:10186000C4F20203984238D0882331E040F29F430B
:10187000C4F20203984223DC40F27043C4F2020334
:1018800098422AD040F2884322E000BF4023C4F2AD
:101890000203984221D058231AE000BF40F240438F
:1018A000C4F20203984218D040F2584310E000BF3F
:1018B000A023C4F2020398420FD0B82308E000BF6F
:1018C00040F2A043C4F20203984206D040F2B8436B
:1018D000C4F20203984240F0098243691B0604D512
:1018E000AA60626D42F00202626504228A403242BE
:1018F0006FD0504510DC6F23C4F2020398421DDC08
:101900003F23C4F20203984234DC1023C4F20203E2
:10191000984256D028234FE048451BDC40F23F4315
:10192000C4F2020398422DDC40F21043C4F20203D9
:10193000984246D040F228433EE000BF9F23C4F2C5
:101940000203984228DC7023C4F20203984238D084
:10195000882331E040F29F43C4F20203984223DC23
:1019600040F27043C4F2020398422AD040F2884306
:1019700022E000BF4023C4F20203984221D0582342
:101980001AE000BF40F24043C4F20203984218D06C
:1019900040F2584310E000BFA023C4F20203984273
:1019A0000FD0B82308E000BF40F2A043C4F2020306
:1019B000984206D040F2B843C4F20203984240F085
:1019C0009D8103689B0704D5AA60626D42F0040202
:1019D0006265102202FA01F1314200F08180504527
:1019E0004FF0080210DC6F23C4F2020398421DDCA2
:1019F0003F23C4F20203984234DC1023C4F20203F2
:101A0000984256D028234FE048451BDC40F23F4324
:101A1000C4F2020398422DDC40F21043C4F20203E8
:101A2000984246D040F228433EE000BF9F23C4F2D4
:101A30000203984228DC7023C4F20203984238D093
:101A4000882331E040F29F43C4F20203984223DC32
:101A500040F27043C4F2020398422AD040F2884315
:101A600022E000BF4023C4F20203984221D0582351
:101A70001AE000BF40F24043C4F20203984218D07B
:101A800040F2584310E000BFA023C4F20203984282
:101A90000FD0B82308E000BF40F2A043C4F2020315
:101AA000984206D040F2B843C4F20203984218BFED
:101AB00004220368134213D0A96001684903016836
:101AC00008D4C90508D4016821F008010160216C1F
:101AD00021B905E008034FD4216C09B1204688479D
:101AE000E06D00F01F01202000FA01F2324200F008
:101AF000AB8020681023504510DC6F27C4F202072A
:101B0000B8421DDC3F27C4F20207B84238DC102778
:101B1000C4F20207B8425AD0282753E048451BDCDC
:101B200040F23F47C4F20207B84231DC40F21047AE
:101B3000C4F20207B8424AD040F2284742E000BF50
:101B40009F27C4F20207B8422CDC7027C4F20207B8
:101B5000B8423CD0882735E040F29F47C4F20207E4
:101B6000B84227DC40F27047C4F20207B8422ED0D8
:101B700040F2884726E000BFA16C0029AED1AFE754
:101B80004027C4F20207B84221D058271AE000BF0C
:101B900040F24047C4F20207B84218D040F258471A
:101BA00010E000BFA027C4F20207B8420FD0B82748
:101BB00008E000BF40F2A047C4F20207B84206D0D6
:101BC00040F2B847C4F20207B84218BF02230768C0
:101BD0001F4239D0AA6094F83520042A02681BD12C
:101BE00022F016020260426922F080024261226CF9
:101BF0000AB9A26C1AB1026822F0080202603F2002
:101C00008840A860012084F83500216D002000295B
:101C100084F8340055D15CE0510301680ED4C90545
:101C20000ED4016821F010010160012084F8350014
:101C3000002084F83400E16B21B905E008034BD49F
:101C4000E16B09B120468847606D002841D0606D86
:101C5000C00734D0042084F8350020684FEA98216A
:101C6000026822F001020260019A013201928A4266
:101C70001AD80268D20717D0019A013201928A421B
:101C800012D80268D2070FD0019A013201928A421B
:101C90000AD80268D20707D0019A013201928A421B
:101CA00002D80268D207DFD10068C0074FF00300F6
:101CB00008BF012084F83500002084F83400E16C6E
:101CC00039B1204602B0BDE8F0470847A16C0029B1
:101CD000F7D102B0BDE8F087616C0029B2D1B3E75B
:101CE000D0030DD4616C0029EBD1F2E70268042225
:101CF0008A4032427FF4FDAD6BE600BF026868E6C1
:101D0000E16B0029DDD1E4E72DE9F04381B0044621
:101D100000F01AFC002C00F0AF8040F26F4805463E
:101D20002068C4F20208404516DC9F21C4F202017B
:101D300088422DDC5721C4F20201884254DC102174
:101D4000C4F20201884200F07E802821C4F2020120
:101D5000884278D0402171E045F22F41C5F602015A
:101D6000884229DC40F2B741C4F20201884247DCD4
:101D700040F27041C4F20201884264D040F28841CE
:101D8000C4F2020188425ED040F2A04156E000BF9A
:101D900040F22741C4F20201884241DCA021C4F292
:101DA000020188424FD0B821C4F2020188424AD0D1
:101DB00040F2104142E000BF45F26B41C5F602011E
:101DC000884200F3BD8045F23041C5F602018842E9
:101DD00000F0C98045F24441C5F60201884200F096
:101DE000C28045F25841B9E05821C4F2020188424C
:101DF00029D07021C4F20201884224D088211DE03C
:101E000040F2B841C4F2020188421CD045F20841B8
:101E1000C5F60201884200F0A68045F21C419DE013
:101E200040F22841C4F2020188420CD040F2404105
:101E3000C4F20201884206D040F25841C4F20201C5
:101E4000884240F02581022184F83510002184F871
:101E50003410016821F00101016000BF20680168B1
:101E6000C9070DD000F070FB401B0628F6D32020D8
:101E70006065032084F83500012001B0BDE8F083DF
:101E800048F23F0204F108060168CFF610621140E3
:101E9000D4F818C06CCE1143D4F824901943E369E8
:101EA0002943256A0E43B9F1040F43EA060343EAC6
:101EB000050343EA0C0303D1D4E90B652E433343F6
:101EC000666843F48011A6F13F07A6F12905042FA7
:101ED000A6F1470238BF0B46062DA6F14F0E38BFBC
:101EE0000B46022A26F0030238BF0B46BEF1040F50
:101EF00038BF0B46742A08BF0B46B9F1040F0360C4
:101F0000416921F0070141EA090140F0DD80D4E98F
:101F10000A53002B41EA050100F0D680BCF5005FB2
:101F200000F0B880BCF1000F40F0C080022D00F03E
:101F3000C080012D00F0B480002D00F0BA80C3E015
:101F400045F26C41C5F6020188420CD045F2804151
:101F5000C5F60201884206D045F29441C5F6020159
:101F6000884240F0958004F1080E022184F8351073
:101F7000002184F834100168A3699EE80450A2F19E
:101F80008005E769B5FA85F566696D09402A4FEA6B
:101F9000853543EA07026FF3101142EA060208BFD3
:101FA000102541EADC0142EA0E02236A294341EA94
:101FB000D20141EA131140F80819C0B2CD214843BB
:101FC0003C2101EA9020E0652046FEF749FBE16DE7
:101FD000012201F01F0102FA01F141602068404531
:101FE00000F381809F21C4F20201884214DC572152
:101FF000C4F20201884227DC1021C4F202018842A7
:1020000000F0C7802821C4F20201884200F0C1809C
:102010004021C4F20201B9E040F22741C4F20201BA
:10202000884221DCA021C4F20201884200F0B18084
:10203000B821C4F20201884200F0AB8040F21041A6
:10204000C4F20201A2E000BF5821C4F2020188429A
:1020500000F09F807021C4F20201884200F0998054
:102060008821C4F2020191E040F22841C4F2020149
:10207000884200F08E8040F24041C4F20201884262
:1020800000F0878040F25841C4F202017EE000BFB8
:102090004020EDE6032D17D8DFE805F00E0B0E0209
:1020A000A3F1C072B2FA82F2520904E0032D03D305
:1020B0000AD1C3F300623AB140206065012084F880
:1020C000350001B0BDE8F08341612046FEF7C8FA53
:1020D000E16D3F2201F01F0102FA01F181602068E9
:1020E00040457FF77FAF45F22F41C5F60201884298
:1020F00016DC40F2B741C4F20201884226DC40F20D
:102100007041C4F20201884243D040F28841C4F2D7
:10211000020188423DD040F2A041C4F2020135E004
:1021200045F26B41C5F6020188421FDC45F23041A1
:10213000C5F6020188422CD045F24441C5F60201A1
:10214000884226D045F258411EE000BF40F2B84117
:10215000C4F2020188421CD045F20841C5F60201D2
:10216000884216D045F21C410EE000BF45F26C419A
:10217000C5F6020188420CD045F29441C5F6020131
:10218000884206D045F28041C5F60201884240F0FF
:10219000E18045F2574C45F6FC01C5F6020CC5F648
:1021A000020160450EDC45F22F42C5F60202904264
:1021B00018DC45F20842C5F60202904228D045F2EA
:1021C0001C4221E045F27F42C5F60202904213DC38
:1021D00045F25842C5F60202904219D045F26C42CF
:1021E00012E000BF45F23042C5F6020290420FD025
:1021F00045F2444208E000BF45F29442C5F60202AF
:10220000904205D045F28042C5F60202904247D185
:1022100000F0FC024CF6CD43083ACCF6CC43A2FBCE
:102220000323A1F1FC05A1F17C061B0905EB830545
:1022300003F01F02A3682566802B4FF0010303FA09
:1022400002F26666A26605D10020606028607260B6
:102250001EE000BF6768FBB2013F072F2B60726072
:1022600016D85E1E082E19D2604501F1440237DCF3
:1022700045F22F47C5F60207B84241DC45F2084750
:10228000C5F60207B84259D045F21C474AE000BFE4
:1022900000206067C4E91B005CE000BFE06E54E012
:1022A00000F0F8024AF6AB23103ACAF6AA23A2FBC2
:1022B000032740F20F43C4F2020308253A0998426B
:1022C00003F1AA06134688BF05EB171340F6000575
:1022D000B042C4F2020505F1800628BF1346A5E707
:1022E00045F27F47C5F60207B84213DC45F258476E
:1022F000C5F60207B84221D045F26C4712E000BF94
:1023000045F23047C5F60207B84217D045F24447B8
:1023100008E000BF45F28047C5F60207B8420DD07D
:1023200045F29447C5F60207B84207D040F60000D0
:10233000C4F2020000F1FC0100F5A07201EB830081
:102340000121E066B1402267616700210160D4E9A4
:102350001C01416000206065012184F8351001B046
:10236000BDE8F083000000002DE9F04F82B00D6859
:10237000002D00F0DB8000F1264242F2004302F122
:10238000FF72C5F602030A2798424FEAB2244FF0C3
:10239000000C08BF0927082C4FF0000638BF4FEA91
:1023A000B2270097002709E001370D6835FA07F2D8
:1023B00006F102060CF1040C00F0B880012202FACA
:1023C00007F415EA0408EFD0D1F8049009F0030AE5
:1023D000AAF10105012D13D80322D0F808B002FAA2
:1023E00006F3CD682BEA0303B5402B438360C9F3A2
:1023F00000154368A34305FA07F4234343600DE047
:10240000BAF1030F0AD18B68012B07D14FF0030AF1
:10241000B3460AFA06F36FEA030E29E00322C36803
:1024200002FA06F4BAF1020F6FEA040E23EA04037B
:102430008C684FEA470B04FA06F443EA0403C360CE
:1024400016D16FF003020CF01C0502EA57030F22AD
:10245000034402FA05FAD3F820900C6929EA0A0924
:10246000AC4044EA09041C62D1F8049009F0030A64
:1024700003680AFA0BF503EA0E0319F4403F43EA36
:102480000503036090D044F2F44240F20849C5F6D7
:102490000202C5F60009136843F0020313601368D3
:1024A0000F2203F00203019327F00303019D0CF0B8
:1024B0000C0553F809E002FA05F4009A2EEA040428
:1024C00002FA05F54FF0B04E254343F80950DEF807
:1024D00000304D6843EA0804EA0258BF23EA0804C2
:1024E000CEF8004040F2040EC5F6000EAC02DEF855
:1024F000002042EA080358BF22EA0803AC03CEF8E2
:102500000030DEF8802042EA080358BF22EA0803C0
:10251000ED03CEF88030DEF87C2042EA080358BF95
:1025200022EA0803CEF87C303EE700BF02B0BDE8E7
:10253000F08F0000000000000069084018BF012073
:10254000704700000000000040F20830C2F2004076
:10255000006870470000000040F2040040F20831BB
:10256000C2F20040C2F2004100780A6810440860DC
:10257000704700000000000080B5032000F008F95B
:1025800001F0EEFB44F2184146F2BE63C5F60201CB
:10259000C0F600030A68096801F00F01C2F30322C4
:1025A000595C9A5C01F01F0102F01F02D04040F21A
:1025B0001002C2F2004220FA01F1116040F20C0157
:1025C000C2F2004108600F2000F00AF800281CBF8A
:1025D000012080BD00F07CF8002080BD00000000DC
:1025E00070B540F20406C2F200463178E1B104460B
:1025F00040F20C00C2F200404FF47A72B2FBF1F1EB
:102600000068B0FBF1F001F0C3FE0F2C4FF00105A4
:1026100008D838B94FF0FF3000222146002500F0DD
:1026200087F87460284670BD012070BD000000006E
:1026300010B54EF6A05E4178CEF2000E90F800C0C4
:102640004EF8081CDEF8001021F00101CEF8001051
:1026500041684EF8041C017BC37A827A447B1B06D6
:1026600043EA0171837B41EAC241C27B41EA844172
:10267000447A41EA4341007A41EA024141EA0421B5
:1026800041EA400040EA0C00CEF8000010BD000016
:102690004EF62450CEF20000BFF35F8F016821F4A4
:1026A00080310160002101677047000000000000D8
:1026B0004EF6245140F00100CEF200010867086890
:1026C00040F480300860BFF34F8FBFF36F8F7047C7
:1026D00080B582B044F2F4400022C5F602000168E1
:1026E00041F0020101600068002100F00200019049
:1026F0000198052000F01CF8052002B0BDE88040DC
:1027000000F002B800000000002848BF704781B206
:1027100000F01F000122490902FA00F04EF20012F7
:10272000CEF2000242F821007047000000000000D5
:1027300070B54EF60C5C4FF0FF36CEF2000C00F197
:10274000604505F56445DCF80030C3F3022E8EF0D9
:102750000703042B28BF0423BEF1030406FA03F386
:1027600021EA030100F00F0338BF0024043B0028D6
:10277000634406FA04F048BF03F10C05A14022EAC5
:10278000000008430001287070BD00000000000038
:102790004EF60C514FF6FF03CEF200010A681A40C4
:1027A00060F30A2242F0806040F0FD7008607047DC
:1027B000B0B544F60C05C5F6020529684907296835
:1027C00006D401F00701081A18BF0120B0BD00BFF0
:1027D00021F0070108432860FFF7B6FE044600BF5A
:1027E00055F8080C800407D4FFF7AEFE001BB0F5C7
:1027F0007A7FF5D90120B0BD0020B0BD00000000F7
:1028000080B544F2304EC5F6020E5EF8083C5EF824
:10281000081CC1F3051C5EF8041CBCF1000FDEF8B7
:10282000042019D001F0010103F003034942022BF7
:1028300001EAD2016FF35F3100EE101AB8EE400AE0
:1028400010D0012B12D01BB95EF8301C890611D4B0
:102850009FED361A1CE000BF00218160C0E9001125
:1028600080BD00BF9FED301A12E000BF9FED2D1A12
:102870000EE000BF5EF8301C49F20002C0F2D03218
:10288000C1F3C10122FA01F101EE101AB8EE411AAA
:10289000DEF800109FED263A6FF35F2102EE101A6A
:1028A000DEF80010C1F34621B8EE422A00EE032AFA
:1028B00000EE10CAB7EE003AB8EE400A81EE000A08
:1028C00032EE031A02EE101AB8EE422A20EE010A86
:1028D00032EE031A80EE011ABCEEC11A80ED001A26
:1028E000DEF80010C1F3064101EE101AB8EE411AED
:1028F00031EE031A80EE011ABCEEC11A80ED011A06
:10290000DEF80010C1F3066101EE101AB8EE411AAC
:1029100031EE031A80EE010ABCEEC00A10EE101A66
:10292000816080BD0024744A20BCBE4B0024744CDE
:10293000000000390000000080B544F2384EC5F6B2
:10294000020E5EF8103C5EF8101C5EF80C2CC1F311
:10295000053CDEF80410BCF1000F15D0C908D20602
:1029600001EAE2716FF35F3100EE101A03F0030128
:102970000229B8EE400A0DD081B95EF8381C8906EC
:1029800010D49FED361A1BE000218160C0E90011D0
:1029900080BD00BF9FED301A12E000BF9FED2D1AE1
:1029A0000EE000BF5EF8381C49F20002C0F2D032DF
:1029B000C1F3C10122FA01F101EE101AB8EE411A79
:1029C000DEF800109FED263A6FF35F2102EE101A39
:1029D000DEF80010C1F34621B8EE422A00EE032AC9
:1029E00000EE10CAB7EE003AB8EE400A81EE000AD7
:1029F00032EE031A02EE101AB8EE422A20EE010A55
:102A000032EE031A80EE011ABCEEC11A80ED001AF4
:102A1000DEF80010C1F3064101EE101AB8EE411ABB
:102A200031EE031A80EE011ABCEEC11A80ED011AD4
:102A3000DEF80010C1F3066101EE101AB8EE411A7B
:102A400031EE031A80EE010ABCEEC00A10EE101A35
:102A5000816080BD0024744A20BCBE4B0024744CAD
:102A6000000000390000000080B544F2404EC5F679
:102A7000020E5EF8183C5EF8181C5EF8142CC1F3C8
:102A8000055CDEF80410BCF1000F15D0C908D205B2
:102A900001EAE2716FF35F3100EE101A03F00301F7
:102AA0000229B8EE400A0DD081B95EF8401C8906B3
:102AB00010D49FED361A1BE000218160C0E900119F
:102AC00080BD00BF9FED301A12E000BF9FED2D1AB0
:102AD0000EE000BF5EF8401C49F20002C0F2D032A6
:102AE000C1F3C10122FA01F101EE101AB8EE411A48
:102AF000DEF800109FED263A6FF35F2102EE101A08
:102B0000DEF80010C1F34621B8EE422A00EE032A97
:102B100000EE10CAB7EE003AB8EE400A81EE000AA5
:102B200032EE031A02EE101AB8EE422A20EE010A23
:102B300032EE031A80EE011ABCEEC11A80ED001AC3
:102B4000DEF80010C1F3064101EE101AB8EE411A8A
:102B500031EE031A80EE011ABCEEC11A80ED011AA3
:102B6000DEF80010C1F3066101EE101AB8EE411A4A
:102B700031EE031A80EE010ABCEEC00A10EE101A04
:102B8000816080BD0024744A20BCBE4B0024744C7C
:102B9000000000390000000010B584B0024641F684
:102BA000FF7300209B1A70EB01032DDA47F6FF73C9
:102BB0009B1A70EB010380F2918082F400430B4377
:102BC00000F0B88082F480330B4300F0018182F47E
:102BD0000022114340F0478144F20040C5F6020054
:102BE000816D01F44031B1F5003F00F04B81B1F54A
:102BF000803F00F02781002940F03B810068000100
:102C000040F137810BE100BF40F2FF739B1A70EB7C
:102C1000010331DB82F480730B4300F09F8082F468
:102C20008062114340F01F8144F20041C5F6020169
:102C3000886DC0F34252042A00F21B8148F2000062
:102C4000C0F2BB00DFE812F0C200E800F2000F01A2
:102C5000060000BFC86C0A68520700F040520868BE
:102C600002D5002A00F06881C00540F12581B2F14B
:102C7000805F00F07A811FE182F400630B4300F073
:102C8000938082F48052114340F0ED8044F2004181
:102C9000C5F60201086DC0F30232042A00F2E98091
:102CA00048F20000C0F2BB00DFE812F09000B6006E
:102CB000C000DD00060000BFC86C0A68520700F0C3
:102CC0004052086802D5002A00F03681C00540F164
:102CD000F380B2F1805F00F04881EDE082F40053B0
:102CE0000B4300F0858082F48042114340F0BB80AA
:102CF00044F20044C5F60204A06DC0F3027005283A
:102D000000F2B780DFE810F00600EA00EC00EE0009
:102D1000F400F60000F0CCFF216A46F2BE62C0F675
:102D20000002C1F30211515C01F01F01C84004B060
:102D300010BD00BF44F20040C5F60200016D01F075
:102D40004051B1F1005F00F08780B1F1805F00F089
:102D50008D80002940F08D8072E000BF44F2004178
:102D6000C5F60201086D00F00702042A00F2818016
:102D700048F20000C0F2BB00DFE802F0284E5875B0
:102D8000040000BFC86C0A68520700F0405208688F
:102D900002D5002A00F0D080C00540F18D80B2F14C
:102DA000805F00F0E28087E044F20041C5F6020156
:102DB000886DC0F30262042A5BD848F20000C0F2BA
:102DC000BB00DFE802F0032933506B0008684EE0D7
:102DD00044F20040C5F60200C16C0068C90346D544
:102DE000000146D501A8FFF7A7FD039804B010BD68
:102DF00044F20040C5F60200016DC1F3024105290D
:102E000037D8DFE801F003818B95A31D04B0BDE83E
:102E1000104000F075BF00BF0868000129D501A867
:102E2000FFF78AFD019804B010BD00BF086880005C
:102E30001FD501A8FFF718FE019804B010BD00BF10
:102E4000006858E00068800013D501A8FFF70CFE69
:102E5000039804B010BD00BF0068000109D501A8A7
:102E6000FFF76AFD029804B010BD00BF0068800142
:102E700002D4002004B010BD01A8FFF7C1FC0298E5
:102E800004B010BDC16C0268520701F040510268E5
:102E900066D5002964D1C2F3C1004FE0C86C0A684E
:102EA000520700F04052086801D5002A44D0C005FE
:102EB00002D5B2F1805F58D00868B2F1005F00F42B
:102EC00000314FF0000004BF47F64000C0F27D1013
:102ED000002908BF084604B010BD00BF206814E0F8
:102EE00020681CE020684007C3D5206824E000BFAC
:102EF00020682CE0206847F640018003C0F27D1175
:102F000001EAE07004B010BD00680001B1D501A86D
:102F1000FFF712FD029804B010BD00BF00688000EA
:102F2000A7D501A8FFF7A0FD029804B010BD00BF0F
:102F3000016849079DD50068C0F3C10049F200014E
:102F4000C0F2D03121FA00F004B010BD006840F6A4
:102F50000011C005C0F23D0101EAE07004B010BDEF
:102F6000D20509D5B1F1805F06D140F60010C0F25C
:102F70003D0004B010BD00BF0068B1F1005F00F477
:102F800000324FF0000004BF47F64000C0F27D1051
:102F9000002A08BF104604B010BD00000000000069
:102FA0002DE9F0470446C07844F22C480007C5F6E6
:102FB000020833D5606E4FEA305103290CD8DFE8A0
:102FC00001F003111D2600BFD8F8001041F40031B4
:102FD000C8F800101BE000BF01266078C0070BD0C6
:102FE00020E000BF04F10800022102F065FE064661
:102FF00060B16078C00715D1354646E004F128007D
:10300000022102F0EDFE06460028F2D1606ED8F8EB
:10301000241021F440110843C8F8240000266078E9
:10302000C007E9D0A06D04280ED83546DFE800F0CF
:103030000412181E1E0000BFD8F80000354640F4E8
:103040000030C8F8000011E0012501276078400732
:103050001FD453E004F10800002102F02DFE04E02B
:1030600004F12800002102F0BBFE05462F461DB1E9
:10307000607840070DD441E0D8F82400A16D20F01D
:10308000070000250843C8F8240037466078400749
:1030900034D5D4F8A4004FEA705005280CD8DFE8E6
:1030A00000F00311171D1D1DD8F8000040F400307A
:1030B000C8F8000012E000BF012501266078000773
:1030C00020D455E004F10800002102F0F5FD04E0F1
:1030D00004F12800002102F083FE05462E461DB1B2
:1030E000607800070ED443E0D8F82C00D4F8A41080
:1030F00020F4600000250843C8F82C003E466078A4
:10310000000735D5D4F8A8004FEA306005280DD85F
:10311000DFE800F00412181E1E1E00BFD8F80000E1
:1031200040F40030C8F8000012E000BF012501277C
:10313000E078800720D44EE004F10800002102F07E
:10314000BBFD04E004F12800002102F049FE054621
:103150002F461DB1E07880070ED43CE0D8F82C0053
:10316000D4F8A81020F0E06000250843C8F82C002F
:103170003746E07880072ED5E06C4FEA3010032800
:103180000ED8DFE800F00903130900BFD8F80000EB
:1031900040F40030C8F800002E467DB912E000BFB0
:1031A000012501266078C00619D44CE004F108001E
:1031B000022102F081FD05462E461DB16078C00651
:1031C0000DD440E0D8F82000E16C20F0300000255C
:1031D0000843C8F820003E466078C00633D5E06D4D
:1031E0004FEA303004280DD8DFE800F00412181E32
:1031F0001E0000BFD8F8000040F40030C8F80000FE
:1032000012E000BF01250127607880061FD44EE040
:1032100004F10800002102F04FFD04E004F1280051
:10322000002102F0DDFD05462F461DB160788006C5
:103230000DD43CE0D8F82400E16D20F4E0400025F6
:103240000843C8F824003746607880062FD5206EE2
:103250004FEA3040052809D8DFE800F0040E1404D6
:10326000040400BF2E46ADB918E000BF01250126B9
:10327000607840061FD44FE004F10800012102F0FD
:103280001BFD04E004F12800012102F0A9FD054620
:103290002E461DB1607840060DD43DE0D8F82400DC
:1032A000216E20F4E02000250843C8F824003E46A3
:1032B0006078400630D5D4F8AC004FEA307005286D
:1032C00008D8DFE800F0030D130303032F46ADB960
:1032D00018E000BF012501276078000620D442E0F5
:1032E00004F10800012102F0E7FC04E004F12800E9
:1032F000012102F075FD05462F461DB160780006DC
:103300000ED430E0D8F82C00D4F8AC1020F0E04017
:1033100000250843C8F82C0037466078000622D5FF
:10332000E06E58B1B0F1005F0CD0B0F1805F2FD1EA
:10333000D8F8000040F40030C8F800002E469DB9CF
:1033400008E000BF04F10800012102F0B5FC0546C9
:103350002E464DB9D8F82400E16E20F040500025EB
:103360000843C8F824003E46E078C00733D0A06C7C
:10337000032813D8DFE800F008021A08D8F8000084
:1033800040F40030C8F80000A946BDB91AE000BFFB
:1033900001250126E078C007E9D11CE001254FF0A6
:1033A0000109A07840061AD51CE000BF04F108000E
:1033B000022102F081FC0546A9461DB1A078400615
:1033C0000DD50FE0D8F82000A16C20F003000025F7
:1033D0000843C8F82000B146A078400602D44F4602
:1033E00018E000BFD8F8D40340F48070C8F8D403C4
:1033F000FFF7AAF8064600BFD8F8D403C00507D4E3
:10340000FFF7A2F8801B6428F6D90325032701E003
:103410002F468DB12078C00761D0A06F4FEAF00031
:1034200005283BD8DFE800F004404604040400BF50
:10343000002D2E4646D149E0D8F84410D4F8B0000B
:10344000414011F4407F11D0D8F84410D8F84420FE
:1034500042F48032C8F84420D8F8442021F4407166
:1034600022F48032C8F84420C8F84410B0F5807FB8
:1034700040F0CE82FFF768F8064641F2883A03250D
:10348000032700BFD8F84400800700F1BF82FFF790
:103490005BF8801B5045F5D9BCE700BF012501262C
:1034A000207880071FD44CE004F10800012102F0CD
:1034B00003FC04E004F12800012102F091FC054620
:1034C0002E461DB1207880070DD43AE0D8F82800A8
:1034D000A16F20F0380000250843C8F828003E46B8
:1034E000207880072DD5606F052809D8DFE800F027
:1034F000040E1404040400BF2F46ADB918E000BF49
:1035000001250127207840071FD44DE004F1080071
:10351000012102F0D1FB04E004F12800012102F0B6
:103520005FFC05462F461DB1207840070DD43BE0D7
:10353000D8F82800616F20F0070000250843C8F87C
:1035400028003746207840072ED5D4F8900005286B
:1035500008D8DFE800F0030D130303032E46ADB9CE
:1035600018E000BF012601252078800620D451E014
:1035700004F10800012102F09FFB04E004F128009F
:10358000012102F02DFC05462E461DB12078800653
:103590000ED43FE0D8F82C00D4F8901020F00700AB
:1035A00000250843C8F82C003E462078800631D517
:1035B000D4F88C004FEA3070052809D8DFE800F015
:1035C000040E1404040400BF2F46ADB918E000BF78
:1035D000012701252078400620D451E004F108009D
:1035E000002102F069FB04E004F12800022102F04E
:1035F000F7FB05462F461DB1207840060ED43FE06C
:10360000D8F82800D4F88C1020F0E04000250843BA
:10361000C8F8280037462078400631D5D4F89800FD
:103620004FEAB020052809D8DFE800F0040E1404A2
:10363000040400BF2E46ADB918E000BF01260125E5
:103640002078000620D454E004F10800002102F0A4
:1036500033FB04E004F12800022102F0C1FB05461F
:103660002E461DB1207800060ED442E0D8F82C007A
:10367000D4F8981020F4E05000250843C8F82C0036
:103680003E462078000634D5D4F89C004FEA7030CE
:1036900005280FD8DFE800F004141A04040400BF62
:1036A0002F46E5B12068010727D4C1063ED40003A8
:1036B00055D475E00127012520680107F5D51CE0E8
:1036C00004F10800002102F0F7FA04E004F12800F8
:1036D000022102F085FB0546002D2F46E2D1D8F8E5
:1036E0002C00D4F89C1020F4604000250843C8F852
:1036F0002C00374620680107D7D5D4F88000B0F5F4
:10370000805F09D104F12800022102F069FB002842
:1037100018BF0127D4F88000D8F8281021F44051B0
:103720000843C8F828002068C106C0D5D4F8940022
:10373000B0F5807F09D104F12800022102F050FB8E
:10374000002818BF0127D4F89400D8F82C1021F4D1
:1037500040710843C8F82C002068000320D5D4F835
:10376000A000B0F5003F0FD0B0F5803F06D078BB89
:1037700004F10800002102F09FFA04E004F128009F
:10378000022102F02DFB05462E4655B9D8F82C0033
:10379000D4F8A01020F4403000250843C8F82C00CD
:1037A0003E46A07840072BD5D4F88400B0F5401FE2
:1037B0000BD0B0F5001F11D0B0F5801F2AD1D8F87A
:1037C000000040F40030C8F800002F46CDB90DE0ED
:1037D00001260125A0784007E6D411E004F1280075
:1037E000012102F0FDFA05462F4655B9D8F8280008
:1037F000D4F8841020F4401000250843C8F82800AD
:103800003746A078C0070AD13E462168880016D501
:1038100033E000BF01270125A078C007F4D0206D58
:10382000B0F5803F10D018BBD8F8000040F400304D
:10383000C8F800002E4685B1216888001DD4606854
:103840008A0326D465E000BF04F10800022102F0DB
:1038500033FA0546002D2E46EED1D8F82000216D12
:1038600020F4803000250843C8F82000CCE700BFD2
:103870000126012521688800E1D504F128000221F4
:1038800002F0AEFA002818BF0126D4E900108A031E
:103890003FD5E26F6FF0010303EB3223022B0BD312
:1038A0004FEA322343B1012B40F0AA80D8F8003010
:1038B00043F40033C8F8003025B3CA022CD48A027E
:1038C00034D44A003CD4CA0F49D1090251D4C107AB
:1038D0005AD1810763D441076CD4010776D4C1065D
:1038E00000F18080800607D504F12800022102F053
:1038F00077FA002818BF0125002D18BF012528469A
:10390000BDE8F087D8F8283023F440731A43C8F88C
:1039100028203546CA02D2D5D8F82420236F22F0B9
:1039200000421A43C8F824208A02CAD5D8F82420B5
:10393000A36E22F080721A43C8F824204A00C2D530
:1039400058F81C2C22F4004248F81C2CD4F8B4205F
:1039500058F81C3C1A4348F81C2CCA0FB5D0D8F8AC
:103960002020636D22F040521A43C8F8202009023B
:10397000ADD5D8F82810D4F8882021F4400111439F
:10398000C8F82810C107A4D004F10800002102F0F3
:1039900093F9002818BF0546606881079BD504F19C
:1039A0000800012102F088F9002818BF0546606868
:1039B000410792D504F10800022102F07DF90028A8
:1039C00018BF0546606801077FF589AF04F128003C
:1039D000002102F005FA002818BF05466068C106FC
:1039E0007FF580AF04F12800012102F0F9F90028E9
:1039F00018BF0546606880067FF57EAF74E700BF9C
:103A00000125CA027FF55BAF86E700BFD4F8B0009E
:103A10004FF6CF7358F81C2CC0F2FF0300F440712E
:103A200022F47C5203EA10136FF31F30B1F5407F8C
:103A300008BF1A43002548F81C2CD8F84410084346
:103A4000C8F84400FFF7CBBC2DE9F04381B0002853
:103A500000F02A8142F200080446C5F20028894697
:103A6000D8F8000000F00F0088420ED2D8F800000D
:103A700020F00F0040EA0900C8F80000D8F8000064
:103A800000F00F00484540F00F81206844F21847CD
:103A90004107C5F602070AD521693A6802F07002AB
:103AA000914204D93A6822F070021143396001074B
:103AB0000AD561697A6802F07002914204D97A6885
:103AC00022F0700211437960C1060AD5A1697A68B3
:103AD00002F4E062914204D97A6822F4E062114370
:103AE000796081060AD5E169BA6802F070029142F4
:103AF00004D9BA6822F070021143B96010F00201D3
:103B00000AD0E2683B6803F00F039A4204D93B688D
:103B100023F00F031A433A60C20746D0386820F4F6
:103B20007061D4E90102012841EA0201396009D03B
:103B300003280DD0022811D157F8181C890340F131
:103B4000B38010E057F8181CC90540F1AD800AE0B9
:103B500057F8181C890140F1A78004E057F8181C99
:103B6000490740F1A18057F8081C21F007010843DC
:103B700047F8080CFEF7E8FC064641F2883500BF1E
:103B800057F8080C616800F03800B0EBC10F09D09D
:103B9000FEF7DAFC801BA842F2D9032001B0BDE891
:103BA000F08300BF206800F0020151B1E1683A687B
:103BB00002F00F02914204D23A6822F00F02114340
:103BC0003960D8F8001001F00F0149450DD9D8F837
:103BD000001021F00F0141EA0901C8F80010D8F8DF
:103BE000001001F00F0149455ED141070AD5216956
:103BF0003A6802F07002914204D23A6822F07002F0
:103C00001143396001070AD561697A6802F07002D0
:103C1000914204D27A6822F0700211437960C106A1
:103C20000AD5A1697A6802F4E062914204D27A6806
:103C300022F4E0621143796080060AD5E069B96830
:103C400001F07001884204D2B96821F07001084384
:103C5000B86000F085F8396846F2BE633A68C0F68D
:103C60000003C1F3032102F00F02595C9A5C01F0DA
:103C70001F0120FA01F102F01F0040F2100221FAA8
:103C800000F0C2F20042106040F2080040F20C0264
:103C9000C2F20040C2F200420068116001B0BDE80B
:103CA000F043FEF79DBC00BF012001B0BDE8F083EA
:103CB00080B500F055F844F2184146F2BE63C5F6EF
:103CC0000201C0F600030A68096801F00F01C2F39F
:103CD0000322595C9A5C02F01F0220FA02F201F002
:103CE0001F0040F2100122FA00F0C2F20041086009
:103CF00040F20C01C2F200410A6080BD00000000E9
:103D000080B500F02DF844F2184C46F2BE61C5F6BD
:103D1000020CC0F60001DCF80020DCF8003003F0F3
:103D20000F03C2F30322CB5C8A5C02F01F02D04077
:103D300003F01F0240F2100320FA02F2C2F2004325
:103D40001A6040F20C03C2F200431860DCF8040071
:103D5000C0F30210085C00F01F0022FA00F080BDE2
:103D600044F20041C5F602010869C0F3C20003280D
:103D700010D002282ED098BB0868800649F20000B7
:103D8000C0F2D03058BF70470968C1F3C101C840C4
:103D9000704700BF8A6A886AC0F3051CC86ABCF114
:103DA000000F4B6B22D000F0010002F003024042F2
:103DB000022A00EAD3006FF35F3000EE100AB8EE7B
:103DC000400A15D0C2B90868800619D49FED281A98
:103DD00023E000BF47F64000C0F27D10704700BFEF
:103DE00040F60010C0F23D00704700BF0020704751
:103DF0009FED1E1A11E000BF9FED1B1A0DE000BFE2
:103E0000086849F20002C0F2D032C0F3C10022FAC1
:103E100000F001EE100AB8EE411A086B9FED153A5A
:103E20006FF35F2002EE100A086BC0F34620B8EE75
:103E3000422A013000EE032A00EE10CAB7EE003A23
:103E4000B8EE400A81EE000A32EE031A20EE010AB3
:103E500001EE100AB8EE411A80EE010ABCEEC00A6B
:103E600010EE100A704700BF0024744A20BCBE4BFD
:103E70000024744C00000039F0B581B0002800F037
:103E8000D5800446007844F20046C007C5F6020615
:103E900022D12078800768D5306910F03801B06AE7
:103EA00042D0182908BF5FEA80703DD0E0683168D1
:103EB000002800F0258121F0190108433060FEF749
:103EC00043FB05463068400748D4FEF73DFB401BE6
:103ED0000228F7D977E100BF306900F03801B06AF5
:103EE000102905D018290BD100F00300022807D1B2
:103EF00030688003CDD560680028CAD196E000BF45
:103F00006068002800F03281B0F5A02F00F04681F3
:103F1000B0F5803F00F04681306820F4803030609A
:103F2000306820F4802040E130684007E06801D527
:103F300000287BD0316821F0190108433060FEF77A
:103F400003FB05463068400708D4FEF7FDFA401B26
:103F500002284FF00300F5D901B0F0BD7068216967
:103F600020F0FE4040EA016070602078C00619D55C
:103F7000306900F03801B06A082906D0182940F0ED
:103F8000818000F0030001287CD13068C00502D593
:103F9000E06980284AD1F068216A20F07C5040EA2C
:103FA0000160F0602078000744D42078800655D462
:103FB0002078400700F17E80656A9DB3306900F08B
:103FC0003800182840F01481012DB16A306B2DD0D3
:103FD00001F00302A36A9A4228D1C1F30511E26AF3
:103FE000914223D10146226B6FF35F21013A914246
:103FF0001CD1C0F34622616B01398A4216D1C0F34D
:104000000642A16B01398A4210D1C0F30660E16B10
:10401000013988420AD1706BA16CC0F3CC00814297
:1040200040F09C81002001B0F0BD00BF012001B034
:10403000F0BD00BF60690028706F4FD040F00100F4
:104040007067FEF781FA0546706F8007ADD4FEF702
:104050007BFA401B0228F7D9B5E000BFA069002811
:10406000306871D040F480503060FEF76DFA05463C
:10407000306880049CD4FEF767FA401B0228F7D909
:10408000A1E000BFE0690028306800F09F8040F0A8
:1040900080003060FEF758FA054600BF3068C00562
:1040A0003FF579AFFEF750FA401B02284FF00300AE
:1040B000F4D951E7D6F8000440F48070C6F8000443
:1040C000FEF742FA054600BFD6F80004C00529D421
:1040D000FEF73AFA401B6428F6D974E020F001009C
:1040E0007067FEF731FA0546706F80077FF55DAFA8
:1040F000FEF72AFA401B02284FF00300F4D92BE701
:1041000021F001003060FEF71FFA054630684007D5
:104110007FF52BAFFEF718FA401B02284FF0030083
:10412000F4D919E7A068002800F08480052800F081
:104130009B80012800F09C80306F20F001003067E8
:10414000306F20F0040096E020F480503060FEF7DD
:10415000FBF90546306880047FF52AAFFEF7F4F9D5
:10416000401B02284FF00300F4D9F5E6306820F434
:1041700080303060306820F480203060FEF7E4F951
:10418000054600BF306880037FF583AEFEF7DCF99B
:10419000401B64284FF00300F4D9DDE6306840F49A
:1041A00080203060306840F480303060FEF7CCF919
:1041B000054600BF306880033FF56BAEFEF7C4F9DB
:1041C000401B6428F6D9032001B0F0BD20F0800028
:1041D0003060FEF7B9F905463068C0057FF5E2AEFC
:1041E000FEF7B2F9401B02284FF00300F4D9B3E602
:1041F000306820F080703060FEF7A6F9022D054689
:104200000CD100BF3068800148D5FEF79DF9401BF6
:1042100002284FF00300F5D99EE600BF3068800108
:104220007FF500AFFEF790F9401B02284FF0030026
:10423000F4D991E6306F20F001003067306F20F044
:1042400004003067FEF780F9054641F28837306F89
:1042500080077FF5B1AEFEF777F9401BB8424FF00B
:104260000300F4D978E600BF306F40F004003067F7
:10427000306F40F001003067FEF766F9054641F205
:10428000883700BF306F80073FF596AEFEF75CF9C8
:10429000401BB8424FF00300F4D95DE604F1280753
:1042A000B06A40F2F33188438ECF0843591E40EA8A
:1042B00002104FF47E426FF35F21B06202EB4720A1
:1042C0004FF4FE0280B2E36B0844A16B02EB0141A4
:1042D0004FF0FE4201F4FE0102EB0362084402F0DB
:1042E000FE4108443063F06A4FF6F87120F0010097
:1042F000F062706BA26C884340EAC2007063F06A9F
:10430000216C20F00C000843F062F06A616C20F030
:1043100002000843F062F06A40F48030F062F06A14
:1043200040F40030F062F06A40F48020F062F06AFD
:1043300040F00100F062306840F080703060FEF7BD
:1043400003F90446306880013FF56CAEFEF7FCF8D7
:10435000001B02284FF00300F4D9FDE5F06A20F0BD
:104360000100F062FEF7F0F80546FEF7EDF8A8420E
:10437000FBD0706B4FF6F871A26C884340EAC20024
:104380007063F06A40F00100F062002001B0F0BDFF
:10439000411E0020B0EB116F02D00120704700BF1A
:1043A0004EF21002F023CEF2000251604EF623517D
:1043B000CEF200010B700721906011607047000081
:1043C000704700000000000070470000000000007F
:1043D0007047000000000000B0B590F83C20012AB2
:1043E00002D10220B0BD00BFD1E9022323F47C53E7
:1043F00022F4705242EA030548F2FF73D1E900CE7D
:10440000CEF6F0730EEA030203F5006445EA020EED
:104410000CEA04050C6903F5C05245EA0E0522407A
:104420002A434D692A4303F560550C6B03F5F043AD
:104430002A4023401343026840F2004C42F4806556
:10444000C4F2010C8C69654540F2000CCEF6FF7C8D
:10445000CD690CEA044443EA050343EA040318D196
:104460004FF6FF7540F2000CCDF60F458C6ACDF685
:10447000F04C03EA050E0D6A0CEA04544B6A44EA58
:104480000E0425F0085523F000532543C96A2B4339
:104490000B430021536480F83C100846B0BD000077
:1044A00070B588B0002861D0044690F83D000D46F4
:1044B00028B9002084F83C00204600F05DF8022076
:1044C00084F83D002068211D01F08AFE20682968DB
:1044D000AB68032201F0A8FF20680026816921F063
:1044E0000C018161696882691143816141684FF6FD
:1044F0008F7241F0800141608168CFF6CF72114028
:10450000816081684FF6F87241F0400181608168F6
:10451000CFF6FE7211408160816841F00401816034
:1045200070210191E968029101A90796CDE905661C
:10453000CDE9036601F020FF2068416821F0700199
:104540004160416841F050014160012084F8480019
:1045500084F83E0084F83F0084F8440084F8450065
:1045600084F83D00304608B070BD00BF01263046DB
:1045700008B070BD0000000080B586B040F60001B4
:104580000068C4F20001884202D006B080BD00BFBE
:1045900044F2E040C5F60200816841F00401816008
:1045A000816801F0040101910199016841F008015D
:1045B00001600068002100F00800019001984FF4AC
:1045C000E040019002200290059040F60040CDE9C5
:1045D0000311C5F6020001A9FDF7C6FE1E20002149
:1045E0000022FEF7A5F81E20FEF78EF806B080BD6B
:1045F00010B5044690F83E0094F83F30012894F836
:1046000044204FF0010094F8451008BF012B01D061
:1046100010BD00BF012A08BF0129F9D1022084F88A
:104620003E0084F83F00012284F8440084F84500ED
:104630002068C16841F00201C160002101F08CFED8
:104640004DF6FF702168C4F20000814214DC40F294
:10465000FF70C4F20000814224DD40F60000C4F285
:104660000000814230D040F60040C4F20000814298
:104670002AD041F6000023E04FF6FF70C4F200009C
:10468000814215DD0020C4F2010081421CD044F2B9
:104690000000C4F20100814216D040F20040C4F292
:1046A00001000FE0B1F1804F0ED040F2004007E072
:1046B0004EF20000C4F20000814205D04EF20040EC
:1046C000C4F2000081420AD107228868C0F20102C8
:1046D00002400020062A18BFB2F5803F98D0086833
:1046E00040F001000860002010BD00000000000044
:1046F000B0B590F83C20012A4FF0020263D080F858
:104700003D2040F2004C0268C4F2010C42F4806388
:1047100063455368D2F808E002BF23F470034C6885
:1047200023434DF6FF740D68C4F2000423F07003B8
:10473000A24243EA0503536014DC40F2FF73C4F263
:1047400000039A4222DD40F60003C4F200039A42BD
:104750002ED040F60043C4F200039A4228D041F61E
:10476000000321E04FF6FF73C4F200039A4213DD09
:104770000023C4F201039A421AD044F20003C4F2A7
:1047800001039A4214D0624512D016E0B2F1804F74
:104790000ED040F2004307E04EF20003C4F20003E3
:1047A0009A4205D04EF20043C4F200039A4204D16B
:1047B0002EF080038968194391600022012180F85E
:1047C0003D1080F83C201046B0BD00000000000005
:1047D00060B310B5044690F83D0028B9002084F875
:1047E0003C00204600F024F8022084F83D002068B8
:1047F000211D01F0F5FC012084F8480084F83E00FA
:1048000084F83F0084F8400084F8410084F84200B6
:1048100084F8430084F8440084F8450084F8460096
:1048200084F8470084F83D00002010BD0120704747
:1048300080B586B04DF6FF710068C4F20001884271
:1048400024DC40F20041C4F20001884242D040F62C
:104850000041C4F2000188427DD144F2E8400022C8
:10486000C5F60200016841F00801016000680021FE
:1048700000F00800019001983220FDF759FF322026
:1048800006B0BDE88040FDF73FBF00BF4EF200011B
:10489000C4F20001884235D00021C4F201018842EF
:1048A00059D144F2E8400022C5F60200816841F087
:1048B000010181608068002100F0010001900198F1
:1048C0001920FDF735FF192006B0BDE88040FDF73F
:1048D0001BBF00BF44F2E8400022C5F60200016899
:1048E00041F0020101600068002100F00200019027
:1048F00001981D20FDF71CFF1D2006B0BDE880407B
:10490000FDF702BF44F2E840C5F60200416841F0FD
:1049100080714160416801F080710191019950F806
:10492000081C41F0020140F8081C50F8080C01A9CD
:1049300000F00200019001980420019002200290F2
:104940000020CDE903000D20059040F20040C5F69F
:104950000200FDF709FD06B080BD00000000000068
:1049600090F83D10012923D1022180F83D10016803
:104970004DF6FF70C4F2000081421BDC40F2FF7074
:10498000C4F2000081422DDD40F60000C4F20000B8
:1049900081423DD040F60040C4F20000814237D051
:1049A00041F60000C4F20000814231D03CE000BF7B
:1049B000012070474FF6FF70C4F2000081421BDDFA
:1049C0000020C4F20100814222D044F20000C4F26F
:1049D000010081421CD040F20040C4F2010081423B
:1049E00016D021E0B1F1804F12D040F20040C4F265
:1049F000000081420CD017E04EF20000C4F200002B
:104A0000814205D04EF20040C4F2000081420BD139
:104A100007228868C0F2010202400020062A18BF5F
:104A2000B2F5803F00D17047086840F0010008608F
:104A3000002070470000000090F83D10012927D1A8
:104A4000022180F83D1001684DF6FF70C4F20000AD
:104A50008142C86840F00100C8601BDC40F2FF7072
:104A6000C4F2000081422DDD40F60000C4F20000D7
:104A700081423DD040F60040C4F20000814237D070
:104A800041F60000C4F20000814231D03CE000BF9A
:104A9000012070474FF6FF70C4F2000081421BDD19
:104AA0000020C4F20100814222D044F20000C4F28E
:104AB000010081421CD040F20040C4F2010081425A
:104AC00016D021E0B1F1804F12D040F20040C4F284
:104AD000000081420CD017E04EF20000C4F200004A
:104AE000814205D04EF20040C4F2000081420BD159
:104AF00007228868C0F2010202400020062A18BF7F
:104B0000B2F5803F00D17047086840F001000860AE
:104B1000002070470000000010B590F83C20012AEA
:104B20004FF0020200F0B78080F83D208822D0F8D4
:104B300000E0CFF6CE72DEF808301A40CEF808203A
:104B40000B686F2B0EDDB3F1101F39DAB3F5005F80
:104B500048DA702B00F0A280B3F5805F00F09480FB
:104B6000E4E000BF2F2B35DD4F2B41DC302B00F074
:104B70007F80402B40F0DA8043F6FF72D1F804C00A
:104B8000C4F20102C968DEF820309645DEF8202024
:104B900022F00102CEF8202040F3CA8044F2000245
:104BA000C4F20102964500F0CE8044F60002C4F241
:104BB0000102964500F0C78044F20042BFE000BF0A
:104BC0002F21C0F210018B4248DCB3F1101F4FD0EF
:104BD000202149E0002B18BF102B49D0202B47D0B3
:104BE000A4E000BF6ED0B3F5801F41D09EE000BFAF
:104BF000502B7BD0602B40F0998040F200444EF463
:104C00008062C4F20104D1F804C0C968DEF8203023
:104C1000A242DEF8202022F01002CEF8202002BFAF
:104C2000DEF8202022F04002CEF82020DEF8182006
:104C300022F4704242EA013123F0A002CEF81810AB
:104C400042EA0C11CEF820104FF68872DEF80810F8
:104C5000CFF6CF721140673114E000BF3021C0F2AF
:104C600010018B4204D04021C0F210018B425DD173
:104C70004FF68872DEF80810CFF6CF721140194354
:104C800041F00701CEF808100022012180F83D1004
:104C9000002180F83C10104610BD00BFD1E901C3CF
:104CA000C968DEF8082043EA0C0322F47F4243EA95
:104CB00001211143CEF80810DEF8081041F0770109
:104CC000E0E700BFD1E901C3C968DEF8082043EA84
:104CD0000C0322F47F4243EA01211143CEF808106D
:104CE000DEF8081041F48041CCE700BF43F6FF72C4
:104CF000D1F804C0C4F20102C968DEF8203096453C
:104D0000DEF8202022F00102CEF8202038DD44F227
:104D10000002C4F2010296453DD044F60002C4F2FE
:104D20000102964537D044F2004230E00122ACE760
:104D30000022C4F20102964505D040F20042C4F2BE
:104D40000102964505D1DEF8202022F00402CEF8BB
:104D50002020DEF8182022F0F00242EA011123F0B0
:104D60000A02CEF8181042EA0C01CEF820104FF6D5
:104D70008872DEF80810CFF6CF721140473181E714
:104D80000022C4F20102964505D040F20042C4F26E
:104D90000102964505D1DEF8202022F00402CEF86B
:104DA0002020DEF8182022F0F00242EA011123F060
:104DB0000A02CEF8181042EA0C01CEF820104FF685
:104DC0008872DEF80810CFF6CF721140573159E7DC
:104DD000002857D02DE9F04381B0044690F83D00FB
:104DE0000D4628B9002084F83C00204600F04CF81D
:104DF000022084F83D0020684BF6F872CFF6FE7270
:104E0000816811408160211D01F0EAF920684FF6A8
:104E1000FF79D0F808808269D0F820C0AF69D5E961
:104E2000026122EA090246EA07264FF6FC47BE4322
:104E3000EF6911432A6931432E6A41EA07216F69FC
:104E4000D5E9003E41EA02112CF0AA0242EA0E0224
:104E500043EA080341EA06318360816142EA0711AF
:104E60000162012084F8480084F83E0084F83F0085
:104E700084F8440084F8450084F83D00002001B027
:104E8000BDE8F0830120704780B586B00068B0F1BE
:104E9000804F01D006B080BD44F2E040C5F602006C
:104EA000816841F001018160816801F00101019197
:104EB0000199016841F001010160006801A900F059
:104EC000010001900198032001900220029000202F
:104ED000CDE90300012005900020C5F60200FDF792
:104EE00043FA06B080BD000080B590F83E2004294A
:104EF00090F83F3090F844E090F845C00AD0B9B936
:104F0000012A4FF0010208BFBEF1010F34D0104654
:104F100080BD00BF0122012B08BFBCF1010FF6D1FB
:104F2000022180F83F1080F84510006820E000BFA3
:104F3000012A4FF0010208BF012BE8D1BEF1010F99
:104F400008BFBCF1010FE2D14FF0020280F83E2011
:104F500080F83F2080F8442080F8452089B100681F
:104F6000016A21F001010162016A41F0010101625F
:104F700010216FF0100208E0022180F83E1080F846
:104F80004410006801216FF00102036A1A400262B6
:104F9000026A114301620168002241F001010160CF
:104FA000104680BD0000000040F600020168C4F217
:104FB0000002914218BF7047007F012802D100F023
:104FC0008FBB00BF70470000F0B581B00446006899
:104FD000C5680669B10717D515F0020114D06FF046
:104FE00002010161012121778069800704D02046F8
:104FF000FFF7DAFF06E000BF204600F09DF82046EC
:1050000000F03AFB00202077700719D515F0040056
:1050100016D020686FF004010161022121778069B8
:1050200010F4407F04D02046FFF7BEFF06E000BF2B
:10503000204600F081F8204600F01EFB002020777B
:10504000300717D515F0080014D020686FF008015C
:10505000016104212177C069800703D02046FFF752
:10506000A3FF05E0204600F067F8204600F004FBAF
:1050700000202077F00619D515F0100016D0206812
:105080006FF01001016108212177C06910F4407FA1
:1050900004D02046FFF788FF06E000BF204600F05E
:1050A0004BF8204600F0E8FA00202077F00718BF00
:1050B00015F0010006D020686FF001010161204663
:1050C00000F0DEFA05F0800716F4025F18BF002F2B
:1050D00002D1F00509D410E020686FF4025101619B
:1050E0002046FFF771F9F00507D537B120686FF456
:1050F000807101612046FFF763F9700609D515F04C
:10510000400006D020686FF040010161204600F0A9
:10511000E3FAB0060CD515F0200009D020686FF036
:1051200020010161204601B0BDE8F040FFF750B911
:1051300001B0F0BD0000000070470000000000005A
:105140002DE9F04190F83C30012B03D10220BDE85D
:10515000F08100BF4FEAB202052A31D8DFE812F031
:10516000060038007800B800DE000401036843F64A
:10517000FF76C4F201061C6AB3421A6A24F00204E4
:1051800022F001021A621A46D3F804E052F818CF4E
:105190008D6844EA0504D1F8008040F30B8144F2A5
:1051A0000007C4F20107BB4200F00F8144F600077C
:1051B000C4F20107BB4200F0088144F2004700E15D
:1051C0000121002280F83C200846BDE8F08100BFA4
:1051D000036840F2004843F48066C4F201081F6A85
:1051E00046451A6A27F0200722F010021A621A4672
:1051F0005D6852F818CF8C68D1F800E047EA0414D3
:1052000008D11E6A24F0800426F040061E62CE6893
:1052100044EA061443F6FF76C4F20106B34240F3B3
:10522000F18044F20006C4F20106B34200F0F180BE
:1052300044F60006C4F20106B34200F0EA8044F2EC
:105240000046C4F20106B34200F0E380E8E000BF8C
:10525000036840F2004843F48066C4F201081F6A04
:1052600046451A6A27F4007722F480721A621A46B9
:105270005D6852F81CCF8C68D1F800E047EA04243E
:1052800008D11E6A24F4006426F480661E62CE688B
:1052900044EA062443F6FF76C4F20106B34240F323
:1052A000D78044F20006C4F20106B34200F0D78072
:1052B00044F60006C4F20106B34200F0D08044F286
:1052C0000046C4F20106B34200F0C980CEE000BF40
:1052D000036843F6FF77C4F20107D3F820C0BB424E
:1052E0001A6A22F480521A621A465C6852F81C6FDD
:1052F0000D68D1F808E040F3D18044F20007C4F211
:105300000107BB4200F0D58044F60007C4F2010754
:10531000BB4200F0CE8044F20047C6E0036843F68B
:10532000FF77C4F20107D3F820C0BB421A6A22F407
:1053300080321A621A465C6852F8546F0D68D1F8D0
:1053400008E040F3D58044F20007C4F20107BB42F5
:1053500000F0D98044F60007C4F20107BB4200F018
:10536000D28044F20047CAE0036843F6FF77C4F2F4
:105370000107D3F820C0BB421A6A22F480121A62D5
:105380001A465C6852F8546F0D68D1F808E040F393
:10539000DB8044F20007C4F20107BB4200F0DF806B
:1053A00044F60007C4F20107BB4200F0D88044F283
:1053B0000047D0E00027C4F20107BB4205D040F20D
:1053C0000047C4F20107BB4207D11F6A24F008045A
:1053D00027F004071F62CF683C43B34240F3E280EA
:1053E00044F20006C4F20106B34200F0E68044F63F
:1053F0000006C4F20106B34200F0DF8044F200462A
:10540000D7E000BF0026C4F20106B34201D04345F5
:1054100006D1D1E905673E4325F4406545EA860596
:1054200048F6FF465D60CFF6FF660CEA060747EADE
:105430000E279F614F6809699F631C629F6947F44B
:1054400000679F619F6927F480679F61A7E000BFA5
:105450000026C4F20106B34201D0434506D1D1E98A
:1054600005673E4325F4405545EA06154FF68C7610
:105470005D60CFF6FE760CEA060747EA0E07DF61AD
:105480004F680969DF631C62DF6947F00807DF6165
:10549000DF6927F00407DF61ADE000BF0027C4F239
:1054A0000107BB4205D040F20047C4F20107BB42EE
:1054B00004D14F6924F4804444EA871448F6FF4736
:1054C0005C60CFF6FF673E402CF4005746EA0524A7
:1054D000DC614E6809691E6447EA0E371F62DF69A6
:1054E00047F40067DF61DF6927F48067DF6156E01A
:1054F0000027C4F20107BB4205D040F20047C4F2C6
:105500000107BB4204D14F6924F4803444EA0724E4
:105510004FF68C775C60CFF6FE7703373E402CF475
:10552000003746EA05045C654E6809699E6547EAEE
:105530000E471F625F6D47F008075F655F6D27F0DC
:1055400004075F6557E000BF0027C4F20107BB42B4
:1055500005D040F20047C4F20107BB4204D14F69B5
:1055600024F4802444EA872448F6FF475C60CFF6A1
:10557000FF6707F540773E402CF4001746EA052404
:105580005C654E680969DE6547EA0E571F625F6D0C
:1055900047F400675F655F6D27F480675F65090208
:1055A00029E000BF0026C4F20106B34205D040F254
:1055B0000046C4F20106B34206D12EF44077D1E989
:1055C0000565374347EA050E4FF68C75C3F804E0CE
:1055D000CFF6FE750CEA050747EA08079F614F689A
:1055E00009695F631C629F6947F008079F619F69B3
:1055F00027F004079F6113681943116000210022FE
:1056000080F83C200846BDE8F08100000000000062
:1056100060B310B5044690F83D0028B9002084F826
:105620003C00204600F024F8022084F83D00206869
:10563000211D00F0D5FD012084F8480084F83E00CB
:1056400084F83F0084F8400084F8410084F8420068
:1056500084F8430084F8440084F8450084F8460048
:1056600084F8470084F83D00002010BD01207047F9
:1056700070470000000000007047000000000000BC
:1056800010B540F600410068C4F2000188421DD008
:1056900040F20041C4F20001884218BF10BD00F082
:1056A00043FC40F21804C2F2004484ED010A00F009
:1056B00047FC84ED020A00F04BFC84ED030A00F085
:1056C0004FF8207000F024FC607010BDBDE8104061
:1056D000FBF75EB80000000070470000000000000B
:1056E00070B540F600444FF48051C5F602042046E0
:1056F000FCF722FF05464FF400512046FCF71CFF43
:1057000006464FF480412046FCF716FF710041EA3F
:10571000850141EA0002501EC1B240F22800C2F2E7
:1057200000400629427013D246F2B8629FED0A1A71
:10573000C0F600029FED092A515C01704A1E00EE7E
:10574000102AB8EEC00AA0EE012A80ED022A70BD30
:105750000021017070BD00BF920A863F920A063F89
:1057600040F22800C2F200400078704700000000BC
:10577000FEE700000000000010B58CB06846242150
:1057800000240B94CDE90944FAF729FE40F25800B1
:1057900042F20001C2F20040C4F202010822C0E954
:1057A000001484600121016142614FF48072028320
:1057B0000222C261032280F82040C0E90A44026349
:1057C000C0E90F4480F844408164FBF769FC08B1EC
:1057D000FBF77AF840F2580009A9C2F20040099498
:1057E000FBF78EF808B1FBF76FF804206946C0F6A6
:1057F00060000090062001900720029040F2FF70A8
:10580000039004200490002005908DF8210040F2C0
:105810005800C2F20040FBF7CFF808B1FBF754F88C
:105820000C20019040F258006946C2F20040FBF79C
:10583000C3F808B1FBF748F80CB010BD0000000039
:1058400080B582B044F2D8400022C5F6020001685B
:1058500041F0010101600068002100F001000190A9
:1058600001980B20FCF764FF0B2002B0BDE88040DC
:10587000FCF74ABF0000000081B044F2E040C5F6EA
:105880000200016841F080010160016801F08001BF
:1058900000910099016841F001010160016801F087
:1058A000010100910099016841F002010160016865
:1058B00001F0020100910099016841F020010160AE
:1058C000016801F0200100910099016841F0100188
:1058D0000160016801F0100100910099016841F038
:1058E00008010160006800F008000090009801B015
:1058F0007047000000000000B0B5A0B00025684669
:10590000342100241A94C4F20105CDE918441694F8
:10591000CDE91444CDE91244CDE91044CDE90E445B
:105920000D94FAF75CFD40F240106021C2F2004095
:10593000C0E90054816041F6DB21C0E90314042171
:10594000C0E90514FEF744FF08B1FAF7BDFF4FF4B4
:105950008050179040F2401017A9C2F20040FFF7A4
:10596000DBF808B1FAF7B0FF40F24010C2F2004095
:10597000FFF74EFE08B1FAF7A7FF2020149040F27F
:10598000401014A9C2F200400024CDE91544FEF7EE
:10599000AFFE08B1FAF798FF60200DA9CDE90D041C
:1059A00040F240100022C2F200401394CDE90F44AF
:1059B000CDE91144FFF7C4FB08B1FAF785FF40F2C7
:1059C00040100DA9C2F200400422FFF7B9FB08B154
:1059D000FAF77AFF40F240100DA9C2F20040082207
:1059E000FFF7AEFB08B1FAF76FFF40F2401400205A
:1059F000C2F200440290CDE9000064210890CDE994
:105A000003104FF400510C90CDE905104FF00071D8
:105A1000CDE9091069462046FEF7DEFC08B1FAF729
:105A200053FF2068A84201D020B0B0BD44F2E0404E
:105A3000C5F60200016841F01001016000681BA971
:105A400000F010001B901B984FF47C501B9002201C
:105A50001C900020CDE91D0001201F9041F20000A4
:105A6000C5F60200FCF780FC20B0B0BD00000000CD
:105A700010B588B040F2D8104EF20001C2F20040DA
:105A800000240394C4F20001CDE90144C0E90014EC
:105A900084604FF0FF31C0E903148461FEF798FE83
:105AA00008B1FAF711FF4FF4005004A9CDE904043E
:105AB00040F2D810C2F20040CDE90644FFF72CF8BE
:105AC00008B1FAF701FF00200190039040F2D810CE
:105AD000C2F2004001A9FEF70BFE08B1FAF7F4FE8E
