:020000040800F2
:10000000B80400206D03000809610008F9600008C9
:1000100001610008D1060008816C000800000000A2
:1000200000000000000000000000000071630008F4
:10003000290B00080000000011610008216700087A
:100040008B0300088B0300088B0300088B03000858
:100050008B030008696300088B0300088B0300080A
:100060008B0300088B0300088B030008D9060008E7
:100070008B0300088B0300088B0300088B03000828
:100080008B0300088B0300088B0300088B03000818
:100090008B0300088B0300088B0300088B03000808
:1000A0008B030008C96800088B0300088B03000855
:1000B0008B030008D9680008E96800088B03000872
:1000C0008B0300088B0300088B0300088B030008D8
:1000D0008B0300088B0300088B0300088B030008C8
:1000E0008B0300088B030008000000008B0300084E
:1000F0008B0300088B0300088B0300088B030008A8
:100100008B0300088B030008F96800088B030008C4
:100110008B0300088B0300088B0300088B03000887
:100120008B0300088B0300088B0300088B03000877
:100130008B0300088B0300088B0300088B03000867
:1001400000000000000000000000000000000000AF
:100150008B0300088B0300088B0300088B03000847
:100160008B0300088B0300088B0300088B03000837
:100170008B0300088B0300088B03000800000000BD
:100180008B0300088B0300088B0300088B03000817
:100190008B0300088B0300088B0300088B03000807
:1001A0008B0300088B0300088B030008000000008D
:1001B0008B0300088B0300088B0300088B030008E7
:1001C0008B0300088B030008000000000000000003
:1001D00000000000000000008B0300080000000089
:1001E000000000000000000000000000000000000F
:1001F00000000000000000008B0300088B030008D3
:100200008B0300088B030008000000008B0300082C
:100210008B0300088B0300088B0300088B03000886
:100220008B030008000000008B03000800000000A2
:100230008B0300088B030008000000008B030008FC
:100240008B0300088B0300088B0300088B03000856
:100250008B0300088B0300088B0300088B03000846
:100260008B0300088B0300088B0300088B03000836
:100270008B0300088B0300088B03000800000000BC
:100280008B0300088B0300088B0300088B03000816
:10029000000000008B0300088B0300080000000032
:1002A000000000008B0300088B0300088B0300088C
:1002B0008B0300088B0300088B0300088B030008E6
:1002C0008B0300088B0300088B03000800F002F882
:1002D00000F03CF80AA090E8000C82448344AAF1A4
:1002E0000107DA4501D100F031F8AFF2090EBAE8A2
:1002F0000F0013F0010F18BFFB1A43F0010318475A
:10030000F87D0000287E0000103A24BF78C878C12C
:10031000FAD8520724BF30C830C144BF04680C600B
:10032000704700000023002400250026103A28BF53
:1003300078C1FBD8520728BF30C148BF0B60704757
:100340001FB507F0B1FA1FBD10B510BD00F070F871
:100350001146FFF7F5FF06F023FD00F08EF803B419
:10036000FFF7F2FF03BC00F091F800000A48804755
:100370000A4880470A480047FEE7FEE7FEE7FEE737
:10038000FEE7FEE7FEE7FEE7FEE7FEE70548064973
:10039000064A074B70470000390B0008F167000858
:1003A000CD020008B8020024B8040020B8040024DC
:1003B000B80000204FF0000200B513469446964660
:1003C000203922BFA0E80C50A0E80C50B1F1200168
:1003D000BFF4F7AF090728BFA0E80C5048BF0CC016
:1003E0005DF804EB890028BF40F8042B08BF704774
:1003F00048BF20F8022B11F0804F18BF00F8012BE6
:10040000704770477047704710B500F009F80068F2
:1004100010BD10B5044600F003F8046010BD0000E4
:100420000048704700000024004870470000002486
:100430007546FFF7F9FFAE4605006946534620F0C2
:100440000700854618B020B5FFF7A0FFBDE82040A3
:100450004FF000064FF000074FF000084FF0000B80
:10046000AC46ACE8C009ACE8C009ACE8C009ACE8EF
:10047000C00921F007018D46704710B50446AFF35F
:1004800000802046BDE81040FFF769BF01491820F1
:10049000ABBEFEE72600020070470000000000002F
:1004A00010B50446006842F2001140F48070C4F2B6
:1004B0000201884218D142F20830C4F202000068FA
:1004C00010F4403F18D003F0A7FF6168B1F5803FFA
:1004D00005D0B1F5403F2BD0B1F5003F29D1090C33
:1004E000B0FBF1F025E000BF46F20830C5F602008F
:1004F000006810F4403FE6D14FF40020002102F0E4
:10050000FFFE6168A1F580224FEAB2420A2A10D8A4
:10051000DFE802F00606060606063C3E40424400BE
:100520006FF0010202EA5141B0FBF1F001E000BFBF
:1005300080084BF62141C0F2BE01884206D82068EF
:10054000816821F44071816010BD00BF47F6410110
:10055000C0F27D11884207D820680122816862F3C9
:100560000921816010BD00BF21684FF28102C0F2F5
:10057000FA229042886805D8022262F30920886036
:1005800010BD00BF40F44070886010BD0009D0E786
:100590004009CEE78009CCE7C009CAE7000AC8E7EE
:1005A0000146806B026E12F0500F026E06D0D2062A
:1005B00010D4806DC26C0846104700BF42F4007131
:1005C000016601680A681207CA6805D4910709D054
:1005D00000F09ABE00F0A0BE12F4406FF8D1C968D6
:1005E0008904F5D4016E21F480710166016EC9049D
:1005F000EED4016E41F00101016600F085BE0000FD
:10060000806B016E41F040010166416E41F00401D2
:10061000416600F081BE0000806B00F079BE0000F2
:10062000F0B581B0044600688168C9074CD14FF627
:10063000C0778168C7F6FF7707F17F0211420BD0C0
:10064000206E40F010002066606E40F00100606691
:10065000012001B0F0BD00BF8168394041F00101C7
:10066000816002F025FB42F2000346F20836C4F234
:100670000203216803F5807203F54275C5F6020690
:10068000914208BF2E46994208BF2E469942054620
:10069000306816D0914214D110F01F0014D110E030
:1006A0008868C00704D18868384040F0010088603D
:1006B00002F0FEFA401B2168032802D30868C00735
:1006C000BED00868C007EBD0002001B0F0BD00002C
:1006D000FEE700000000000040F2A410C2F200405B
:1006E00001F0D6B80000000040F20F42D0F800C080
:1006F000C4F20202944511DC6F22C4F20202944556
:1007000022DC3F22C4F20202944539DC1022C4F2FA
:10071000020294455AD0282254E000BF40F26F42B2
:10072000C4F2020294451BDC40F23F42C4F20202D2
:1007300094452DDC40F21042C4F20202944545D0AB
:1007400040F228423EE000BF9F22C4F202029445DC
:1007500028DC7022C4F20202944537D0882231E0AE
:1007600040F29F42C4F20202944523DC40F2704200
:10077000C4F20202944529D040F2884222E000BF30
:100780004022C4F20202944520D058221AE000BF51
:1007900040F24042C4F20202944517D040F258425F
:1007A00010E000BFA022C4F2020294450ED0B8228D
:1007B00008E000BF40F2B842C4F20202944505D0FE
:1007C00040F2A042C4F20202944517D10CF0F802A4
:1007D0004AF6AB23103ACAF6AA23A2FB03310AA3B6
:1007E0005F2AC1F302115B5C40F2FF312CEA010188
:1007F000C36588BF04318165084670472CF0FF014E
:1008000081650846704700BF0006101600061016E6
:1008100070B540F26F44D0F800C0C4F20204D0F8C2
:1008200058E0A4451ADC9F25C4F20205AC4533DC30
:100830005725C4F20205AC455ADC1025C4F2020566
:10084000AC4500F098802825C4F20205AC4500F0C4
:1008500092804025C4F202058AE000BF45F22F4590
:10086000C5F60205AC452DDC40F2B745C4F20205E1
:10087000AC454BDC40F27045C4F20205AC457AD081
:1008800040F28845C4F20205AC4574D040F2A04560
:10089000C4F202056CE000BF40F22745C4F2020535
:1008A000AC4543DCA025C4F20205AC4563D0B825B5
:1008B000C4F20205AC455ED040F21045C4F2020518
:1008C00056E000BF45F26B45C5F60205AC453FDC7E
:1008D00045F23045C5F60205AC454CD045F24445DD
:1008E000C5F60205AC4546D045F258453EE000BF8E
:1008F0005825C4F20205AC453DD07025C4F202056E
:10090000AC4538D08825C4F2020531E040F2B84544
:10091000C4F20205AC452ED045F20845C5F60205E5
:10092000AC4528D045F21C4520E000BF40F22845E8
:10093000C4F20205AC451ED040F24045C4F20205A7
:10094000AC4518D040F25845C4F2020510E000BF93
:1009500045F26C45C5F60205AC450CD045F2944510
:10096000C5F60205AC4506D045F28045C5F6020540
:10097000AC4540F0D580456EC66E002E866E6E602A
:100980001CBFD0E91C566E60A44515DC9F24C4F240
:100990000204A4452CDC5724C4F20204A44551DC13
:1009A0001024C4F20204A4457AD02824C4F202041C
:1009B000A44575D040246FE045F22F44C5F60204EB
:1009C000A44529DC40F2B744C4F20204A44545DC46
:1009D00040F27044C4F20204A44561D040F288445D
:1009E000C4F20204A4455BD040F2A04454E000BF2E
:1009F00040F22744C4F20204A4453FDCA024C4F220
:100A00000204A4454CD0B824C4F20204A44547D043
:100A100040F2104440E000BF45F26B44C5F60204CA
:100A2000A44555DC45F23044C5F60204A44561D026
:100A300045F24444C5F60204A4455BD045F258444F
:100A400054E000BF5824C4F20204A44528D0702406
:100A5000C4F20204A44523D088241DE040F2B84427
:100A6000C4F20204A4451BD045F20844C5F60204B2
:100A7000A4453FD045F21C4438E000BF40F2284472
:100A8000C4F20204A4450BD040F24044C4F2020474
:100A9000A44505D040F25844C4F20204A4453FD115
:100AA0008468C06D00F01F003F2505FA00F0CEF805
:100AB0000800DCF80000402C20F48020CCF8000076
:100AC000CCF8043023D0CCF80810CCF80C2070BD42
:100AD00045F26C44C5F60204A4450BD045F28044AF
:100AE000C5F60204A44505D045F29444C5F60204B7
:100AF000A44515D1C46D806804F01F040125402869
:100B000005FA04F4CEF80440CCF8043004D1CCF853
:100B10000820CCF80C1070BDCCF80810CCF80C20D4
:100B200070BD0000000000007047000000000000E1
:100B300072B600BFFEE7000044F60400C5F60200EE
:100B4000816841F0020181600168890409D401686B
:100B500089045CBF01685FEA814102D401688904AD
:100B6000F2D5704700000000B0B582B090F85C206C
:100B7000012A03D10221084602B0B0BD42F2083278
:100B800000230193C4F202020093A2F542740368A9
:100B9000A34227D14FF6006E4FF60055CFF6FF7EE9
:100BA000CFF6FF7552F80E40535923435B0719D413
:100BB000D1F800C01368BCF1000F23F440441DD0ED
:100BC0004B6823431360535952F80E502B43DB07F5
:100BD00022D1136840F61F75AB438968194341EA77
:100BE0000C0116E0016E41F0200101660121002296
:100BF00080F85C20084602B0B0BD00BF14605159B7
:100C000052F80E301943C90708D1116840F61F7316
:100C1000994311600021EAE70021E8E70021E6E7B7
:100C20002DE9F04F81B00022009290F85C20012A5B
:100C300004D10221084601B0BDE8F08F036801220B
:100C400080F85C209A68520700F1008346F2083C65
:100C50000A68C5F6020C4FF6FF78002AC0F20F08AA
:100C6000ACF5427E14D4734512D092FAA2F512EA82
:100C7000080FB5FA85F54FF0010608BF950E920EE4
:100C800005F01F0506FA05F5DE693543DD6100E074
:100C9000920E4D681F2402F01F02C5F3012605F0D5
:100CA0001F05AC4003EB8606AA40376B27EA040415
:100CB000224332639A689C6802F0040204F008043C
:100CC000121940F02E810A6807268D687345C2F319
:100CD0004064C2F3045203EB840406FA02F6676927
:100CE00005FA02F227EA060642EA060262610FD01E
:100CF00041F20002C5F60042126802F07042B2F101
:100D0000805F6DD14A69DC680E2505EA5404A3E0D2
:100D10004FF604540A69CFF6FF74042A4D695CF853
:100D2000046067D14FF65852CFF6FF725CF802208C
:100D30001C6E0E68C4F3846416EA0802C6F3846568
:100D400096FAA6F6B6FA86F6374608BF2F46BC4294
:100D50000CD11A6E22F000421A660C6804EA0802EE
:100D6000C4F3846594FAA4F4B4FA84F65C6E37464E
:100D70005C6E002A08BF2F46C4F38464BC420CD1C9
:100D80005A6E22F000425A660C6804EA0802C4F364
:100D9000846594FAA4F4B4FA84F69C6E37469C6E8B
:100DA000002A08BF2F46C4F38464BC420CD19A6E5B
:100DB00022F000429A660C6804EA0802C4F38465D3
:100DC00094FAA4F4B4FA84F6DC6E002ADC6E08BF50
:100DD0002E46C4F38462B24200F09F80A1E000BFBF
:100DE000DC684A69DD68E4064FEA550532D405F04F
:100DF0000E0431E0ACF52A744FF2000BD1F800A0DC
:100E0000062754F82290C0F2FF3B07EA96060AF044
:100E1000F84A09EA0B07B5400AEB0706354345F0E7
:100E2000004544F822500A69CD6954F8226026F042
:100E30008076354344F822500A6991F8205054F8DE
:100E40002260012D26F0007608BF06F1007644F8F6
:100E5000226066E005F008040D69A240042D1FD150
:100E60001A6E0C6802F0F845A206954242D11C6E3B
:100E700024F000441C665C6E04F0F84494423ED0BA
:100E80009C6E04F0F844944242D19C6E24F00044DD
:100E90009C66DC6E04F0F844944242D13DE000BF11
:100EA00003F160040E6806F0F84654F8257007F068
:100EB00000473A43324344F825200A6991F821500B
:100EC00054F82260012D26F0004608BF06F10046C6
:100ED00044F822600A7E0C691D69013A04F01F047F
:100EE000B2FA82F225F4F0455209D202A2402A4316
:100EF0001A6116E05C6E04F0F8449442C0D15C6E56
:100F000024F000445C669C6E04F0F8449442BCD02B
:100F1000DC6E04F0F844944203D1DA6E22F0004211
:100F2000DA669A68D20711D173450A68CD680FD086
:100F300005F01804D3F8C01028FA04F402EA0806F1
:100F4000B14314402143C3F8C01012E0002182E1F4
:100F50004FF6A85105F01806CFF6FF7128FA06F6ED
:100F600002EA080716405CF80140BC4334434CF8E1
:100F700001400021C4F2527101F52D04A54240F058
:100F8000138146F20004C5F60204A3422CD042F2BB
:100F90000014C4F20204A3423CD042F20004C4F2A2
:100FA0000204A34250D11F24C1F2F044A24275DDD5
:100FB00040F2FF74C2F63064A2425FDD40F60004E6
:100FC000C2F63064A24200F0BF8041F20004C3F2D6
:100FD0006024A24200F0B2800024C4F22134A24274
:100FE00000F0CD80B6E000BF1F21C1F2F0418A427F
:100FF0002CDC0721C0F690418A426DDC0221C0F250
:1010000030418A4254D00421C0F660018A4216D091
:10101000AAE000BF1F21C1F2F0418A4228DC07216B
:10102000C0F690418A4245DC0221C0F230418A423A
:101030003ED00421C0F660018A4240F08B804021FE
:10104000C1F620119BE000BF002198E040F2FF7143
:10105000C2F630618A4253DC2021C1F2F0418A425B
:1010600034D040F20041C2F600218A4211D07BE028
:1010700040F2FF71C2F630618A4253DC2021C1F296
:10108000F0418A4222D040F20041C2F600218A4259
:1010900060D140F60001C2F6306170E00721C0F671
:1010A00090418A4206DC0221C0F230418A42C0D11E
:1010B000012164E00821C0F690418A421CD0102131
:1010C000C1F2C0018A4211D044E000BF40F20021C9
:1010D000C2F2B05153E000BF0821C0F690418A42ED
:1010E0000AD01021C1F2C0018A423DD140F2001164
:1010F000C2F2801143E000BF8021C1F650513EE0B2
:1011000040F60001C2F630618A421DD042F2000171
:10111000C3F290618A4227D144F20001C3F6C02194
:101120002DE000BF40F60001C2F630618A420BD0CC
:1011300041F20001C3F260218A420BD142F2000168
:10114000C3F290611BE000BF41F20001C3F26021D5
:1011500015E000BF00240021C4F68434A24204BF7D
:101160000021C4F6B8710AE044F200040021C3F67D
:10117000C024A24204BF48F20001C3F6F0617345E7
:1011800012D091FAA1F44FF6C135B4FA84F4C0F24A
:101190000A05294208BF8C0E04F01F01012404FA3D
:1011A00001F1DC692143D961B2F1FF3F02DD002189
:1011B00051E000BF42F2000142F20016C4F2020107
:1011C000C4F2020601F5807401F54275A34264463B
:1011D00008BF2C468B4208BF2C4643F48075B542AD
:1011E00025682BD18C68D1F808112143C9072DD16E
:1011F000002105F0E074CCF252718A4208BF15F468
:1012000000012FD00021CCF221318A4208BF15F015
:1012100080712BD00021CCF684318A424FF000013E
:1012200019D115F4800208BF734514D1DCF8001001
:1012300021F0E071214341F4800156E04FF6005166
:10124000CFF6FF715CF80110C907D1D0016E41F0F3
:10125000200101660121002280F85C20084601B0CF
:10126000BDE8F08F734505D00021F4E7734535D014
:101270000021F0E7DCF8001042F6635221F0E07143
:10128000C0F23E52214341F40001CCF8001040F27C
:101290001001C2F2000109688909A1FB021291093B
:1012A000022202EB41010091009919B30099013922
:1012B0000091009901B30099013900910099E9B1B9
:1012C0000099013900910099D1B10099013900913B
:1012D000009900294FF00001E8D1BCE7DCF80010CC
:1012E00021F0E071214341F08071CCF80010002121
:1012F000B1E700BF0021AEE70021ACE70021AAE77B
:101300000021A8E700000000704700000000000076
:10131000704700000000000070470000000000005F
:10132000F0B581B0044600284FF0000000902DD0A9
:10133000206E30B9204600F07BF90020606684F80A
:101340005C002068816889004FF6C071C5F6FF71A6
:1013500002D582680A4082608268D20031D48268F5
:1013600001F18051114042F6635241F08051816099
:1013700040F21001C0F23E52C2F200010968890930
:10138000A1FB0212012101EB921105E00125284683
:1013900001B0F0BD009901390091009989B100991F
:1013A00001390091009961B10099013900910099CA
:1013B00000291FBF009901390091009918BF002929
:1013C000E8D18168C90009D4216E012541F01001DE
:1013D0002166616E41F00101616600E000258168CF
:1013E000226E02F0100201F004018918216E59D119
:1013F00021F4817146F2100C023121668168C5F634
:10140000020CC90724D142F2001240F48071C4F2E8
:101410000202914242F20001C4F2020140F0F08067
:101420008A68D1F808311A43D20711D101F58072C8
:1014300001F5427390421A4618BF0CF53E7288427D
:1014400008BF1A466168136823F47C1319431160BE
:10145000617EE36BACF11006B04243EA413329D020
:10146000A168194394F82030012B41EA034306D1C7
:10147000616A0022CFF6FE7202EB41410B43A16A82
:1014800021B101F47871E26A11430B43B0421FD0DD
:101490004CF20302C168CFF6F07211401943C160EB
:1014A00028E000BF41F0100001252066284601B069
:1014B000F0BD00BFA168D4F80CE0082900F0A680B8
:1014C0000C2900F0A5801C2940F0A4801021A4E084
:1014D00044F207025CF8041CCFF6F0721140194385
:1014E0004CF8041CDCF80010626B21F040611143E1
:1014F000CCF800108168826801F0040102F0080253
:10150000891869D1217EB0424FEA813126D0226B01
:10151000C36844F20307BB431A431143C16094F804
:101520004410012948D14FF61E020169CFF600424E
:101530000126D4E912371140CFF6FF7606EB0343BC
:101540003943276D1943636D3943226C1943016197
:10155000016921F07041114301613AE05CF8042C0B
:1015600094F8383044F2030E94F8447022EA0E02E4
:1015700042EA4302012F41EA02014CF8041C1BD14C
:101580004FF61E01DCF80000CFF600410840D4E918
:1015900012120843216D1043626D0843216C104301
:1015A00040F00100CCF80000DCF8000020F07040B2
:1015B0000843CCF800000FE00169B04221F00101BE
:1015C00001610169226C21F0704141EA020101616F
:1015D00002D02046FEF764FF20682169026B0129D2
:1015E00022F00F0102D1E269013A114301630121A6
:1015F000206E61F301002066284601B0F0BD00BFF7
:101600005CF8082CD2073FF411AF21E7002104E079
:10161000082102E0182918BF002141EA0E011943F0
:1016200094F82030012B41EA03433FF421AF26E731
:101630002DE9F043B5B0044602A8283090210025DA
:101640003095CDE93355CDE93155FEF7B3FE42F281
:1016500000012068C4F20201884203D035B0BDE821
:10166000F08300BF4FF4002002900220049010216C
:101670000395CDE90510CDE90700C0200B95CDE914
:10168000090502A802F040F808B1FFF751FA44F248
:10169000E0400025C5F60200C5F6020530AE4FF069
:1016A000030850F8081C002741F0200140F8081CEE
:1016B00050F8081C01F0200101910199016841F0E6
:1016C00001010160016801F00101019101990168C6
:1016D00041F0200101600068314600F020000190D7
:1016E0000198402030902846CDF8C480329701F010
:1016F000EFF905F5A05031464FF400693297CDE976
:10170000309801F0E5F940F2A4151020C2F200452E
:10171000C4F2020028600920C5E901074FF4806087
:10172000EF60C5E904094FF40050A8614FF48070E0
:101730006F62C5E90707284600F0C6FC08B1FFF74D
:10174000F7F9A565AC6335B0BDE8F0830000000093
:101750002DE9F04742F2001546F20C0AC4F20205E8
:10176000044605F50277C5F6020A03683846A5F572
:101770008076AB4218BF0AF53F70B34208BF3846C7
:1017800000689B685B0704D4894694F85C100129C3
:1017900002D10220BDE8F08700F01F060120092ECB
:1017A00084F85C004CD8B04040F22121084247D078
:1017B00020469046FEF734FF20B1002184F85C10EB
:1017C000BDE8F087216840F60172206EA94220EA48
:1017D000020000F58070206600D11EB9206E20F452
:1017E00080102066206E40F2A153C0044FF000002C
:1017F00044BF606E20F0060040F21967C0F6000397
:101800006066C0F60007A06D0022C0E90F3740F205
:101810000163C0F60003C3641C230B6084F85C20E2
:10182000AAF10C024B68914243F010024A600DD0BD
:10183000226BCB6823F003031A43CA6016E000BF93
:10184000002084F85C000120BDE8F08794F838207F
:10185000DAF8003023F0030343EA4202CAF800201A
:10186000DAF8002042F00102CAF8002040314A466E
:10187000434600F059FF21684FF6C073C7F6FF7367
:101880008A681A4004328A60BDE8F08700000000D0
:101890002DE9F04782B00021019140F21001044689
:1018A000C2F2000148F2B512C1F64E32A56D0968C8
:1018B00040F26F490068C4F20209A1FB02184845D2
:1018C0002E68296816DC9F21C4F2020188422DDCB3
:1018D0005721C4F20201884252DC1021C4F20201F5
:1018E00088427CD02821C4F20201884277D040216E
:1018F00070E000BF45F22F42C5F60202904229DC9B
:1019000040F2B742C4F20202904245DC40F270411C
:10191000C4F20201884262D040F28841C4F202015E
:1019200088425CD040F2A04154E000BF40F2274121
:10193000C4F2020188423FDCA021C4F202018842C5
:101940004DD0B821C4F20201884248D040F2104183
:1019500040E000BF45F26B42C5F60202904275DCE2
:1019600045F23042C5F60202904200F0828045F214
:101970004442C5F6020290427BD045F2584273E0E1
:101980005821C4F20201884229D07021C4F2020118
:10199000884224D088211DE040F2B842C4F20202FD
:1019A00090421CD045F20842C5F60202904260D037
:1019B00045F21C4258E000BF40F22841C4F2020147
:1019C00088420CD040F24041C4F20201884206D065
:1019D00040F25841C4F20201884240F05A83E16D5E
:1019E000082201F01F0140F20F4A8A40C4F2020AA5
:1019F000324200F0E68050454FF0040312DC6F27BE
:101A0000C4F20207B8426FDC3F27C4F20207B842B3
:101A100000F3A4801027C4F20207B84200F0C5808A
:101A20002827BDE048456BDC40F23F47C4F202077F
:101A3000B84200F39B8040F21047C4F20207B8425C
:101A400000F0B38040F22847AAE000BF45F26C42A4
:101A5000C5F6020290420CD045F28042C5F6020261
:101A6000904206D045F29442C5F60202904240F000
:101A700010830268E36D03F01F0304279F400F42A9
:101A800018BF12F0040621D102279F400F4218BF51
:101A900012F002064CD1D940090740F1FA8212F047
:101AA000080100F0F682016821F00E0101600120BA
:101AB00000FA03F16960606584F835000020E16C8C
:101AC00084F83400002940F0DC82E2E211046F6007
:101AD00026D4910603D4016821F004010160216C31
:101AE000002940F0CE82D4E29F27C4F20207B84218
:101AF00046DC7027C4F20207B84256D088274FE070
:101B000040F29F47C4F20207B84241DC40F27047FE
:101B1000C4F20207B84248D040F2884740E000BF14
:101B2000D00300F1B382216C002940F0AA82B0E218
:101B300011046F6000F1B482910609D4016821F0AC
:101B40000A010160012084F83500002084F8340087
:101B5000E16B002940F095829BE200BF4027C4F270
:101B60000207B84221D058271AE000BF40F2404790
:101B7000C4F20207B84218D040F2584710E000BF44
:101B8000A027C4F20207B8420FD0B82708E000BF70
:101B900040F2A047C4F20207B84206D040F2B8476C
:101BA000C4F20207B84218BF082307681F4208D0D2
:101BB000036823F004030360AA60626D42F001022F
:101BC000626501228A4032426FD0504510DC6F239B
:101BD000C4F2020398421DDC3F23C4F20203984280
:101BE00034DC1023C4F20203984256D028234FE07D
:101BF00048451BDC40F23F43C4F2020398422DDC0F
:101C000040F21043C4F20203984246D040F2284307
:101C10003EE000BF9F23C4F20203984228DC7023F9
:101C2000C4F20203984238D0882331E040F29F4347
:101C3000C4F20203984223DC40F27043C4F2020370
:101C400098422AD040F2884322E000BF4023C4F2E9
:101C50000203984221D058231AE000BF40F24043CB
:101C6000C4F20203984218D040F2584310E000BF7B
:101C7000A023C4F2020398420FD0B82308E000BFAB
:101C800040F2A043C4F20203984206D040F2B843A7
:101C9000C4F20203984240F0098243691B0604D54E
:101CA000AA60626D42F00202626504228A403242FA
:101CB0006FD0504510DC6F23C4F2020398421DDC44
:101CC0003F23C4F20203984234DC1023C4F202031F
:101CD000984256D028234FE048451BDC40F23F4352
:101CE000C4F2020398422DDC40F21043C4F2020316
:101CF000984246D040F228433EE000BF9F23C4F202
:101D00000203984228DC7023C4F20203984238D0C0
:101D1000882331E040F29F43C4F20203984223DC5F
:101D200040F27043C4F2020398422AD040F2884342
:101D300022E000BF4023C4F20203984221D058237E
:101D40001AE000BF40F24043C4F20203984218D0A8
:101D500040F2584310E000BFA023C4F202039842AF
:101D60000FD0B82308E000BF40F2A043C4F2020342
:101D7000984206D040F2B843C4F20203984240F0C1
:101D80009D8103689B0704D5AA60626D42F004023E
:101D90006265102202FA01F1314200F08180504563
:101DA0004FF0080210DC6F23C4F2020398421DDCDE
:101DB0003F23C4F20203984234DC1023C4F202032E
:101DC000984256D028234FE048451BDC40F23F4361
:101DD000C4F2020398422DDC40F21043C4F2020325
:101DE000984246D040F228433EE000BF9F23C4F211
:101DF0000203984228DC7023C4F20203984238D0D0
:101E0000882331E040F29F43C4F20203984223DC6E
:101E100040F27043C4F2020398422AD040F2884351
:101E200022E000BF4023C4F20203984221D058238D
:101E30001AE000BF40F24043C4F20203984218D0B7
:101E400040F2584310E000BFA023C4F202039842BE
:101E50000FD0B82308E000BF40F2A043C4F2020351
:101E6000984206D040F2B843C4F20203984218BF29
:101E700004220368134213D0A96001684903016872
:101E800008D4C90508D4016821F008010160216C5B
:101E900021B905E008034FD4216C09B120468847D9
:101EA000E06D00F01F01202000FA01F2324200F044
:101EB000AB8020681023504510DC6F27C4F2020766
:101EC000B8421DDC3F27C4F20207B84238DC1027B5
:101ED000C4F20207B8425AD0282753E048451BDC19
:101EE00040F23F47C4F20207B84231DC40F21047EB
:101EF000C4F20207B8424AD040F2284742E000BF8D
:101F00009F27C4F20207B8422CDC7027C4F20207F4
:101F1000B8423CD0882735E040F29F47C4F2020720
:101F2000B84227DC40F27047C4F20207B8422ED014
:101F300040F2884726E000BFA16C0029AED1AFE790
:101F40004027C4F20207B84221D058271AE000BF48
:101F500040F24047C4F20207B84218D040F2584756
:101F600010E000BFA027C4F20207B8420FD0B82784
:101F700008E000BF40F2A047C4F20207B84206D012
:101F800040F2B847C4F20207B84218BF02230768FC
:101F90001F4239D0AA6094F83520042A02681BD168
:101FA00022F016020260426922F080024261226C35
:101FB0000AB9A26C1AB1026822F0080202603F203E
:101FC0008840A860012084F83500216D0020002998
:101FD00084F8340055D15CE0510301680ED4C90582
:101FE0000ED4016821F010010160012084F8350051
:101FF000002084F83400E16B21B905E008034BD4DC
:10200000E16B09B120468847606D002841D0606DC2
:10201000C00734D0042084F8350020684FEA9821A6
:10202000026822F001020260019A013201928A42A2
:102030001AD80268D20717D0019A013201928A4257
:1020400012D80268D2070FD0019A013201928A4257
:102050000AD80268D20707D0019A013201928A4257
:1020600002D80268D207DFD10068C0074FF0030032
:1020700008BF012084F83500002084F83400E16CAA
:1020800039B1204602B0BDE8F0470847A16C0029ED
:10209000F7D102B0BDE8F087616C0029B2D1B3E797
:1020A000D0030DD4616C0029EBD1F2E70268042261
:1020B0008A4032427FF4FDAD6BE600BF026868E6FD
:1020C000E16B0029DDD1E4E72DE9F04381B004465E
:1020D00000F0EEFD002C00F0AF8040F26F480546A6
:1020E0002068C4F20208404516DC9F21C4F20201B8
:1020F00088422DDC5721C4F20201884254DC1021B1
:10210000C4F20201884200F07E802821C4F202015C
:10211000884278D0402171E045F22F41C5F6020196
:10212000884229DC40F2B741C4F20201884247DC10
:1021300040F27041C4F20201884264D040F288410A
:10214000C4F2020188425ED040F2A04156E000BFD6
:1021500040F22741C4F20201884241DCA021C4F2CE
:10216000020188424FD0B821C4F2020188424AD00D
:1021700040F2104142E000BF45F26B41C5F602015A
:10218000884200F3BD8045F23041C5F60201884225
:1021900000F0C98045F24441C5F60201884200F0D2
:1021A000C28045F25841B9E05821C4F20201884288
:1021B00029D07021C4F20201884224D088211DE078
:1021C00040F2B841C4F2020188421CD045F20841F5
:1021D000C5F60201884200F0A68045F21C419DE050
:1021E00040F22841C4F2020188420CD040F2404142
:1021F000C4F20201884206D040F25841C4F2020102
:10220000884240F02581022184F83510002184F8AD
:102210003410016821F00101016000BF20680168ED
:10222000C9070DD000F044FD401B0628F6D320203E
:102230006065032084F83500012001B0BDE8F0831B
:1022400048F23F0204F108060168CFF6106211401F
:10225000D4F818C06CCE1143D4F824901943E36924
:102260002943256A0E43B9F1040F43EA060343EA02
:10227000050343EA0C0303D1D4E90B652E43334332
:10228000666843F48011A6F13F07A6F12905042FE3
:10229000A6F1470238BF0B46062DA6F14F0E38BFF8
:1022A0000B46022A26F0030238BF0B46BEF1040F8C
:1022B00038BF0B46742A08BF0B46B9F1040F036000
:1022C000416921F0070141EA090140F0DD80D4E9CC
:1022D0000A53002B41EA050100F0D680BCF5005FEF
:1022E00000F0B880BCF1000F40F0C080022D00F07B
:1022F000C080012D00F0B480002D00F0BA80C3E052
:1023000045F26C41C5F6020188420CD045F280418D
:10231000C5F60201884206D045F29441C5F6020195
:10232000884240F0958004F1080E022184F83510AF
:10233000002184F834100168A3699EE80450A2F1DA
:102340008005E769B5FA85F566696D09402A4FEAA7
:10235000853543EA07026FF3101142EA060208BF0F
:10236000102541EADC0142EA0E02236A294341EAD0
:10237000D20141EA131140F80819C0B2CD214843F7
:102380003C2101EA9020E0652046FEF7ADF9E16DC1
:10239000012201F01F0102FA01F14160206840456D
:1023A00000F381809F21C4F20201884214DC57218E
:1023B000C4F20201884227DC1021C4F202018842E3
:1023C00000F0C7802821C4F20201884200F0C180D9
:1023D0004021C4F20201B9E040F22741C4F20201F7
:1023E000884221DCA021C4F20201884200F0B180C1
:1023F000B821C4F20201884200F0AB8040F21041E3
:10240000C4F20201A2E000BF5821C4F202018842D6
:1024100000F09F807021C4F20201884200F0998090
:102420008821C4F2020191E040F22841C4F2020185
:10243000884200F08E8040F24041C4F2020188429E
:1024400000F0878040F25841C4F202017EE000BFF4
:102450004020EDE6032D17D8DFE805F00E0B0E0245
:10246000A3F1C072B2FA82F2520904E0032D03D341
:102470000AD1C3F300623AB140206065012084F8BC
:10248000350001B0BDE8F08341612046FEF72CF92C
:10249000E16D3F2201F01F0102FA01F18160206825
:1024A00040457FF77FAF45F22F41C5F602018842D4
:1024B00016DC40F2B741C4F20201884226DC40F249
:1024C0007041C4F20201884243D040F28841C4F214
:1024D000020188423DD040F2A041C4F2020135E041
:1024E00045F26B41C5F6020188421FDC45F23041DE
:1024F000C5F6020188422CD045F24441C5F60201DE
:10250000884226D045F258411EE000BF40F2B84153
:10251000C4F2020188421CD045F20841C5F602010E
:10252000884216D045F21C410EE000BF45F26C41D6
:10253000C5F6020188420CD045F29441C5F602016D
:10254000884206D045F28041C5F60201884240F03B
:10255000E18045F2574C45F6FC01C5F6020CC5F684
:10256000020160450EDC45F22F42C5F602029042A0
:1025700018DC45F20842C5F60202904228D045F226
:102580001C4221E045F27F42C5F60202904213DC74
:1025900045F25842C5F60202904219D045F26C420B
:1025A00012E000BF45F23042C5F6020290420FD061
:1025B00045F2444208E000BF45F29442C5F60202EB
:1025C000904205D045F28042C5F60202904247D1C2
:1025D00000F0FC024CF6CD43083ACCF6CC43A2FB0B
:1025E0000323A1F1FC05A1F17C061B0905EB830582
:1025F00003F01F02A3682566802B4FF0010303FA46
:1026000002F26666A26605D10020606028607260F2
:102610001EE000BF6768FBB2013F072F2B607260AE
:1026200016D85E1E082E19D2604501F1440237DC2F
:1026300045F22F47C5F60207B84241DC45F208478C
:10264000C5F60207B84259D045F21C474AE000BF20
:1026500000206067C4E91B005CE000BFE06E54E04E
:1026600000F0F8024AF6AB23103ACAF6AA23A2FBFE
:10267000032740F20F43C4F2020308253A099842A7
:1026800003F1AA06134688BF05EB171340F60005B1
:10269000B042C4F2020505F1800628BF1346A5E743
:1026A00045F27F47C5F60207B84213DC45F25847AA
:1026B000C5F60207B84221D045F26C4712E000BFD0
:1026C00045F23047C5F60207B84217D045F24447F5
:1026D00008E000BF45F28047C5F60207B8420DD0BA
:1026E00045F29447C5F60207B84207D040F600000D
:1026F000C4F2020000F1FC0100F5A07201EB8300BE
:102700000121E066B1402267616700210160D4E9E0
:102710001C01416000206065012184F8351001B082
:10272000BDE8F08300000000B0B500283CD00546AD
:1027300090F83400012801D10220B0BD012085F8B5
:10274000340095F83500012828D1022085F835009D
:10275000002068652868046824F0010404602846A5
:10276000FEF756F840F20F422868C4F2020240F227
:102770006F419042C4F2020118DC6F23C4F20203DD
:10278000984225DC3F23C4F2020398423CDC10232C
:10279000C4F2020398425ED0282357E04FF4006051
:1027A0006865002085F834000120B0BD88421BDC3C
:1027B00040F23F43C4F2020398422DDC40F2104342
:1027C000C4F20203984246D040F228433EE000BFE4
:1027D0009F23C4F20203984228DC7023C4F2020350
:1027E000984238D0882331E040F29F43C4F202037C
:1027F000984223DC40F27043C4F2020398422AD08C
:1028000040F2884322E000BF4023C4F20203984212
:1028100021D058231AE000BF40F24043C4F2020323
:10282000984218D040F2584310E000BFA023C4F2F1
:10283000020398420FD0B82308E000BF40F2B8432B
:10284000C4F20203984206D040F2A043C4F202034D
:10285000984240F02F8103680B2464F34403036023
:102860002B6C1BB10823046823430360884219DCE6
:102870009F23C4F20203984232DC5723C4F20203BE
:10288000984259DC1023C4F20203984200F096806B
:102890002823C4F20203984200F090804023C4F23F
:1028A000020389E045F22F43C5F6020398422DDC6E
:1028B00040F2B743C4F2020398424BDC40F270434B
:1028C000C4F20203984279D040F28843C4F2020372
:1028D000984273D040F2A043C4F202036CE000BF00
:1028E00040F22743C4F20203984243DCA023C4F21F
:1028F0000203984262D0B823C4F2020398425DD02A
:1029000040F21043C4F2020356E000BF45F26B43AD
:10291000C5F6020398423FDC45F23043C5F6020398
:1029200098424BD045F24443C5F60203984245D045
:1029300045F258433EE000BF5823C4F202039842D8
:102940003CD07023C4F20203984237D08823C4F2EB
:10295000020331E040F2B843C4F2020398422DD0A2
:1029600045F20843C5F60203984227D045F21C43BE
:1029700020E000BF40F22843C4F2020398421DD079
:1029800040F24043C4F20203984217D040F2584349
:10299000C4F2020310E000BF45F26C43C5F6020327
:1029A00098420BD045F29443C5F60203984205D0F5
:1029B00045F28043C5F60203984274D12B6E1C6821
:1029C000E40303D51C6844F480741C60EB6E1BB1F7
:1029D0001D6845F480751D60904211DC6F21C4F2C2
:1029E000020188421EDC3F21C4F20201884235DC2C
:1029F0001021C4F20201884255D0282150E000BFC6
:102A000088421BDC40F23F41C4F2020188422DDCC7
:102A100040F21041C4F20201884244D040F2284101
:102A20003EE000BF9F21C4F20201884228DC7021F1
:102A3000C4F20201884236D0882131E040F29F4141
:102A4000C4F20201884223DC40F27041C4F2020168
:102A5000884228D040F2884122E000BF4021C4F2E1
:102A6000020188421FD058211AE000BF40F24041C5
:102A7000C4F20201884216D040F2584110E000BF73
:102A8000A021C4F2020188420DD0B82108E000BFA5
:102A900040F2B841C4F20201884204D040F2A041A1
:102AA000C4F202018842016841F001010160002086
:102AB000B0BD00BF0368052464F3430303602B6CBF
:102AC000002B3FF4D3AE0423CDE60000000000004D
:102AD0002DE9F04F82B00D68002D00F0DB8000F191
:102AE000264242F2004302F1FF72C5F602030A27B2
:102AF00098424FEAB2244FF0000C08BF0927082C77
:102B00004FF0000638BF4FEAB2270097002709E0D0
:102B100001370D6835FA07F206F102060CF1040CD4
:102B200000F0B880012202FA07F415EA0408EFD099
:102B3000D1F8049009F0030AAAF10105012D13D878
:102B40000322D0F808B002FA06F3CD682BEA03039B
:102B5000B5402B438360C9F300154368A34305FACE
:102B600007F4234343600DE0BAF1030F0AD18B68E9
:102B7000012B07D14FF0030AB3460AFA06F36FEAB6
:102B8000030E29E00322C36802FA06F4BAF1020F29
:102B90006FEA040E23EA04038C684FEA470B04FA39
:102BA00006F443EA0403C36016D16FF003020CF08D
:102BB0001C0502EA57030F22034402FA05FAD3F870
:102BC00020900C6929EA0A09AC4044EA09041C6215
:102BD000D1F8049009F0030A03680AFA0BF503EA36
:102BE0000E0319F4403F43EA0503036090D044F21A
:102BF000F44240F20849C5F60202C5F6000913681E
:102C000043F00203136013680F2203F002030193E1
:102C100027F00303019D0CF00C0553F809E002FABC
:102C200005F4009A2EEA040402FA05F54FF0B04EBE
:102C3000254343F80950DEF800304D6843EA0804A4
:102C4000EA0258BF23EA0804CEF8004040F2040E1E
:102C5000C5F6000EAC02DEF8002042EA080358BFB9
:102C600022EA0803AC03CEF80030DEF8802042EA06
:102C7000080358BF22EA0803ED03CEF88030DEF8DF
:102C80007C2042EA080358BF22EA0803CEF87C30D1
:102C90003EE700BF02B0BDE8F08F0000000000007A
:102CA0000069084018BF01207047000000000000C4
:102CB00040F2B000C2F2000000687047000000005F
:102CC00040F2080040F2B001C2F20000C2F200017E
:102CD00000780A6810440860704700000000000097
:102CE00080B5032000F008F901F0EEFB44F2184132
:102CF00047F6E403C5F60201C0F600030A68096856
:102D000001F00F01C2F30322595C9A5C01F01F012C
:102D100002F01F02D04040F21402C2F2000220FA78
:102D200001F1116040F21001C2F2000108600F20B1
:102D300000F00AF800281CBF012080BD00F07CF8DC
:102D4000002080BD0000000070B540F20806C2F20D
:102D500000063178E1B1044640F21000C2F20000F2
:102D60004FF47A72B2FBF1F10068B0FBF1F001F0C0
:102D7000C3FE0F2C4FF0010508D838B94FF0FF30D3
:102D800000222146002500F087F87460284670BDB7
:102D9000012070BD0000000010B54EF6A05E417825
:102DA000CEF2000E90F800C04EF8081CDEF80010BD
:102DB00021F00101CEF8001041684EF8041C017B9F
:102DC000C37A827A447B1B0643EA0171837B41EA22
:102DD000C241C27B41EA8441447A41EA4341007ADC
:102DE00041EA024141EA042141EA400040EA0C0084
:102DF000CEF8000010BD00004EF62450CEF20000C8
:102E0000BFF35F8F016821F4803101600021016709
:102E100070470000000000004EF6245140F0010011
:102E2000CEF200010867086840F480300860BFF304
:102E30004F8FBFF36F8F704780B582B044F2F4407C
:102E40000022C5F60200016841F00201016000683D
:102E5000002100F0020001900198052000F01CF80C
:102E6000052002B0BDE8804000F002B8000000007C
:102E7000002848BF704781B200F01F0001224909B5
:102E800002FA00F04EF20012CEF2000242F82100E7
:102E9000704700000000000070B54EF60C5C4FF06B
:102EA000FF36CEF2000C00F1604505F56445DCF814
:102EB0000030C3F3022E8EF00703042B28BF042337
:102EC000BEF1030406FA03F321EA030100F00F0345
:102ED00038BF0024043B0028634406FA04F048BFCE
:102EE00003F10C05A14022EA00000843000128700C
:102EF00070BD0000000000004EF60C514FF6FF03BD
:102F0000CEF200010A681A4060F30A2242F08060A3
:102F100040F0FD7008607047B0B544F60C05C5F68A
:102F2000020529684907296806D401F00701081A33
:102F300018BF0120B0BD00BF21F007010843286081
:102F4000FFF7B6FE044600BF55F8080C800407D40E
:102F5000FFF7AEFE001BB0F57A7FF5D90120B0BDBA
:102F60000020B0BD0000000080B544F2304EC5F630
:102F7000020E5EF8083C5EF8081CC1F3051C5EF802
:102F8000041CBCF1000FDEF8042019D001F001018F
:102F900003F003034942022B01EAD2016FF35F31D0
:102FA00000EE101AB8EE400A10D0012B12D01BB957
:102FB0005EF8301C890611D49FED361A1CE000BF64
:102FC00000218160C0E9001180BD00BF9FED301A73
:102FD00012E000BF9FED2D1A0EE000BF5EF8301C1E
:102FE00049F20002C0F2D032C1F3C10122FA01F16C
:102FF00001EE101AB8EE411ADEF800109FED263AE5
:103000006FF35F2102EE101ADEF80010C1F34621C3
:10301000B8EE422A00EE032A00EE10CAB7EE003ADC
:10302000B8EE400A81EE000A32EE031A02EE101AE0
:10303000B8EE422A20EE010A32EE031A80EE011A9F
:10304000BCEEC11A80ED001ADEF80010C1F3064193
:1030500001EE101AB8EE411A31EE031A80EE011A91
:10306000BCEEC11A80ED011ADEF80010C1F3066152
:1030700001EE101AB8EE411A31EE031A80EE010A81
:10308000BCEEC00A10EE101A816080BD0024744AA4
:1030900020BCBE4B0024744C00000039000000002E
:1030A00080B544F2384EC5F6020E5EF8103C5EF86C
:1030B000101C5EF80C2CC1F3053CDEF80410BCF1CA
:1030C000000F15D0C908D20601EAE2716FF35F3133
:1030D00000EE101A03F003010229B8EE400A0DD0E9
:1030E00081B95EF8381C890610D49FED361A1BE0B2
:1030F00000218160C0E9001180BD00BF9FED301A42
:1031000012E000BF9FED2D1A0EE000BF5EF8381CE4
:1031100049F20002C0F2D032C1F3C10122FA01F13A
:1031200001EE101AB8EE411ADEF800109FED263AB3
:103130006FF35F2102EE101ADEF80010C1F3462192
:10314000B8EE422A00EE032A00EE10CAB7EE003AAB
:10315000B8EE400A81EE000A32EE031A02EE101AAF
:10316000B8EE422A20EE010A32EE031A80EE011A6E
:10317000BCEEC11A80ED001ADEF80010C1F3064162
:1031800001EE101AB8EE411A31EE031A80EE011A60
:10319000BCEEC11A80ED011ADEF80010C1F3066121
:1031A00001EE101AB8EE411A31EE031A80EE010A50
:1031B000BCEEC00A10EE101A816080BD0024744A73
:1031C00020BCBE4B0024744C0000003900000000FD
:1031D00080B544F2404EC5F6020E5EF8183C5EF82B
:1031E000181C5EF8142CC1F3055CDEF80410BCF169
:1031F000000F15D0C908D20501EAE2716FF35F3103
:1032000000EE101A03F003010229B8EE400A0DD0B7
:1032100081B95EF8401C890610D49FED361A1BE078
:1032200000218160C0E9001180BD00BF9FED301A10
:1032300012E000BF9FED2D1A0EE000BF5EF8401CAB
:1032400049F20002C0F2D032C1F3C10122FA01F109
:1032500001EE101AB8EE411ADEF800109FED263A82
:103260006FF35F2102EE101ADEF80010C1F3462161
:10327000B8EE422A00EE032A00EE10CAB7EE003A7A
:10328000B8EE400A81EE000A32EE031A02EE101A7E
:10329000B8EE422A20EE010A32EE031A80EE011A3D
:1032A000BCEEC11A80ED001ADEF80010C1F3064131
:1032B00001EE101AB8EE411A31EE031A80EE011A2F
:1032C000BCEEC11A80ED011ADEF80010C1F30661F0
:1032D00001EE101AB8EE411A31EE031A80EE010A1F
:1032E000BCEEC00A10EE101A816080BD0024744A42
:1032F00020BCBE4B0024744C0000003900000000CC
:1033000010B584B0024641F6FF7300209B1A70EBA3
:1033100001032DDA47F6FF739B1A70EB010380F26D
:10332000918082F400430B4300F0B88082F4803334
:103330000B4300F0018182F40022114340F04781E9
:1033400044F20040C5F60200816D01F44031B1F550
:10335000003F00F04B81B1F5803F00F0278100294C
:1033600040F03B810068000140F137810BE100BF74
:1033700040F2FF739B1A70EB010331DB82F4807320
:103380000B4300F09F8082F48062114340F01F8164
:1033900044F20041C5F60201886DC0F34252042A8E
:1033A00000F21B8148F20000C0F2BB00DFE812F01F
:1033B000C200E800F2000F01060000BFC86C0A68F6
:1033C000520700F04052086802D5002A00F06881D8
:1033D000C00540F12581B2F1805F00F07A811FE1E4
:1033E00082F400630B4300F0938082F48052114317
:1033F00040F0ED8044F20041C5F60201086DC0F3D3
:103400000232042A00F2E98048F20000C0F2BB0058
:10341000DFE812F09000B600C000DD00060000BF3B
:10342000C86C0A68520700F04052086802D5002AAA
:1034300000F03681C00540F1F380B2F1805F00F00A
:103440004881EDE082F400530B4300F0858082F464
:103450008042114340F0BB8044F20044C5F60204B0
:10346000A06DC0F30270052800F2B780DFE810F00D
:103470000600EA00EC00EE00F400F60000F0CCFFDD
:10348000216A47F6E402C0F60002C1F30211515C62
:1034900001F01F01C84004B010BD00BF44F200405D
:1034A000C5F60200016D01F04051B1F1005F00F07E
:1034B0008780B1F1805F00F08D80002940F08D8021
:1034C00072E000BF44F20041C5F60201086D00F051
:1034D0000702042A00F2818048F20000C0F2BB001B
:1034E000DFE802F0284E5875040000BFC86C0A6877
:1034F000520700F04052086802D5002A00F0D08040
:10350000C00540F18D80B2F1805F00F0E28087E07D
:1035100044F20041C5F60201886DC0F30262042A3C
:103520005BD848F20000C0F2BB00DFE802F00329DC
:1035300033506B0008684EE044F20040C5F60200CC
:10354000C16C0068C90346D5000146D501A8FFF744
:10355000A7FD039804B010BD44F20040C5F6020078
:10356000016DC1F30241052937D8DFE801F003817D
:103570008B95A31D04B0BDE8104000F075BF00BFDF
:103580000868000129D501A8FFF78AFD019804B059
:1035900010BD00BF086880001FD501A8FFF718FE06
:1035A000019804B010BD00BF006858E000688000BA
:1035B00013D501A8FFF70CFE039804B010BD00BF9F
:1035C0000068000109D501A8FFF76AFD029804B060
:1035D00010BD00BF0068800102D4002004B010BDFF
:1035E00001A8FFF7C1FC029804B010BDC16C0268CD
:1035F000520701F04051026866D5002964D1C2F338
:10360000C1004FE0C86C0A68520700F040520868D9
:1036100001D5002A44D0C00502D5B2F1805F58D050
:103620000868B2F1005F00F400314FF0000004BF01
:1036300047F64000C0F27D10002908BF084604B0DC
:1036400010BD00BF206814E020681CE0206840071F
:10365000C3D5206824E000BF20682CE0206847F62E
:1036600040018003C0F27D1101EAE07004B010BD9A
:1036700000680001B1D501A8FFF712FD029804B05F
:1036800010BD00BF00688000A7D501A8FFF7A0FD0E
:10369000029804B010BD00BF016849079DD50068BD
:1036A000C0F3C10049F20001C0F2D03121FA00F0AC
:1036B00004B010BD006840F60011C005C0F23D0125
:1036C00001EAE07004B010BDD20509D5B1F1805F08
:1036D00006D140F60010C0F23D0004B010BD00BF9E
:1036E0000068B1F1005F00F400324FF0000004BF49
:1036F00047F64000C0F27D10002A08BF104604B013
:1037000010BD0000000000002DE9F0470446C0781D
:1037100044F22C480007C5F6020833D5606E4FEA24
:10372000305103290CD8DFE801F003111D2600BF3A
:10373000D8F8001041F40031C8F800101BE000BFB9
:1037400001266078C0070BD020E000BF04F108001C
:10375000022102F0E1FC064660B16078C00715D195
:10376000354646E004F12800022102F069FD0646D4
:103770000028F2D1606ED8F8241021F440110843DB
:10378000C8F8240000266078C007E9D0A06D04289E
:103790000ED83546DFE800F00412181E1E0000BFE8
:1037A000D8F80000354640F40030C8F8000011E0B9
:1037B00001250127607840071FD453E004F1080079
:1037C000002102F0A9FC04E004F12800002102F02D
:1037D00037FD05462F461DB1607840070DD441E006
:1037E000D8F82400A16D20F0070000250843C8F890
:1037F000240037466078400734D5D4F8A4004FEA57
:10380000705005280CD8DFE800F00311171D1D1DAE
:10381000D8F8000040F40030C8F8000012E000BF03
:10382000012501266078000720D455E004F1080046
:10383000002102F071FC04E004F12800002102F0F4
:10384000FFFC05462E461DB1607800070ED443E00C
:10385000D8F82C00D4F8A41020F460000025084308
:10386000C8F82C003E466078000735D5D4F8A8008B
:103870004FEA306005280DD8DFE800F00412181E6A
:103880001E1E00BFD8F8000040F40030C8F8000049
:1038900012E000BF01250127E078800720D44EE028
:1038A00004F10800002102F037FC04E004F12800D4
:1038B000002102F0C5FC05462F461DB1E0788007C7
:1038C0000ED43CE0D8F82C00D4F8A81020F0E0602A
:1038D00000250843C8F82C003746E07880072ED52D
:1038E000E06C4FEA301003280ED8DFE800F009033F
:1038F000130900BFD8F8000040F40030C8F80000F9
:103900002E467DB912E000BF012501266078C00671
:1039100019D44CE004F10800022102F0FDFB054639
:103920002E461DB16078C0060DD440E0D8F82000C6
:10393000E16C20F0300000250843C8F820003E4626
:103940006078C00633D5E06D4FEA303004280DD8DA
:10395000DFE800F00412181E1E0000BFD8F80000B7
:1039600040F40030C8F8000012E000BF0125012734
:10397000607880061FD44EE004F10800002102F0B8
:10398000CBFB04E004F12800002102F059FC0546BD
:103990002F461DB1607880060DD43CE0D8F8240095
:1039A000E16D20F4E04000250843C8F824003746C4
:1039B000607880062FD5206E4FEA3040052809D860
:1039C000DFE800F0040E1404040400BF2E46ADB975
:1039D00018E000BF01250126607840061FD44FE0A3
:1039E00004F10800012102F097FB04E004F1280033
:1039F000012102F025FC05462E461DB160784006E7
:103A00000DD43DE0D8F82400216E20F4E0200025FC
:103A10000843C8F824003E466078400630D5D4F804
:103A2000AC004FEA3070052808D8DFE800F0030D3D
:103A3000130303032F46ADB918E000BF012501278A
:103A40006078000620D442E004F10800012102F071
:103A500063FB04E004F12800012102F0F1FB0546BC
:103A60002F461DB1607800060ED430E0D8F82C0047
:103A7000D4F8AC1020F0E04000250843C8F82C0032
:103A800037466078000622D5E06E58B1B0F1005F8D
:103A90000CD0B0F1805F2FD1D8F8000040F4003096
:103AA000C8F800002E469DB908E000BF04F10800E8
:103AB000012102F031FB05462E464DB9D8F824000D
:103AC000E16E20F0405000250843C8F824003E462F
:103AD000E078C00733D0A06C032813D8DFE800F0EB
:103AE00008021A08D8F8000040F40030C8F80000B6
:103AF000A946BDB91AE000BF01250126E078C0073C
:103B0000E9D11CE001254FF00109A07840061AD543
:103B10001CE000BF04F10800022102F0FDFA054696
:103B2000A9461DB1A07840060DD50FE0D8F82000B9
:103B3000A16C20F0030000250843C8F82000B1461E
:103B4000A078400602D44F4618E000BFD8F8D4034E
:103B500040F48070C8F8D403FFF7AAF8064600BF07
:103B6000D8F8D403C00507D4FFF7A2F8801B642857
:103B7000F6D90325032701E02F468DB12078C00731
:103B800061D0A06F4FEAF00005283BD8DFE800F0D5
:103B900004404604040400BF002D2E4646D149E0EF
:103BA000D8F84410D4F8B000414011F4407F11D04F
:103BB000D8F84410D8F8442042F48032C8F84420A1
:103BC000D8F8442021F4407122F48032C8F844200F
:103BD000C8F84410B0F5807F40F0CE82FFF768F857
:103BE000064641F2883A0325032700BFD8F844006F
:103BF000800700F1BF82FFF75BF8801B5045F5D9C5
:103C0000BCE700BF01250126207880071FD44CE0C7
:103C100004F10800012102F07FFA04E004F1280019
:103C2000012102F00DFB05462E461DB120788007CC
:103C30000DD43AE0D8F82800A16F20F03800002514
:103C40000843C8F828003E46207880072DD5606FCD
:103C5000052809D8DFE800F0040E1404040400BFAE
:103C60002F46ADB918E000BF012501272078400795
:103C70001FD44DE004F10800012102F04DFA04E0E8
:103C800004F12800012102F0DBFA05462F461DB1A0
:103C9000207840070DD43BE0D8F82800616F20F071
:103CA000070000250843C8F8280037462078400759
:103CB0002ED5D4F89000052808D8DFE800F0030DD1
:103CC000130303032E46ADB918E000BF01260125FA
:103CD0002078800620D451E004F10800012102F090
:103CE0001BFA04E004F12800012102F0A9FA0546BC
:103CF0002E461DB1207880060ED43FE0D8F82C0067
:103D0000D4F8901020F0070000250843C8F82C00D4
:103D10003E462078800631D5D4F88C004FEA3070CA
:103D2000052809D8DFE800F0040E1404040400BFDD
:103D30002F46ADB918E000BF0127012520784006C5
:103D400020D451E004F10800002102F0E5F904E07C
:103D500004F12800022102F073FA05462F461DB136
:103D6000207840060ED43FE0D8F82800D4F88C1014
:103D700020F0E04000250843C8F8280037462078A6
:103D8000400631D5D4F898004FEAB020052809D86C
:103D9000DFE800F0040E1404040400BF2E46ADB9A1
:103DA00018E000BF012601252078000620D454E049
:103DB00004F10800002102F0AFF904E004F128004A
:103DC000022102F03DFA05462E461DB1207800067C
:103DD0000ED442E0D8F82C00D4F8981020F4E0502B
:103DE00000250843C8F82C003E462078000634D54C
:103DF000D4F89C004FEA703005280FD8DFE800F0B7
:103E000004141A04040400BF2F46E5B1206801071A
:103E100027D4C1063ED4000355D475E001270125FF
:103E200020680107F5D51CE004F10800002102F02C
:103E300073F904E004F12800022102F001FA0546BA
:103E4000002D2F46E2D1D8F82C00D4F89C1020F495
:103E5000604000250843C8F82C0037462068010759
:103E6000D7D5D4F88000B0F5805F09D104F12800DF
:103E7000022102F0E5F9002818BF0127D4F88000DC
:103E8000D8F8281021F440510843C8F828002068C9
:103E9000C106C0D5D4F89400B0F5807F09D104F1F3
:103EA0002800022102F0CCF9002818BF0127D4F81D
:103EB0009400D8F82C1021F440710843C8F82C0065
:103EC0002068000320D5D4F8A000B0F5003F0FD043
:103ED000B0F5803F06D078BB04F10800002102F065
:103EE0001BF904E004F12800022102F0A9F90546BB
:103EF0002E4655B9D8F82C00D4F8A01020F4403044
:103F000000250843C8F82C003E46A07840072BD572
:103F1000D4F88400B0F5401F0BD0B0F5001F11D0CD
:103F2000B0F5801F2AD1D8F8000040F40030C8F85E
:103F300000002F46CDB90DE001260125A0784007ED
:103F4000E6D411E004F12800012102F079F90546D8
:103F50002F4655B9D8F82800D4F8841020F4401022
:103F600000250843C8F828003746A078C0070AD1C2
:103F70003E462168880016D533E000BF01270125A1
:103F8000A078C007F4D0206DB0F5803F10D018BBEA
:103F9000D8F8000040F40030C8F800002E4685B183
:103FA000216888001DD460688A0326D465E000BFBC
:103FB00004F10800022102F0AFF80546002D2E465C
:103FC000EED1D8F82000216D20F480300025084380
:103FD000C8F82000CCE700BF012601252168880031
:103FE000E1D504F12800022102F02AF9002818BFC7
:103FF0000126D4E900108A033FD5E26F6FF0010378
:1040000003EB3223022B0BD34FEA322343B1012BB4
:1040100040F0AA80D8F8003043F40033C8F80030EC
:1040200025B3CA022CD48A0234D44A003CD4CA0F25
:1040300049D1090251D4C1075AD1810763D441073C
:104040006CD4010776D4C10600F18080800607D5C4
:1040500004F12800022102F0F3F8002818BF01251E
:10406000002D18BF01252846BDE8F087D8F8283074
:1040700023F440731A43C8F828203546CA02D2D523
:10408000D8F82420236F22F000421A43C8F82420D5
:104090008A02CAD5D8F82420A36E22F080721A436F
:1040A000C8F824204A00C2D558F81C2C22F400423B
:1040B00048F81C2CD4F8B42058F81C3C1A4348F893
:1040C0001C2CCA0FB5D0D8F82020636D22F04052C6
:1040D0001A43C8F820200902ADD5D8F82810D4F822
:1040E000882021F440011143C8F82810C107A4D04A
:1040F00004F10800002102F00FF8002818BF05465F
:10410000606881079BD504F10800012102F004F8E2
:10411000002818BF05466068410792D504F10800E1
:10412000022101F0F9FF002818BF05466068010769
:104130007FF589AF04F12800002102F081F8002802
:1041400018BF05466068C1067FF580AF04F12800FE
:10415000012102F075F8002818BF05466068800646
:104160007FF57EAF74E700BF0125CA027FF55BAF24
:1041700086E700BFD4F8B0004FF6CF7358F81C2C78
:10418000C0F2FF0300F4407122F47C5203EA1013E2
:104190006FF31F30B1F5407F08BF1A43002548F880
:1041A0001C2CD8F844100843C8F84400FFF7CBBCD7
:1041B0002DE9F04381B0002800F02A8142F2000886
:1041C0000446C5F200288946D8F8000000F00F0028
:1041D00088420ED2D8F8000020F00F0040EA090013
:1041E000C8F80000D8F8000000F00F00484540F083
:1041F0000F81206844F218474107C5F602070AD527
:1042000021693A6802F07002914204D93A6822F0BA
:1042100070021143396001070AD561697A6802F0BA
:104220007002914204D97A6822F0700211437960D9
:10423000C1060AD5A1697A6802F4E062914204D904
:104240007A6822F4E0621143796081060AD5E16957
:10425000BA6802F07002914204D9BA6822F0700282
:104260001143B96010F002010AD0E2683B6803F024
:104270000F039A4204D93B6823F00F031A433A60B4
:10428000C20746D0386820F47061D4E901020128E1
:1042900041EA0201396009D003280DD0022811D16A
:1042A00057F8181C890340F1B38010E057F8181C28
:1042B000C90540F1AD800AE057F8181C890140F1AA
:1042C000A78004E057F8181C490740F1A18057F86F
:1042D000081C21F00701084347F8080CFEF7E8FC2A
:1042E000064641F2883500BF57F8080C616800F0B7
:1042F0003800B0EBC10F09D0FEF7DAFC801BA842F2
:10430000F2D9032001B0BDE8F08300BF206800F0BF
:10431000020151B1E1683A6802F00F02914204D201
:104320003A6822F00F0211433960D8F8001001F00A
:104330000F0149450DD9D8F8001021F00F0141EACD
:104340000901C8F80010D8F8001001F00F01494524
:104350005ED141070AD521693A6802F070029142A4
:1043600004D23A6822F070021143396001070AD57D
:1043700061697A6802F07002914204D27A6822F090
:10438000700211437960C1060AD5A1697A6802F406
:10439000E062914204D27A6822F4E06211437960CB
:1043A00080060AD5E069B96801F07001884204D23C
:1043B000B96821F070010843B86000F085F83968E9
:1043C00047F6E4033A68C0F60003C1F3032102F0A4
:1043D0000F02595C9A5C01F01F0120FA01F102F012
:1043E0001F0040F2140221FA00F0C2F20002106035
:1043F00040F20C0040F21002C2F20000C2F20002D1
:104400000068116001B0BDE8F043FEF79DBC00BF3D
:10441000012001B0BDE8F08380B500F055F844F20A
:10442000184147F6E403C5F60201C0F600030A6826
:10443000096801F00F01C2F30322595C9A5C02F093
:104440001F0220FA02F201F01F0040F2140122FACA
:1044500000F0C2F20001086040F21001C2F2000157
:104460000A6080BD0000000080B500F02DF844F225
:10447000184C47F6E401C5F6020CC0F60001DCF862
:104480000020DCF8003003F00F03C2F30322CB5C02
:104490008A5C02F01F02D04003F01F0240F21403B6
:1044A00020FA02F2C2F200031A6040F21003C2F2D4
:1044B00000031860DCF80400C0F30210085C00F090
:1044C0001F0022FA00F080BD44F20041C5F602014F
:1044D0000869C0F3C200032810D002282ED098BB70
:1044E0000868800649F20000C0F2D03058BF70471B
:1044F0000968C1F3C101C840704700BF8A6A886A71
:10450000C0F3051CC86ABCF1000F4B6B22D000F051
:10451000010002F003024042022A00EAD3006FF3D6
:104520005F3000EE100AB8EE400A15D0C2B9086834
:10453000800619D49FED281A23E000BF47F64000FB
:10454000C0F27D10704700BF40F60010C0F23D0081
:10455000704700BF002070479FED1E1A11E000BF9A
:104560009FED1B1A0DE000BF086849F20002C0F27F
:10457000D032C0F3C10022FA00F001EE100AB8EE0A
:10458000411A086B9FED153A6FF35F2002EE100A97
:10459000086BC0F34620B8EE422A013000EE032A31
:1045A00000EE10CAB7EE003AB8EE400A81EE000AFB
:1045B00032EE031A20EE010A01EE100AB8EE411A9B
:1045C00080EE010ABCEEC00A10EE100A704700BF70
:1045D0000024744A20BCBE4B0024744C00000039F7
:1045E000F0B581B0002800F0D5800446007844F290
:1045F0000046C007C5F6020622D12078800768D59C
:10460000306910F03801B06A42D0182908BF5FEA5B
:1046100080703DD0E0683168002800F0258121F0ED
:10462000190108433060FEF743FB05463068400738
:1046300048D4FEF73DFB401B0228F7D977E100BFC5
:10464000306900F03801B06A102905D018290BD163
:1046500000F00300022807D130688003CDD56068E0
:104660000028CAD196E000BF6068002800F03281BF
:10467000B0F5A02F00F04681B0F5803F00F04681F4
:10468000306820F480303060306820F4802040E1D1
:1046900030684007E06801D500287BD0316821F000
:1046A000190108433060FEF703FB054630684007F8
:1046B00008D4FEF7FDFA401B02284FF00300F5D99D
:1046C00001B0F0BD7068216920F0FE4040EA016051
:1046D00070602078C00619D5306900F03801B06AE2
:1046E000082906D0182940F0818000F00300012835
:1046F0007CD13068C00502D5E06980284AD1F068D5
:10470000216A20F07C5040EA0160F06020780007C8
:1047100044D42078800655D42078400700F17E806C
:10472000656A9DB3306900F03800182840F01481A4
:10473000012DB16A306B2DD001F00302A36A9A42B9
:1047400028D1C1F30511E26A914223D10146226BBF
:104750006FF35F21013A91421CD1C0F34622616B95
:1047600001398A4216D1C0F30642A16B01398A424F
:1047700010D1C0F30660E16B013988420AD1706B39
:10478000A16CC0F3CC00814240F09C81002001B0BC
:10479000F0BD00BF012001B0F0BD00BF606900287E
:1047A000706F4FD040F001007067FEF781FA054648
:1047B000706F8007ADD4FEF77BFA401B0228F7D953
:1047C000B5E000BFA0690028306871D040F4805087
:1047D0003060FEF76DFA0546306880049CD4FEF721
:1047E00067FA401B0228F7D9A1E000BFE069002862
:1047F000306800F09F8040F080003060FEF758FA8B
:10480000054600BF3068C0053FF579AFFEF750FAA6
:10481000401B02284FF00300F4D951E7D6F80004FA
:1048200040F48070C6F80004FEF742FA054600BF67
:10483000D6F80004C00529D4FEF73AFA401B6428D4
:10484000F6D974E020F001007067FEF731FA0546F2
:10485000706F80077FF55DAFFEF72AFA401B0228D4
:104860004FF00300F4D92BE721F001003060FEF790
:104870001FFA0546306840077FF52BAFFEF718FAA0
:10488000401B02284FF00300F4D919E7A068002864
:1048900000F08480052800F09B80012800F09C80B7
:1048A000306F20F001003067306F20F0040096E098
:1048B00020F480503060FEF7FBF905463068800434
:1048C0007FF52AAFFEF7F4F9401B02284FF00300F2
:1048D000F4D9F5E6306820F480303060306820F498
:1048E00080203060FEF7E4F9054600BF30688003A1
:1048F0007FF583AEFEF7DCF9401B64284FF0030020
:10490000F4D9DDE6306840F480203060306840F44F
:1049100080303060FEF7CCF9054600BF3068800378
:104920003FF56BAEFEF7C4F9401B6428F6D90320AF
:1049300001B0F0BD20F080003060FEF7B9F9054607
:104940003068C0057FF5E2AEFEF7B2F9401B0228E1
:104950004FF00300F4D9B3E6306820F08070306087
:10496000FEF7A6F9022D05460CD100BF3068800184
:1049700048D5FEF79DF9401B02284FF00300F5D9FA
:104980009EE600BF306880017FF500AFFEF790F92A
:10499000401B02284FF00300F4D991E6306F20F05D
:1049A00001003067306F20F004003067FEF780F9B7
:1049B000054641F28837306F80077FF5B1AEFEF7CC
:1049C00077F9401BB8424FF00300F4D978E600BFF6
:1049D000306F40F004003067306F40F00100306706
:1049E000FEF766F9054641F2883700BF306F800751
:1049F0003FF596AEFEF75CF9401BB8424FF003005E
:104A0000F4D95DE604F12807B06A40F2F331884337
:104A10008ECF0843591E40EA02104FF47E426FF3D6
:104A20005F21B06202EB47204FF4FE0280B2E36BDD
:104A30000844A16B02EB01414FF0FE4201F4FE017C
:104A400002EB0362084402F0FE4108443063F06A5E
:104A50004FF6F87120F00100F062706BA26C884391
:104A600040EAC2007063F06A216C20F00C00084339
:104A7000F062F06A616C20F002000843F062F06AB4
:104A800040F48030F062F06A40F40030F062F06A86
:104A900040F48020F062F06A40F00100F06230687B
:104AA00040F080703060FEF703F904463068800102
:104AB0003FF56CAEFEF7FCF8001B02284FF0030038
:104AC000F4D9FDE5F06A20F00100F062FEF7F0F89D
:104AD0000546FEF7EDF8A842FBD0706B4FF6F87173
:104AE000A26C884340EAC2007063F06A40F00100A3
:104AF000F062002001B0F0BD411E0020B0EB116F4C
:104B000002D00120704700BF4EF21002F023CEF217
:104B1000000251604EF62351CEF200010B700721C6
:104B200090601160704700007047000000000000B6
:104B30007047000000000000704700000000000007
:104B4000B0B590F83C20012A02D10220B0BD00BFD0
:104B5000D1E9022323F47C5322F4705242EA030584
:104B600048F2FF73D1E900CECEF6F0730EEA0302ED
:104B700003F5006445EA020E0CEA04050C6903F52E
:104B8000C05245EA0E0522402A434D692A4303F5E7
:104B900060550C6B03F5F0432A4023401343026831
:104BA00040F2004C42F48065C4F2010C8C6965450A
:104BB00040F2000CCEF6FF7CCD690CEA044443EAD7
:104BC000050343EA040318D14FF6FF7540F2000CC9
:104BD000CDF60F458C6ACDF6F04C03EA050E0D6A52
:104BE0000CEA04544B6A44EA0E0425F0085523F0FD
:104BF00000532543C96A2B430B430021536480F8BB
:104C00003C100846B0BD000070B588B0002861D0E7
:104C1000044690F83D000D4628B9002084F83C0079
:104C2000204600F05DF8022084F83D002068211D38
:104C300001F06AFE20682968AB68032201F088FF52
:104C400020680026816921F00C0181616968826910
:104C50001143816141684FF68F7241F080014160DC
:104C60008168CFF6CF721140816081684FF6F8728B
:104C700041F0400181608168CFF6FE721140816091
:104C8000816841F00401816070210191E96802911D
:104C900001A90796CDE90566CDE9036601F000FF9D
:104CA0002068416821F070014160416841F0500185
:104CB0004160012084F8480084F83E0084F83F00F9
:104CC00084F8440084F8450084F83D00304608B07C
:104CD00070BD00BF0126304608B070BD0000000066
:104CE000704700000000000010B5044690F83E0038
:104CF00094F83F30012894F844204FF0010094F8D4
:104D0000451008BF012B01D010BD00BF012A08BF0C
:104D10000129F9D1022084F83E0084F83F000021E7
:104D200084F84400012284F84500206801F0A8FEC0
:104D30004DF6FF702168C4F20000814214DC40F29D
:104D4000FF70C4F20000814224DD40F60000C4F28E
:104D50000000814230D040F60040C4F200008142A1
:104D60002AD041F6000023E04FF6FF70C4F20000A5
:104D7000814215DD0020C4F2010081421CD044F2C2
:104D80000000C4F20100814216D040F20040C4F29B
:104D900001000FE0B1F1804F0ED040F2004007E07B
:104DA0004EF20000C4F20000814205D04EF20040F5
:104DB000C4F2000081420AD107228868C0F20102D1
:104DC00002400020062A18BFB2F5803F9CD0086838
:104DD00040F001000860002010BD0000000000004D
:104DE000B0B590F83C20012A4FF0020263D080F861
:104DF0003D2040F2004C0268C4F2010C42F4806392
:104E000063455368D2F808E002BF23F470034C688E
:104E100023434DF6FF740D68C4F2000423F07003C1
:104E2000A24243EA0503536014DC40F2FF73C4F26C
:104E300000039A4222DD40F60003C4F200039A42C6
:104E40002ED040F60043C4F200039A4228D041F627
:104E5000000321E04FF6FF73C4F200039A4213DD12
:104E60000023C4F201039A421AD044F20003C4F2B0
:104E700001039A4214D0624512D016E0B2F1804F7D
:104E80000ED040F2004307E04EF20003C4F20003EC
:104E90009A4205D04EF20043C4F200039A4204D174
:104EA0002EF080038968194391600022012180F867
:104EB0003D1080F83C201046B0BD0000000000000E
:104EC00051B1082910D0042916D100F145021278F9
:104ED000012A0ED115E000BF90F84420012A08D124
:104EE000022280F844201BE000F146021278012AD9
:104EF00007D00120704700BF00F147021278012A55
:104F0000F7D10222082905D0042907D180F84520CD
:104F100006E000BF80F8462002E000BF80F847208E
:104F2000026801F00F00042101FA00F0116A8143C8
:104F30001162116A084310624DF6FF70516CC4F2A1
:104F40000000824241F40040506419DC40F2FF70DE
:104F5000C4F2000082422BDD40F60000C4F20000E3
:104F600082423BD040F60040C4F20000824235D07D
:104F700041F60000C4F2000082422FD03AE000BFA8
:104F80004FF6FF70C4F2000082421BDD0020C4F225
:104F90000100824222D044F20000C4F201008242A9
:104FA0001CD040F20040C4F20100824216D021E041
:104FB000B2F1804F12D040F20040C4F200008242B1
:104FC0000CD017E04EF20000C4F20000824205D07F
:104FD0004EF20040C4F2000082420BD107219068DB
:104FE000C0F2010101400020062918BFB1F5803F41
:104FF00000D17047106840F0010010600020704739
:1050000060B310B5044690F83D0028B9002084F83C
:105010003C00204600F024F8022084F83D0020687F
:10502000211D01F071FC012084F8480084F83E0045
:1050300084F83F0084F8400084F8410084F842007E
:1050400084F8430084F8440084F8450084F846005E
:1050500084F8470084F83D00002010BD012070470F
:1050600080B586B040F6FF310068C4F20001884286
:1050700024DC40F20041C4F20001884242D040F6F4
:105080000001C4F20001884240F0838044F2E8400D
:105090000022C5F60200016841F0040101600068C9
:1050A000002100F00400019001981E20FDF7F4FE9D
:1050B0001E2006B0BDE88040FDF7DABE40F6004194
:1050C000C4F20001884235D00021C4F201018842B7
:1050D0005FD144F2E8400022C5F60200816841F049
:1050E000010181608068002100F0010001900198B9
:1050F0001920FDF7D1FE192006B0BDE88040FDF76C
:10510000B7BE00BF44F2E8400022C5F602000168C5
:1051100041F0020101600068002100F002000190EE
:1051200001981D20FDF7B8FE1D2006B0BDE88040A7
:10513000FDF79EBE44F2E840C5F60200016841F06A
:1051400008010160016801F008010191019950F81E
:10515000081C41F0010140F8081C50F8080C00211F
:1051600000F00100019001980720019002200290B8
:1051700005900020CDE90311C5F6020001A9FDF755
:10518000A7FC322000210022FDF786FE3220FDF729
:105190006FFE06B080BD000090F83D10012927D1B8
:1051A000022180F83D1001684DF6FF70C4F2000046
:1051B0008142C86840F00100C8601BDC40F2FF700B
:1051C000C4F2000081422DDD40F60000C4F2000070
:1051D00081423DD040F60040C4F20000814237D009
:1051E00041F60000C4F20000814231D03CE000BF33
:1051F000012070474FF6FF70C4F2000081421BDDB2
:105200000020C4F20100814222D044F20000C4F226
:10521000010081421CD040F20040C4F201008142F2
:1052200016D021E0B1F1804F12D040F20040C4F21C
:10523000000081420CD017E04EF20000C4F20000E2
:10524000814205D04EF20040C4F2000081420BD1F1
:1052500007228868C0F2010202400020062A18BF17
:10526000B2F5803F00D17047086840F00100086047
:10527000002070470000000010B590F83C20012A83
:105280004FF0020200F0B78080F83D208822D0F86D
:1052900000E0CFF6CE72DEF808301A40CEF80820D3
:1052A0000B686F2B0EDDB3F1101F39DAB3F5005F19
:1052B00048DA702B00F0A280B3F5805F00F0948094
:1052C000E4E000BF2F2B35DD4F2B41DC302B00F00D
:1052D0007F80402B40F0DA8043F6FF72D1F804C0A3
:1052E000C4F20102C968DEF820309645DEF82020BD
:1052F00022F00102CEF8202040F3CA8044F20002DE
:10530000C4F20102964500F0CE8044F60002C4F2D9
:105310000102964500F0C78044F20042BFE000BFA2
:105320002F21C0F210018B4248DCB3F1101F4FD087
:10533000202149E0002B18BF102B49D0202B47D04B
:10534000A4E000BF6ED0B3F5801F41D09EE000BF47
:10535000502B7BD0602B40F0998040F200444EF4FB
:105360008062C4F20104D1F804C0C968DEF82030BC
:10537000A242DEF8202022F01002CEF8202002BF48
:10538000DEF8202022F04002CEF82020DEF818209F
:1053900022F4704242EA013123F0A002CEF8181044
:1053A00042EA0C11CEF820104FF68872DEF8081091
:1053B000CFF6CF721140673114E000BF3021C0F248
:1053C00010018B4204D04021C0F210018B425DD10C
:1053D0004FF68872DEF80810CFF6CF7211401943ED
:1053E00041F00701CEF808100022012180F83D109D
:1053F000002180F83C10104610BD00BFD1E901C368
:10540000C968DEF8082043EA0C0322F47F4243EA2D
:1054100001211143CEF80810DEF8081041F07701A1
:10542000E0E700BFD1E901C3C968DEF8082043EA1C
:105430000C0322F47F4243EA01211143CEF8081005
:10544000DEF8081041F48041CCE700BF43F6FF725C
:10545000D1F804C0C4F20102C968DEF820309645D4
:10546000DEF8202022F00102CEF8202038DD44F2C0
:105470000002C4F2010296453DD044F60002C4F297
:105480000102964537D044F2004230E00122ACE7F9
:105490000022C4F20102964505D040F20042C4F257
:1054A0000102964505D1DEF8202022F00402CEF854
:1054B0002020DEF8182022F0F00242EA011123F049
:1054C0000A02CEF8181042EA0C01CEF820104FF66E
:1054D0008872DEF80810CFF6CF721140473181E7AD
:1054E0000022C4F20102964505D040F20042C4F207
:1054F0000102964505D1DEF8202022F00402CEF804
:105500002020DEF8182022F0F00242EA011123F0F8
:105510000A02CEF8181042EA0C01CEF820104FF61D
:105520008872DEF80810CFF6CF721140573159E774
:10553000002857D02DE9F04381B0044690F83D0093
:105540000D4628B9002084F83C00204600F04CF8B5
:10555000022084F83D0020684BF6F872CFF6FE7208
:10556000816811408160211D01F0CEF920684FF65D
:10557000FF79D0F808808269D0F820C0AF69D5E9FA
:10558000026122EA090246EA07264FF6FC47BE43BB
:10559000EF6911432A6931432E6A41EA07216F6995
:1055A000D5E9003E41EA02112CF0AA0242EA0E02BD
:1055B00043EA080341EA06318360816142EA071148
:1055C0000162012084F8480084F83E0084F83F001E
:1055D00084F8440084F8450084F83D00002001B0C0
:1055E000BDE8F083012070472DE9F04186B00068E6
:1055F000B0F1804F02D006B0BDE8F08144F2E04047
:105600000024C5F60200C5F6020401AD4FF0020801
:105610008168002741F0010181608168012601F065
:10562000010101910199016841F0010101600168E6
:1056300001F0010101910199016841F0020101604D
:105640000068294600F00200019001982020019096
:105650002046CDF80880CDE903770596FDF738FAA6
:1056600008202946CDE9010804F580600596CDE9BA
:105670000377FDF72DFA06B0BDE8F08100000000C9
:1056800080B590F83E20042990F83F3090F844E02F
:1056900090F845C00AD0B9B9012A4FF0010208BFFD
:1056A000BEF1010F34D0104680BD00BF0122012B96
:1056B00008BFBCF1010FF6D1022180F83F1080F83D
:1056C0004510006820E000BF012A4FF0010208BF2A
:1056D000012BE8D1BEF1010F08BFBCF1010FE2D1EF
:1056E0004FF0020280F83E2080F83F2080F84420EE
:1056F00080F8452089B10068016A21F0010101624A
:10570000016A41F00101016210216FF0100208E00E
:10571000022180F83E1080F84410006801216FF0EB
:105720000102036A1A400262026A114301620168BF
:10573000002241F001010160104680BD0000000020
:105740007047000000000000F0B581B0044600681A
:10575000C5680669B10717D515F0020114D06FF0BE
:1057600002010161012121778069800704D0204670
:10577000FFF7E6FF06E000BF204600F0C9F820462C
:1057800000F066FB00202077700719D515F00400A3
:1057900016D020686FF00401016102212177806931
:1057A00010F4407F04D02046FFF7CAFF06E000BF98
:1057B000204600F0ADF8204600F04AFB002020779C
:1057C000300717D515F0080014D020686FF00801D5
:1057D000016104212177C069800703D02046FFF7CB
:1057E000AFFF05E0204600F093F8204600F030FBC4
:1057F00000202077F00619D515F0100016D020688B
:105800006FF01001016108212177C06910F4407F19
:1058100004D02046FFF794FF06E000BF204600F0CA
:1058200077F8204600F014FB00202077F00718BF1F
:1058300015F0010006D020686FF0010101612046DB
:1058400000F0DAFB05F0800716F4025F18BF002FA6
:1058500002D1F00509D410E020686FF40251016113
:105860002046FFF765F9F00507D537B120686FF4DA
:10587000807101612046FFF757F9700609D515F0D0
:10588000400006D020686FF040010161204600F022
:105890000BFCB0060CD515F0200009D020686FF085
:1058A00020010161204601B0BDE8F040FFF744B996
:1058B00001B0F0BD0000000080B586B00021006896
:1058C000C4F20101884201D006B080BD44F2E0403C
:1058D000C5F60200016841F010010160006801A9ED
:1058E00000F01000019001984FF47C5001900220CC
:1058F00002900020CDE903000120059041F2000054
:10590000C5F60200FDF7E4F806B080BD0000000017
:1059100070470000000000002DE9F04190F83C3095
:10592000012B03D10220BDE8F08100BF4FEAB20293
:10593000052A31D8DFE812F0060038007800B800F8
:10594000DE000401036843F6FF76C4F201061C6A18
:10595000B3421A6A24F0020422F001021A621A46C3
:10596000D3F804E052F818CF8D6844EA0504D1F862
:10597000008040F30B8144F20007C4F20107BB42F0
:1059800000F00F8144F60007C4F20107BB4200F0AB
:10599000088144F2004700E10121002280F83C2008
:1059A0000846BDE8F08100BF036840F2004843F4B8
:1059B0008066C4F201081F6A46451A6A27F020076C
:1059C00022F010021A621A465D6852F818CF8C68ED
:1059D000D1F800E047EA041408D11E6A24F08004DC
:1059E00026F040061E62CE6844EA061443F6FF76AF
:1059F000C4F20106B34240F3F18044F20006C4F25F
:105A00000106B34200F0F18044F60006C4F201063C
:105A1000B34200F0EA8044F20046C4F20106B34209
:105A200000F0E380E8E000BF036840F2004843F480
:105A30008066C4F201081F6A46451A6A27F4007797
:105A400022F480721A621A465D6852F81CCF8C6884
:105A5000D1F800E047EA042408D11E6A24F4006467
:105A600026F480661E62CE6844EA062443F6FF767A
:105A7000C4F20106B34240F3D78044F20006C4F2F8
:105A80000106B34200F0D78044F60006C4F20106D6
:105A9000B34200F0D08044F20046C4F20106B342A3
:105AA00000F0C980CEE000BF036843F6FF77C4F280
:105AB0000107D3F820C0BB421A6A22F480521A624E
:105AC0001A465C6852F81C6F0D68D1F808E040F384
:105AD000D18044F20007C4F20107BB4200F0D58038
