:020000040800F2
:1000000000040020E1020008594E000839480008A9
:10001000514E0008D9070008B9540008000000003C
:10002000000000000000000000000000814E0008F9
:10003000E107000800000000614E0008594F000869
:10004000FF020008FF020008FF020008FF0200088C
:10005000FF020008694E0008FF020008FF020008C6
:10006000FF020008FF020008FF020008FF0200086C
:10007000FF020008FF020008FF020008FF0200085C
:10008000FF020008FF020008B9070008FF0200088D
:10009000FF020008FF020008FF020008FF0200083C
:1000A000FF020008FF020008FF020008FF0200082C
:1000B000015100081151000821510008FF020008F9
:1000C000FF020008FF020008FF020008FF0200080C
:1000D000FF020008FF020008FF020008FF020008FC
:1000E000FF020008FF02000800000000FF020008F5
:1000F000FF020008FF020008FF020008FF020008DC
:10010000FF020008FF02000831510008FF0200084A
:10011000FF020008FF020008FF020008FF020008BB
:10012000FF020008FF020008FF020008FF020008AB
:10013000FF020008FF020008FF020008FF0200089B
:1001400000000000000000000000000000000000AF
:10015000FF020008FF020008FF020008FF0200087B
:10016000FF020008FF020008FF020008FF0200086B
:10017000FF020008FF020008FF0200080000000064
:10018000FF020008FF020008FF020008FF0200084B
:10019000FF020008FF020008FF020008FF0200083B
:1001A000FF020008FF020008FF0200080000000034
:1001B000FF020008FF020008FF020008FF0200081B
:1001C000FF020008FF02000800000000000000001D
:1001D0000000000000000000FF0200080000000016
:1001E000000000000000000000000000000000000F
:1001F0000000000000000000FF020008FF020008ED
:10020000FF020008FF02000800000000FF020008D3
:10021000FF020008FF020008FF020008FF020008BA
:10022000FF02000800000000FF02000800000000BC
:10023000FF020008FF02000800000000FF020008A3
:10024000FF020008FF020008FF020008FF0200088A
:10025000FF020008FF020008FF020008FF0200087A
:10026000FF020008FF020008FF020008FF0200086A
:10027000FF020008FF020008FF0200080000000063
:10028000FF020008FF020008FF020008FF0200084A
:1002900000000000FF020008FF020008000000004C
:1002A00000000000FF020008FF020008FF02000833
:1002B000FF020008FF020008FF020008FF0200081A
:1002C000FF020008FF020008FF020008DFF80CD060
:1002D00000F026F900480047C1540008000400203F
:1002E000074880470748804707480047FEE7FEE782
:1002F000FEE7FEE7FEE7FEE7FEE7FEE7FEE7FEE7D6
:100300000909000829500008CD0200082DE9F05F16
:100310000546002092469B46884606468146402474
:100320001BE0284641464746224600F088F85346DF
:100330005A46C01A914110D311461846224600F081
:100340006FF82D1A67EB01084F4622460120002165
:1003500000F066F817EB00094E41201EA4F10104DD
:10036000DFDC484631462A464346BDE8F09F2DE98A
:10037000F0410024061B254671F1000605DA012430
:100380000027D0EB070067EB0101161E73F1000692
:1003900005DA0027D2EB0702012567EB0303FFF71D
:1003A000B5FF86460E4617469C46AC4204D0002553
:1003B000D0EB050E65EB010624B10020D2EB00075F
:1003C00060EB030C704631463A466346BDE8F08167
:1003D000D2B201E000F8012B491EFBD27047002287
:1003E000F6E710B513460A4604461946FFF7F0FF34
:1003F000204610BDF0B4CA17CB0F50405140C6186C
:1004000041F100054FEAC372314628004FF09603D0
:1004100003D0B623F0BC00F02BB830460021F9E73A
:10042000202A04DB203A00FA02F1002070479140B4
:10043000C2F1200320FA03F3194390407047202AA9
:1004400004DB203A21FA02F00021704721FA02F37E
:10045000D040C2F12002914008431946704700295C
:10046000A8BF7047401C490008BF20F0010070473A
:1004700010B4B0FA80FC00FA0CF050EA010404BF9A
:1004800010BC704749B1CCF1200421FA04F411FAF0
:100490000CF118BF012121430843A3EB0C01CB1D34
:1004A0004FEA00614FEA102042BF002010BC7047A5
:1004B00000EBC35010440029A4BF10BC7047401C7F
:1004C000490008BF20F0010010BC7047F0B400F0F4
:1004D000004221F0004120F00040CE0DC30DC1F3D9
:1004E000160141F40001C0F316004C42154640F4D9
:1004F0000000761E09E010EB440002D582F00042B5
:1005000040428842F7D840005B1EB342F9DA18B186
:10051000F0BC0021FFF7ACBF2846F0BC70470000DC
:10052000064C074D06E0E06840F0010394E8070040
:1005300098471034AC42F6D3FFF7CCFE685600085B
:10054000985600080000000010B50446006842F20A
:10055000001140F48070C4F20201884218D142F2C6
:100560000830C4F20200006810F4403F18D002F0D6
:100570001BFA6168B1F5803F05D0B1F5403F2BD043
:10058000B1F5003F29D1090CB0FBF1F025E000BF27
:1005900046F20830C5F60200006810F4403FE6D18C
:1005A0004FF40020002101F0C7FE6168A1F5802210
:1005B0004FEAB2420A2A10D8DFE802F00606060621
:1005C00006063C3E404244006FF0010202EA5141FF
:1005D000B0FBF1F001E000BF80084BF62141C0F212
:1005E000BE01884206D82068816821F4407181608C
:1005F00010BD00BF47F64101C0F27D11884207D807
:1006000020680122816862F30921816010BD00BF6A
:1006100021684FF28102C0F2FA229042886805D820
:10062000022262F30920886010BD00BF40F44070D0
:10063000886010BD0009D0E74009CEE78009CCE70B
:10064000C009CAE7000AC8E740F268009FED0C1A2B
:10065000C2F200409FED0C2A90ED000AB8EE400A6D
:1006600020EE010A9FED071A00EE012A9FED070A0E
:1006700082EE000A80ED020A90ED020A704700BF88
:10068000333353C000008037EC51B83FEC51383E53
:1006900040F268009FED0C1AC2F200409FED0C2A58
:1006A00090ED010AB8EE400A20EE010A9FED071A0C
:1006B00000EE012A9FED070A82EE000A80ED030A90
:1006C00090ED030A704700BF333353C000008037FA
:1006D000EC51B83FEC51383E80B540F22430C2F2C4
:1006E000004003F065F840F2EC00C2F2004000F078
:1006F000ABFD40F27C00C2F20040BDE8804000F05B
:10070000A3BD000000000000F0B581B00446006801
:100710008168C9074CD14FF6C0778168C7F6FF776B
:1007200007F17F0211420BD0206E40F010002066CE
:10073000606E40F001006066012001B0F0BD00BFB6
:100740008168394041F00101816001F0CDFA42F247
:10075000000346F20836C4F20203216803F58072F2
:1007600003F54275C5F60206914208BF2E4699422E
:1007700008BF2E4699420546306816D0914214D1E2
:1007800010F01F0014D110E08868C00704D18868F9
:10079000384040F00100886001F0A6FA401B216853
:1007A000032802D30868C007BED00868C007EBD092
:1007B000002001B0F0BD000080B540F27C00C2F224
:1007C000004000F03DFE40F2EC00C2F20040BDE807
:1007D000804000F035BE0000FEE700000000000091
:1007E0007047000000000000B0B52DED048B40F212
:1007F000A81040F23004C2F20040C2F20044016886
:10080000C268486AE16A411AB1EB520F02DDD24375
:10081000114405E053085B429942BCBF11440131C9
:1008200000EE101A9FED339AA1629FED338AD4E94E
:100830000623B8EEC00A521843EBE171C4E9062161
:1008400080EE090AE06294ED001A40F2F410C2F260
:10085000004020EE080A80EE010A84ED040A0068D8
:10086000406A6063207D48B9606B216B884205D087
:1008700001202075D4E90601C4E90801606B2063FA
:10088000207DA0B3D4E90601D4E90823801A42F2FE
:1008900010729941002342F21075FFF768FD50195C
:1008A00043F10001002B5CBF10461946FFF7A2FD83
:1008B00000EE100A9FED111AF0EE480A80EE090AC8
:1008C00000EE081A84ED031A94ED030A04F04DFEBD
:1008D00084ED030A94ED030AB5EE400AF1EE10FA36
:1008E00005DA94ED030A30EE080A84ED030ABDEC44
:1008F000048BB0BD00401C46DB0FC940368DA73FBE
:1009000072B600BFFEE7000044F60400C5F6020020
:10091000816841F0020181600168890409D401689D
:1009200089045CBF01685FEA814102D401688904DF
:10093000F2D570470000000000688168826801F00D
:10094000040102F0080289180AD14FF6FF72C1684B
:10095000C7F6DF72114001F10041C160002070470D
:1009600001207047000000007047000000000000F8
:100970002DE9F04F81B00022009290F85C20012A0E
:1009800006D14FF00208404601B0BDE8F08F00BF2D
:100990000269002A4FF0010280F85C2002D04F6A01
:1009A000012F19D14A68092A3DD10A68CB6A4FF450
:1009B000785707EA524223B103F07C030F6B3B43A5
:1009C0001A43036844F20006C0F21046DF6C374059
:1009D0001743DF64826626E0C66E1EB1836E002276
:1009E0000AE000BFCB6A7A1E23B103F07C030E6BD2
:1009F00033431A4300233E46D1E9007505F01F0535
:100A0000C7F38467AF403A43771E42EA0302C0E966
:100A10001A2708D1036844F20006C0F21046DF6CC2
:100A200037403A43DA64036846F2083C4FF6FF7EEB
:100A3000C5F6020C9A68C0F20F0E12072AD40A6893
:100A4000002A13D4ACF54274A3420FD092FAA2F458
:100A500012EA0E0FB4FA84F408BF940E04F01F02D9
:100A6000012404FA02F2DC692243DA61DA6891F8BF
:100A7000294091F82A50002C22F440144FEA4552A4
:100A800002D0224305E000BF91F8285044EA055403
:100A90002243DA609A689C6802F0040204F00804B9
:100AA000121915D1CA6ABAB10A6BAAB191F82920F4
:100AB000012A19D1026E4FF0010842F020020266AD
:100AC00091F83440012C19D01C6924F0020429E06B
:100AD0004FF0000894E100BF91F82920012ADA685C
:100AE00003D142F0007202E0DA6822F000724FF0A7
:100AF0000008DA6091F83440012CE5D1ACF542747D
:100B0000A34200F0CB804FF61D651C69CFF600456F
:100B100002272C40CFF6FF77D1E90E56344307EB7E
:100B200005452C431C610C6807278E68C4F340659B
:100B3000C4F3045403EB8505A7406A6906FA04F47C
:100B4000BA43ACF54277BB4242EA04026A6131D053
:100B500041F20002C5F60042126802F07042B2F1A2
:100B6000805F40F091804A69DC680E2505EA5404F4
:100B700002FA04F40D69042D00F0D98003F160023B
:100B80000E6806F0F84652F8257007F000473C431F
:100B9000344342F825400C6991F8215052F8246002
:100BA000012D26F0004608BF06F1004642F82460F9
:100BB00026E100BF4FF604520C69CFF6FF72042CF9
:100BC0004D695CF802607BD14FF65852CFF6FF7248
:100BD0005CF802201A6E0E68C2F3846216EA0E04F4
:100BE000C6F3846596FAA6F6B6FA86F6374608BFC7
:100BF0002F46BA420CD11A6E22F000421A660A68D9
:100C000002EA0E04C2F3846592FAA2F2B2FA82F604
:100C10005A6E37465A6E002C08BF2F46C2F38462C4
:100C2000BA420CD15A6E22F000425A660A6802EAB1
:100C30000E04C2F3846592FAA2F2B2FA82F69A6EB8
:100C400037469A6E002C08BF2F46C2F38462BA4220
:100C50000CD19A6E22F000429A660A6802EA0E04EB
:100C6000C2F3846592FAA2F2B2FA82F6DA6E002C2E
:100C7000DA6E08BF2E46C2F38462B24240F0C080F2
:100C8000DA6E22F00042BAE0DA684C69DD68D2061A
:100C90004FEA550544D405F00E0243E04FF60854E0
:100CA000CFF6FF745CF8045025F4FF75D1E90E67A8
:100CB00035433D4345F002054CF8045033E700BF8F
:100CC000ACF52A724FF2000BD1F800A0062752F8BB
:100CD0002490C0F2FF3B07EA96060AF0F84A09EAB8
:100CE0000B07B5400AEB0706354345F0004542F8CF
:100CF00024500C69CD6952F8246026F08076354383
:100D000042F824500C6991F8205052F82460012DCB
:100D100026F0007608BF06F1007642F824606FE006
:100D200005F0080294400D69042D7FF427AF1A6E78
:100D30001A6E0C6814EA0E0994FAA4F7B7FA87F54C
:100D4000C4F384662F4608BF3746C2F38462BA42B2
:100D50000FD11A6E04F0F84402F0004222441A66E1
:100D60000C6804EA0E09C4F3846694FAA4F2B2FA99
:100D700082F55A6E2F465A6EB9F1000F08BF3746FA
:100D8000C2F38462BA420FD15A6E04F0F84402F002
:100D9000004222445A660C6804EA0E09C4F38466D1
:100DA00094FAA4F2B2FA82F59A6E2F469A6EB9F1CD
:100DB000000F08BF3746C2F38462BA420FD1DA6E21
:100DC00004F0F84402F000422244DA660C6804EAB7
:100DD0000E09C4F3846694FAA4F2B2FA82F5DA6ECC
:100DE000B9F1000FDA6E08BF3546C2F38462AA4239
:100DF00006D1DA6E04F0F84402F000422244DA66CA
:100E00009A68D20740F09681ACF542790D684B455F
:100E1000CE680DD006F01802D3F8C0102EFA02F2F8
:100E200005EA0E07B9432A401143C3F8C01010E089
:100E30004FF6A85106F01807CFF6FF712EFA07F704
:100E400005EA0E042F405CF80120A2433A434CF817
:100E500001200021C4F2527101F52D02964240F0AA
:100E6000138146F20002C5F6020293423CD042F2E0
:100E70000012C4F20202934226D042F20002C4F2EF
:100E80000202934246D11F22C1F2F04295426BDD2D
:100E900040F2FF72C2F63062954243DD40F6000236
:100EA000C2F63062954200F0BF8041F20002C3F208
:100EB0006022954200F08C800022C4F221329542DB
:100EC00000F0CD80B6E000BF1F21C1F2F0418D429D
:100ED00022DC0721C0F690418D4259DC0221C0F28C
:100EE00030418D424AD165E01F21C1F2F0418D426F
:100EF00024DC0721C0F690418D426FDC0221C0F254
:100F000030418D4256D00421C0F660018D423AD066
:100F10009AE000BF0021A2E040F2FF71C2F630610A
:100F20008D4249DC2021C1F2F0418D423CD040F29B
:100F30000041C2F600218D4211D07BE040F2FF71EA
:100F4000C2F630618D425DDC2021C1F2F0418D425C
:100F50002AD040F20041C2F600218D4274D140F601
:100F60000001C2F630617AE00721C0F690418D425F
:100F70000EDC0221C0F230418D421BD00421C0F6AC
:100F800060018D4256D14021C1F6201167E000BFBB
:100F90000821C0F690418D4230D01021C1F2C0012D
:100FA0008D4225D046E000BF40F20021C2F2B05190
:100FB00055E000BF012152E040F60001C2F6306169
:100FC0008D4231D041F20001C3F260218D4231D116
:100FD00042F20001C3F2906141E000BF0821C0F677
:100FE00090418D420AD01021C1F2C0018D422BD117
:100FF00040F20011C2F2801131E000BF8021C1F641
:1010000050512CE040F60001C2F630618D420BD009
:1010100042F20001C3F290618D4215D144F2000109
:10102000C3F6C0211BE000BF41F20001C3F2602102
:1010300015E000BF00220021C4F68432954204BFAF
:101040000021C4F6B8710AE044F200020021C3F6A0
:10105000C022954204BF48F20001C3F6F0614B453F
:1010600012D091FAA1F24FF6C137B2FA82F2C0F271
:101070000A07394208BF8A0E02F01F01012202FA54
:1010800001F1DA691143D961B5F1FF3F52DC42F257
:10109000001243F48071C4F20202914242F2000154
:1010A000C4F2020138D18A68D1F808711743FA07EF
:1010B0003AD101F5807201F542779342624608BF4A
:1010C0003A468B4240F2000108BF3A46CCF25271D8
:1010D00017688D4207F0E07108BF17F4000231D0A5
:1010E0000022CCF22132954208BF17F0807245D021
:1010F0000022CCF6843295421CD117F4800208BF3E
:101100004B4517D1DCF8002022F0E072114341F486
:101110008001CCF800100DE04FF60052CFF6FF72C0
:101120005CF80270FA07C4D0016E4FF0010841F07C
:1011300020010166002180F85C10404601B0BDE846
:10114000F08F00BF4B45F5D1DCF8002022F0E072B3
:10115000114342F6635241F40001CCF8001040F212
:101160000C01C0F23E52C2F2004109688909A1FB9C
:1011700002129109022202EB41010DE04B45D9D147
:10118000DCF8002022F0E072114341F08071CCF8CD
:101190000010CFE700990139009100990029C9D0CA
:1011A00000990139009100990029C3D000990139B3
:1011B0000091009900291FBF009901390091009901
:1011C00018BF0029B6D0E5E710B542F2000100686B
:1011D000C4F20201884218BF10BD40F27C00092110
:1011E000C2F2004000F010F840F268040921C2F297
:1011F0000044206040F2EC00C2F2004000F004F82D
:10120000606010BD0000000040F20F1291420DD04E
:1012100040F2152291420DD040F21B3200689142FB
:1012200014BF80308C300068704700BF0068843085
:101230000068704700688830006870470000000050
:10124000704700000000000070B542F2001546F241
:101250000833C4F202050446006805F50272C5F6BB
:101260000203A5F58071A84208BF1346884208BF53
:1012700013461E688168090710D4C168C06C10F459
:10128000C07F07D1002905D4206E40F020002066E1
:10129000012070BD94F85C00012801D1022070BDCE
:1012A000012084F85C002046FFF72EFA20B10021CF
:1012B00084F85C1070BD00BF206EC00502D4002011
:1012C00003E000BF606E20F00800606643F2010199
:1012D000206E884306F01F0100F5805020662068CC
:1012E000A84200D119B9226E22F48012226660222F
:1012F0000260002284F85C20C268920203D5426832
:1013000042F48062426062696FF04003082A4FF045
:10131000200208BF6FF02003466808BF4022334018
:1013200043604368A84242EA0302426007D10729AA
:1013300012D8012202FA01F111F0C10F0CD0C168DC
:10134000890107D44FF6C0728168C7F6FF72114059
:1013500008318160002070BD206E40F4801020664E
:10136000002070BD00000000704700000000000079
:101370007047000000000000B0B582B090F85C201B
:10138000012A03D10221084602B0B0BD42F2083260
:1013900000230193C4F202020093A2F54274036891
:1013A000A34227D14FF6006E4FF60055CFF6FF7ED1
:1013B000CFF6FF7552F80E40535923435B0719D4FB
:1013C000D1F800C01368BCF1000F23F440441DD0D5
:1013D0004B6823431360535952F80E502B43DB07DD
:1013E00022D1136840F61F75AB438968194341EA5F
:1013F0000C0116E0016E41F020010166012100227E
:1014000080F85C20084602B0B0BD00BF146051599E
:1014100052F80E301943C90708D1116840F61F73FE
:10142000994311600021EAE70021E8E70021E6E79F
:10143000704700000000000070470000000000003E
:101440002DE9F04F81B046F2083942F20002C5F6AC
:101450000209C4F202020446006802F5807A02F52D
:10146000427B4946504508BF5946904208BF5946FD
:1014700006684568B2070F680FD515F002010CD059
:10148000206EC00603D4206E40F400602066204623
:10149000FFF76AFA206802210160710707F01F0850
:1014A00002D515F0040104D131074DD515F008011E
:1014B0004AD0214651F8602FD20603D40A6842F47C
:1014C00000720A60C26812F4406F37D142F2000322
:1014D0000246C4F20203504508BF1A46B8F1090F8C
:1014E000134608BF0346B8F1050F08BF0346B8F11D
:1014F000000F08BF0346824208BF1346DA68920411
:101500001CD40268120719D5826852070CD44268AD
:1015100022F00C024260086820F4807008600868BD
:10152000C00407D50AE000BF206E04F1640140F05A
:1015300010002066086840F0010008602046FFF7B0
:1015400077FF20680C210160B10602D515F020015B
:1015500004D171062FD515F040012CD0214651F849
:10156000602FD20603D40A6842F400520A6042F2A5
:1015700000020346C4F20202504508BF1346B8F108
:10158000070F1A4608BF0246B8F1060F08BF024609
:10159000B8F1000F08BF0246834208BF1A46C36C69
:1015A00013F4C07FC368D26876D02046FFF70CFEE4
:1015B00020686021016031060CD515F0800109D04A
:1015C000206E40F480302066204600F021FA20682A
:1015D00080210160F1050DD515F480710AD0206ECF
:1015E00040F4003020662046FFF7BEFE20684FF42E
:1015F00080710160B1050DD515F400710AD0206E1F
:1016000040F4802020662046FFF7B2FE20684FF4A9
:1016100000710160F10624D515F0100121D0E16BB5
:1016200089B1B8F1000F59D042F20001504508BF0E
:10163000D946C4F20201884208BFD946D9F8001041
:1016400011F4404F0BD0206E40F480602066606E35
:1016500040F0020060662046FFF7EEFE2068102191
:101660000160710514D515F4806111D0216E41F42B
:1016700080412166616E41F0080161664FF480612E
:101680000160204601B0BDE8F04FFFF7D9BD00BFB3
:1016900001B0BDE8F08F00BF970106D503F44063A9
:1016A00002F40057DB197FF480AF03685B067FF517
:1016B0007CAF12F400127FF478AF8268120711D465
:1016C000426822F060024260086820F4805008609E
:1016D0000868C0053FF569AF0AE000BFC168890727
:1016E000B1D1BCE7206E04F1640140F01000206627
:1016F000086840F00100086057E7000000000000A3
:10170000F0B581B0044600284FF0000000902DD0C5
:10171000206E30B9204600F07FF90020606684F822
:101720005C002068816889004FF6C071C5F6FF71C2
:1017300002D582680A4082608268D20031D4826811
:1017400001F18051114042F6635241F080518160B5
:1017500040F20C01C0F23E52C2F200410968890910
:10176000A1FB0212012101EB921105E0012528469F
:1017700001B0F0BD009901390091009989B100993B
:1017800001390091009961B10099013900910099E6
:1017900000291FBF009901390091009918BF002945
:1017A000E8D18168C90009D4216E012541F01001FA
:1017B0002166616E41F00101616600E000258168EB
:1017C000226E02F0100201F004018918216E59D135
:1017D00021F4817146F2100C023121668168C5F650
:1017E000020CC90724D142F2001240F48071C4F205
:1017F0000202914242F20001C4F2020140F0F08084
:101800008A68D1F808311A43D20711D101F58072E4
:1018100001F5427390421A4618BF0CF53E72884299
:1018200008BF1A466168136823F47C1319431160DA
:10183000617EE36BACF11006B04243EA413329D03C
:10184000A168194394F82030012B41EA034306D1E3
:10185000616A0022CFF6FE7202EB41410B43A16A9E
:1018600021B101F47871E26A11430B43B0421FD0F9
:101870004CF20302C168CFF6F07211401943C16007
:1018800028E000BF41F0100001252066284601B085
:10189000F0BD00BFA168D4F80CE0082900F0A680D4
:1018A0000C2900F0A5801C2940F0A4801021A4E0A0
:1018B00044F207025CF8041CCFF6F07211401943A1
:1018C0004CF8041CDCF80010626B21F040611143FD
:1018D000CCF800108168826801F0040102F008026F
:1018E000891869D1217EB0424FEA813126D0226B1E
:1018F000C36844F20307BB431A431143C16094F821
:101900004410012948D14FF61E020169CFF600426A
:101910000126D4E912371140CFF6FF7606EB0343D8
:101920003943276D1943636D3943226C19430161B3
:10193000016921F07041114301613AE05CF8042C27
:1019400094F8383044F2030E94F8447022EA0E0200
:1019500042EA4302012F41EA02014CF8041C1BD168
:101960004FF61E01DCF80000CFF600410840D4E934
:1019700012120843216D1043626D0843216C10431D
:1019800040F00100CCF80000DCF8000020F07040CE
:101990000843CCF800000FE00169B04221F00101DA
:1019A00001610169226C21F0704141EA020101618B
:1019B00002D02046FEF7C8FD20682169026B01298C
:1019C00022F00F0102D1E269013A114301630121C2
:1019D000206E61F301002066284601B0F0BD00BF13
:1019E0005CF8082CD2073FF411AF21E7002104E096
:1019F000082102E0182918BF002141EA0E0119430D
:101A000094F82030012B41EA03433FF421AF26E74D
:101A1000704700000000000080B586B042F200125E
:101A20000068C4F20202002190420591CDE9031141
:101A3000CDE9011128D042F20001C4F2020188422E
:101A400058D140F2780144F2D840C2F20041C5F6C4
:101A500002000A68002A02F101020A6008D1016846
:101A600041F020010160016801F02001009100991E
:101A7000816841F020018160806800F020000090C2
:101A800000984FF4006021E040F2780144F2D84021
:101A9000C2F20041C5F602000A68002A02F1010202
:101AA0000A6008D1016841F020010160016801F07D
:101AB000200100910099816841F0200181608068D7
:101AC00000F02000009000984FF400500190032097
:101AD00002900020039041F20040C5F6020001A9E7
:101AE00000F00AF812200021002200F0F1F9122083
:101AF00000F0DAF906B080BD2DE9F04F82B00D6834
:101B0000002D00F0DB8000F1264242F2004302F19A
:101B1000FF72C5F602030A2798424FEAB2244FF03B
:101B2000000C08BF0927082C4FF0000638BF4FEA09
:101B3000B2270097002709E001370D6835FA07F250
:101B400006F102060CF1040C00F0B880012202FA42
:101B500007F415EA0408EFD0D1F8049009F0030A5D
:101B6000AAF10105012D13D80322D0F808B002FA1A
:101B700006F3CD682BEA0303B5402B438360C9F31A
:101B800000154368A34305FA07F4234343600DE0BF
:101B9000BAF1030F0AD18B68012B07D14FF0030A6A
:101BA000B3460AFA06F36FEA030E29E00322C3687C
:101BB00002FA06F4BAF1020F6FEA040E23EA0403F4
:101BC0008C684FEA470B04FA06F443EA0403C36047
:101BD00016D16FF003020CF01C0502EA57030F2226
:101BE000034402FA05FAD3F820900C6929EA0A099D
:101BF000AC4044EA09041C62D1F8049009F0030ADD
:101C000003680AFA0BF503EA0E0319F4403F43EAAE
:101C10000503036090D044F2F44240F20849C5F64F
:101C20000202C5F60009136843F00203136013684B
:101C30000F2203F00203019327F00303019D0CF030
:101C40000C0553F809E002FA05F4009A2EEA0404A0
:101C500002FA05F54FF0B04E254343F80950DEF87F
:101C600000304D6843EA0804EA0258BF23EA08043A
:101C7000CEF8004040F2040EC5F6000EAC02DEF8CD
:101C8000002042EA080358BF22EA0803AC03CEF85A
:101C90000030DEF8802042EA080358BF22EA080339
:101CA000ED03CEF88030DEF87C2042EA080358BF0E
:101CB00022EA0803CEF87C303EE700BF02B0BDE860
:101CC000F08F0000000000000069084018BF0120EC
:101CD0007047000000000000002A08BF090481616D
:101CE000704700000000000040F27030C2F2004077
:101CF000006870470000000040F2040040F27031BC
:101D0000C2F20040C2F2004100780A681044086044
:101D1000704700000000000080B5032000F008F9C3
:101D200000F09AFE44F2184145F25863C5F60201EC
:101D3000C0F600030A68096801F00F01C2F303222C
:101D4000595C9A5C01F01F0102F01F02D04040F282
:101D50001002C2F2004220FA01F1116040F20C01BF
:101D6000C2F2004108600F2000F00AF800281CBFF2
:101D7000012080BD00F07CF8002080BD0000000044
:101D800070B540F20406C2F200463178E1B1044673
:101D900040F20C00C2F200404FF47A72B2FBF1F153
:101DA0000068B0FBF1F001F06FF90F2C4FF0010566
:101DB00008D838B94FF0FF3000222146002500F046
:101DC00087F87460284670BD012070BD00000000D7
:101DD00010B54EF6A05E4178CEF2000E90F800C02D
:101DE0004EF8081CDEF8001021F00101CEF80010BA
:101DF00041684EF8041C017BC37A827A447B1B063F
:101E000043EA0171837B41EAC241C27B41EA8441DA
:101E1000447A41EA4341007A41EA024141EA04211D
:101E200041EA400040EA0C00CEF8000010BD00007E
:101E30004EF62450CEF20000BFF35F8F016821F40C
:101E40008031016000210167704700000000000040
:101E50004EF6245140F00100CEF2000108670868F8
:101E600040F480300860BFF34F8FBFF36F8F70472F
:101E700080B582B044F2F4400022C5F60200016849
:101E800041F0020101600068002100F002000190B1
:101E90000198052000F01CF8052002B0BDE8804044
:101EA00000F002B800000000002848BF704781B26F
:101EB00000F01F000122490902FA00F04EF2001260
:101EC000CEF2000242F8210070470000000000003E
:101ED00070B54EF60C5C4FF0FF36CEF2000C00F100
:101EE000604505F56445DCF80030C3F3022E8EF042
:101EF0000703042B28BF0423BEF1030406FA03F3EF
:101F000021EA030100F00F0338BF0024043B00283E
:101F1000634406FA04F048BF03F10C05A14022EA2D
:101F2000000008430001287070BD000000000000A0
:101F30004EF60C514FF6FF03CEF200010A681A402C
:101F400060F30A2242F0806040F0FD700860704744
:101F5000B0B544F60C05C5F602052968490729689D
:101F600006D401F00701081A18BF0120B0BD00BF58
:101F700021F0070108432860FFF7B6FE044600BFC2
:101F800055F8080C800407D4FFF7AEFE001BB0F52F
:101F90007A7FF5D90120B0BD0020B0BD000000005F
:101FA00080B544F2304EC5F6020E5EF8083C5EF88D
:101FB000081CC1F3051C5EF8041CBCF1000FDEF820
:101FC000042019D001F0010103F003034942022B60
:101FD00001EAD2016FF35F3100EE101AB8EE400A49
:101FE00010D0012B12D01BB95EF8301C890611D419
:101FF0009FED361A1CE000BF00218160C0E900118E
:1020000080BD00BF9FED301A12E000BF9FED2D1A7A
:102010000EE000BF5EF8301C49F20002C0F2D03280
:10202000C1F3C10122FA01F101EE101AB8EE411A12
:10203000DEF800109FED263A6FF35F2102EE101AD2
:10204000DEF80010C1F34621B8EE422A00EE032A62
:1020500000EE10CAB7EE003AB8EE400A81EE000A70
:1020600032EE031A02EE101AB8EE422A20EE010AEE
:1020700032EE031A80EE011ABCEEC11A80ED001A8E
:10208000DEF80010C1F3064101EE101AB8EE411A55
:1020900031EE031A80EE011ABCEEC11A80ED011A6E
:1020A000DEF80010C1F3066101EE101AB8EE411A15
:1020B00031EE031A80EE010ABCEEC00A10EE101ACF
:1020C000816080BD0024744A20BCBE4B0024744C47
:1020D000000000390000000080B544F2384EC5F61B
:1020E000020E5EF8103C5EF8101C5EF80C2CC1F37A
:1020F000053CDEF80410BCF1000F15D0C908D2066B
:1021000001EAE2716FF35F3100EE101A03F0030190
:102110000229B8EE400A0DD081B95EF8381C890654
:1021200010D49FED361A1BE000218160C0E9001138
:1021300080BD00BF9FED301A12E000BF9FED2D1A49
:102140000EE000BF5EF8381C49F20002C0F2D03247
:10215000C1F3C10122FA01F101EE101AB8EE411AE1
:10216000DEF800109FED263A6FF35F2102EE101AA1
:10217000DEF80010C1F34621B8EE422A00EE032A31
:1021800000EE10CAB7EE003AB8EE400A81EE000A3F
:1021900032EE031A02EE101AB8EE422A20EE010ABD
:1021A00032EE031A80EE011ABCEEC11A80ED001A5D
:1021B000DEF80010C1F3064101EE101AB8EE411A24
:1021C00031EE031A80EE011ABCEEC11A80ED011A3D
:1021D000DEF80010C1F3066101EE101AB8EE411AE4
:1021E00031EE031A80EE010ABCEEC00A10EE101A9E
:1021F000816080BD0024744A20BCBE4B0024744C16
:10220000000000390000000080B544F2404EC5F6E1
:10221000020E5EF8183C5EF8181C5EF8142CC1F330
:10222000055CDEF80410BCF1000F15D0C908D2051A
:1022300001EAE2716FF35F3100EE101A03F003015F
:102240000229B8EE400A0DD081B95EF8401C89061B
:1022500010D49FED361A1BE000218160C0E9001107
:1022600080BD00BF9FED301A12E000BF9FED2D1A18
:102270000EE000BF5EF8401C49F20002C0F2D0320E
:10228000C1F3C10122FA01F101EE101AB8EE411AB0
:10229000DEF800109FED263A6FF35F2102EE101A70
:1022A000DEF80010C1F34621B8EE422A00EE032A00
:1022B00000EE10CAB7EE003AB8EE400A81EE000A0E
:1022C00032EE031A02EE101AB8EE422A20EE010A8C
:1022D00032EE031A80EE011ABCEEC11A80ED001A2C
:1022E000DEF80010C1F3064101EE101AB8EE411AF3
:1022F00031EE031A80EE011ABCEEC11A80ED011A0C
:10230000DEF80010C1F3066101EE101AB8EE411AB2
:1023100031EE031A80EE010ABCEEC00A10EE101A6C
:10232000816080BD0024744A20BCBE4B0024744CE4
:10233000000000390000000010B584B0024641F6EC
:10234000FF7300209B1A70EB01032DDA47F6FF7331
:102350009B1A70EB010380F2918082F400430B43DF
:1023600000F0B88082F480330B4300F0018182F4E6
:102370000022114340F0478144F20040C5F60200BC
:10238000816D01F44031B1F5003F00F04B81B1F5B2
:10239000803F00F02781002940F03B810068000168
:1023A00040F137810BE100BF40F2FF739B1A70EBE5
:1023B000010331DB82F480730B4300F09F8082F4D1
:1023C0008062114340F01F8144F20041C5F60201D2
:1023D000886DC0F34252042A00F21B8148F20000CB
:1023E000C0F2BB00DFE812F0C200E800F2000F010B
:1023F000060000BFC86C0A68520700F04052086827
:1024000002D5002A00F06881C00540F12581B2F1B3
:10241000805F00F07A811FE182F400630B4300F0DB
:10242000938082F48052114340F0ED8044F20041E9
:10243000C5F60201086DC0F30232042A00F2E980F9
:1024400048F20000C0F2BB00DFE812F09000B600D6
:10245000C000DD00060000BFC86C0A68520700F02B
:102460004052086802D5002A00F03681C00540F1CC
:10247000F380B2F1805F00F04881EDE082F4005318
:102480000B4300F0858082F48042114340F0BB8012
:1024900044F20044C5F60204A06DC0F302700528A2
:1024A00000F2B780DFE810F00600EA00EC00EE0072
:1024B000F400F60000F078FA216A45F25862C0F69E
:1024C0000002C1F30211515C01F01F01C84004B0C9
:1024D00010BD00BF44F20040C5F60200016D01F0DE
:1024E0004051B1F1005F00F08780B1F1805F00F0F2
:1024F0008D80002940F08D8072E000BF44F20041E1
:10250000C5F60201086D00F00702042A00F281807E
:1025100048F20000C0F2BB00DFE802F0284E587518
:10252000040000BFC86C0A68520700F040520868F7
:1025300002D5002A00F0D080C00540F18D80B2F1B4
:10254000805F00F0E28087E044F20041C5F60201BE
:10255000886DC0F30262042A5BD848F20000C0F222
:10256000BB00DFE802F0032933506B0008684EE03F
:1025700044F20040C5F60200C16C0068C90346D5AC
:10258000000146D501A8FFF7A7FD039804B010BDD0
:1025900044F20040C5F60200016DC1F30241052975
:1025A00037D8DFE801F003818B95A31D04B0BDE8A7
:1025B000104000F021BA00BF0868000129D501A829
:1025C000FFF78AFD019804B010BD00BF08688000C5
:1025D0001FD501A8FFF718FE019804B010BD00BF79
:1025E000006858E00068800013D501A8FFF70CFED2
:1025F000039804B010BD00BF0068000109D501A810
:10260000FFF76AFD029804B010BD00BF00688001AA
:1026100002D4002004B010BD01A8FFF7C1FC02984D
:1026200004B010BDC16C0268520701F0405102684D
:1026300066D5002964D1C2F3C1004FE0C86C0A68B6
:10264000520700F04052086801D5002A44D0C00566
:1026500002D5B2F1805F58D00868B2F1005F00F493
:1026600000314FF0000004BF47F64000C0F27D107B
:10267000002908BF084604B010BD00BF206814E060
:1026800020681CE020684007C3D5206824E000BF14
:1026900020682CE0206847F640018003C0F27D11DD
:1026A00001EAE07004B010BD00680001B1D501A8D6
:1026B000FFF712FD029804B010BD00BF0068800053
:1026C000A7D501A8FFF7A0FD029804B010BD00BF78
:1026D000016849079DD50068C0F3C10049F20001B7
:1026E000C0F2D03121FA00F004B010BD006840F60D
:1026F0000011C005C0F23D0101EAE07004B010BD58
:10270000D20509D5B1F1805F06D140F60010C0F2C4
:102710003D0004B010BD00BF0068B1F1005F00F4DF
:1027200000324FF0000004BF47F64000C0F27D10B9
:10273000002A08BF104604B010BD000000000000D1
:102740002DE9F04381B0002800F02A8142F2000810
:102750000446C5F200288946D8F8000000F00F00B2
:1027600088420ED2D8F8000020F00F0040EA09009D
:10277000C8F80000D8F8000000F00F00484540F00D
:102780000F81206844F218474107C5F602070AD5B1
:1027900021693A6802F07002914204D93A6822F045
:1027A00070021143396001070AD561697A6802F045
:1027B0007002914204D97A6822F070021143796064
:1027C000C1060AD5A1697A6802F4E062914204D98F
:1027D0007A6822F4E0621143796081060AD5E169E2
:1027E000BA6802F07002914204D9BA6822F070020D
:1027F0001143B96010F002010AD0E2683B6803F0AF
:102800000F039A4204D93B6823F00F031A433A603E
:10281000C20746D0386820F47061D4E9010201286B
:1028200041EA0201396009D003280DD0022811D1F4
:1028300057F8181C890340F1B38010E057F8181CB2
:10284000C90540F1AD800AE057F8181C890140F134
:10285000A78004E057F8181C490740F1A18057F8F9
:10286000081C21F00701084347F8080CFFF73CFA61
:10287000064641F2883500BF57F8080C616800F041
:102880003800B0EBC10F09D0FFF72EFA801BA84229
:10289000F2D9032001B0BDE8F08300BF206800F04A
:1028A000020151B1E1683A6802F00F02914204D28C
:1028B0003A6822F00F0211433960D8F8001001F095
:1028C0000F0149450DD9D8F8001021F00F0141EA58
:1028D0000901C8F80010D8F8001001F00F014945AF
:1028E0005ED141070AD521693A6802F0700291422F
:1028F00004D23A6822F070021143396001070AD508
:1029000061697A6802F07002914204D27A6822F01A
:10291000700211437960C1060AD5A1697A6802F490
:10292000E062914204D27A6822F4E0621143796055
:1029300080060AD5E069B96801F07001884204D2C6
:10294000B96821F070010843B86000F085F8396873
:1029500045F258633A68C0F60003C1F3032102F060
:102960000F02595C9A5C01F01F0120FA01F102F09C
:102970001F0040F2100221FA00F0C2F20042106083
:1029800040F2080040F20C02C2F20040C2F20042E3
:102990000068116001B0BDE8F043FFF7F1B900BF76
:1029A000012001B0BDE8F08380B500F055F844F295
:1029B000184145F25863C5F60201C0F600030A68E3
:1029C000096801F00F01C2F30322595C9A5C02F01E
:1029D0001F0220FA02F201F01F0040F2100122FA59
:1029E00000F0C2F20041086040F20C01C2F2004166
:1029F0000A6080BD0000000080B500F02DF844F2B0
:102A0000184C45F25861C5F6020CC0F60001DCF81E
:102A10000020DCF8003003F00F03C2F30322CB5C8C
:102A20008A5C02F01F02D04003F01F0240F2100344
:102A300020FA02F2C2F200431A6040F20C03C2F222
:102A400000431860DCF80400C0F30210085C00F0DA
:102A50001F0022FA00F080BD44F20041C5F60201D9
:102A60000869C0F3C200032810D002282ED098BBFA
:102A70000868800649F20000C0F2D03058BF7047A5
:102A80000968C1F3C101C840704700BF8A6A886AFB
:102A9000C0F3051CC86ABCF1000F4B6B22D000F0DC
:102AA000010002F003024042022A00EAD3006FF361
:102AB0005F3000EE100AB8EE400A15D0C2B90868BF
:102AC000800619D49FED281A23E000BF47F6400086
:102AD000C0F27D10704700BF40F60010C0F23D000C
:102AE000704700BF002070479FED1E1A11E000BF25
:102AF0009FED1B1A0DE000BF086849F20002C0F20A
:102B0000D032C0F3C10022FA00F001EE100AB8EE94
:102B1000411A086B9FED153A6FF35F2002EE100A21
:102B2000086BC0F34620B8EE422A013000EE032ABB
:102B300000EE10CAB7EE003AB8EE400A81EE000A85
:102B400032EE031A20EE010A01EE100AB8EE411A25
:102B500080EE010ABCEEC00A10EE100A704700BFFA
:102B60000024744A20BCBE4B0024744C0000003981
:102B7000F0B581B0002800F0D5800446007844F21A
:102B80000046C007C5F6020622D12078800768D526
:102B9000306910F03801B06A42D0182908BF5FEAE6
:102BA00080703DD0E0683168002800F0258121F078
:102BB000190108433060FFF797F805463068400771
:102BC00048D4FFF791F8401B0228F7D977E100BFFE
:102BD000306900F03801B06A102905D018290BD1EE
:102BE00000F00300022807D130688003CDD560686B
:102BF0000028CAD196E000BF6068002800F032814A
:102C0000B0F5A02F00F04681B0F5803F00F046817E
:102C1000306820F480303060306820F4802040E15B
:102C200030684007E06801D500287BD0316821F08A
:102C3000190108433060FFF757F805463068400730
:102C400008D4FFF751F8401B02284FF00300F5D9D4
:102C500001B0F0BD7068216920F0FE4040EA0160DB
:102C600070602078C00619D5306900F03801B06A6C
:102C7000082906D0182940F0818000F003000128BF
:102C80007CD13068C00502D5E06980284AD1F0685F
:102C9000216A20F07C5040EA0160F0602078000753
:102CA00044D42078800655D42078400700F17E80F7
:102CB000656A9DB3306900F03800182840F014812F
:102CC000012DB16A306B2DD001F00302A36A9A4244
:102CD00028D1C1F30511E26A914223D10146226B4A
:102CE0006FF35F21013A91421CD1C0F34622616B20
:102CF00001398A4216D1C0F30642A16B01398A42DA
:102D000010D1C0F30660E16B013988420AD1706BC3
:102D1000A16CC0F3CC00814240F09C81002001B046
:102D2000F0BD00BF012001B0F0BD00BF6069002808
:102D3000706F4FD040F001007067FEF7D5FF054679
:102D4000706F8007ADD4FEF7CFFF401B0228F7D984
:102D5000B5E000BFA0690028306871D040F4805011
:102D60003060FEF7C1FF0546306880049CD4FEF752
:102D7000BBFF401B0228F7D9A1E000BFE069002893
:102D8000306800F09F8040F080003060FEF7ACFFBC
:102D9000054600BF3068C0053FF579AFFEF7A4FFD8
:102DA000401B02284FF00300F4D951E7D6F8000485
:102DB00040F48070C6F80004FEF796FF054600BF99
:102DC000D6F80004C00529D4FEF78EFF401B642806
:102DD000F6D974E020F001007067FEF785FF054624
:102DE000706F80077FF55DAFFEF77EFF401B022806
:102DF0004FF00300F4D92BE721F001003060FEF71B
:102E000073FF0546306840077FF52BAFFEF76CFF78
:102E1000401B02284FF00300F4D919E7A0680028EE
:102E200000F08480052800F09B80012800F09C8041
:102E3000306F20F001003067306F20F0040096E022
:102E400020F480503060FEF74FFF05463068800464
:102E50007FF52AAFFEF748FF401B02284FF0030022
:102E6000F4D9F5E6306820F480303060306820F422
:102E700080203060FEF738FF054600BF30688003D1
:102E80007FF583AEFEF730FF401B64284FF0030050
:102E9000F4D9DDE6306840F480203060306840F4DA
:102EA00080303060FEF720FF054600BF30688003A9
:102EB0003FF56BAEFEF718FF401B6428F6D90320E0
:102EC00001B0F0BD20F080003060FEF70DFF054638
:102ED0003068C0057FF5E2AEFEF706FF401B022812
:102EE0004FF00300F4D9B3E6306820F08070306012
:102EF000FEF7FAFE022D05460CD100BF30688001B6
:102F000048D5FEF7F1FE401B02284FF00300F5D92B
:102F10009EE600BF306880017FF500AFFEF7E4FE5B
:102F2000401B02284FF00300F4D991E6306F20F0E7
:102F300001003067306F20F004003067FEF7D4FEE8
:102F4000054641F28837306F80077FF5B1AEFEF756
:102F5000CBFE401BB8424FF00300F4D978E600BF27
:102F6000306F40F004003067306F40F00100306790
:102F7000FEF7BAFE054641F2883700BF306F800782
:102F80003FF596AEFEF7B0FE401BB8424FF003008F
:102F9000F4D95DE604F12807B06A40F2F3318843C2
:102FA0008ECF0843591E40EA02104FF47E426FF361
:102FB0005F21B06202EB47204FF4FE0280B2E36B68
:102FC0000844A16B02EB01414FF0FE4201F4FE0107
:102FD00002EB0362084402F0FE4108443063F06AE9
:102FE0004FF6F87120F00100F062706BA26C88431C
:102FF00040EAC2007063F06A216C20F00C000843C4
:10300000F062F06A616C20F002000843F062F06A3E
:1030100040F48030F062F06A40F40030F062F06A10
:1030200040F48020F062F06A40F00100F062306805
:1030300040F080703060FEF757FE04463068800133
:103040003FF56CAEFEF750FE001B02284FF0030068
:10305000F4D9FDE5F06A20F00100F062FEF744FECD
:103060000546FEF741FEA842FBD0706B4FF6F871A3
:10307000A26C884340EAC2007063F06A40F001002D
:10308000F062002001B0F0BD411E0020B0EB116FD6
:1030900002D00120704700BF4EF21002F023CEF2A2
:1030A000000251604EF62351CEF200010B70072151
:1030B0009060116070470000704700000000000041
:1030C0007047000000000000704700000000000092
:1030D000B0B590F83C20012A02D10220B0BD00BF5B
:1030E000D1E9022323F47C5322F4705242EA03050F
:1030F00048F2FF73D1E900CECEF6F0730EEA030278
:1031000003F5006445EA020E0CEA04050C6903F5B8
:10311000C05245EA0E0522402A434D692A4303F571
:1031200060550C6B03F5F0432A40234013430268BB
:1031300040F2004C42F48065C4F2010C8C69654594
:1031400040F2000CCEF6FF7CCD690CEA044443EA61
:10315000050343EA040318D14FF6FF7540F2000C53
:10316000CDF60F458C6ACDF6F04C03EA050E0D6ADC
:103170000CEA04544B6A44EA0E0425F0085523F087
:1031800000532543C96A2B430B430021536480F845
:103190003C100846B0BD000070B588B0002861D072
:1031A000044690F83D000D4628B9002084F83C0004
:1031B000204600F05DF8022084F83D002068211DC3
:1031C00001F0BEFF20682968AB68032202F0DCF83A
:1031D00020680026816921F00C018161696882699B
:1031E0001143816141684FF68F7241F08001416067
:1031F0008168CFF6CF721140816081684FF6F87216
:1032000041F0400181608168CFF6FE72114081601B
:10321000816841F00401816070210191E9680291A7
:1032200001A90796CDE90566CDE9036602F054F8D9
:103230002068416821F070014160416841F050010F
:103240004160012084F8480084F83E0084F83F0083
:1032500084F8440084F8450084F83D00304608B006
:1032600070BD00BF0126304608B070BD00000000F0
:1032700080B586B040F600010068C4F200018842C3
:1032800002D006B080BD00BF44F2E040C5F60200A7
:10329000816841F004018160816801F004010191BD
:1032A0000199016841F0080101600068002100F007
:1032B0000800019001984FF4E04001900220029034
:1032C000059040F60040CDE90311C5F6020001A9C2
:1032D000FEF712FC1E2000210022FEF7F9FD1E2041
:1032E000FEF7E2FD06B080BD10B5044690F83E0042
:1032F00094F83F30012894F844204FF0010094F8EE
:10330000451008BF012B01D010BD00BF012A08BF26
:103310000129F9D1022084F83E0084F83F000122FF
:1033200084F8440084F845002068C16841F0020137
:10333000C160002101F0C0FF4DF6FF702168C4F2AA
:103340000000814214DC40F2FF70C4F200008142B0
:1033500024DD40F60000C4F20000814230D040F687
:103360000040C4F2000081422AD041F6000023E070
:103370004FF6FF70C4F20000814215DD0020C4F258
:10338000010081421CD044F20000C4F201008142DD
:1033900016D040F20040C4F201000FE0B1F1804FBE
:1033A0000ED040F2004007E04EF20000C4F20000F0
:1033B000814205D04EF20040C4F2000081420AD1A1
:1033C00007228868C0F2010202400020062A18BFC6
:1033D000B2F5803F98D0086840F0010008600020F6
:1033E00010BD000000000000B0B590F83C20012A9C
:1033F0004FF0020263D080F83D2040F2004C02689A
:10340000C4F2010C42F4806363455368D2F808E0CB
:1034100002BF23F470034C6823434DF6FF740D681C
:10342000C4F2000423F07003A24243EA0503536090
:1034300014DC40F2FF73C4F200039A4222DD40F62E
:103440000003C4F200039A422ED040F60043C4F2B7
:1034500000039A4228D041F6000321E04FF6FF73A3
:10346000C4F200039A4213DD0023C4F201039A421E
:103470001AD044F20003C4F201039A4214D0624508
:1034800012D016E0B2F1804F0ED040F2004307E0B8
:103490004EF20003C4F200039A4205D04EF20043FC
:1034A000C4F200039A4204D12EF0800389681943C4
:1034B00091600022012180F83D1080F83C201046E8
:1034C000B0BD00000000000051B1082910D004294F
:1034D00016D100F145021278012A0ED115E000BF85
:1034E00090F84420012A08D1022280F844201BE0F1
:1034F00000F146021278012A07D00120704700BF70
:1035000000F147021278012AF7D10222082905D0DA
:10351000042907D180F8452006E000BF80F8462046
:1035200002E000BF80F84720026801F00F0004218C
:1035300001FA00F0116A81431162116A08431062B6
:103540004DF6FF70516CC4F20000824241F400401D
:10355000506419DC40F2FF70C4F2000082422BDD9F
:1035600040F60000C4F2000082423BD040F600402A
:10357000C4F20000824235D041F60000C4F20000DF
:1035800082422FD03AE000BF4FF6FF70C4F2000035
:1035900082421BDD0020C4F20100824222D044F2AC
:1035A0000000C4F2010082421CD040F20040C4F28C
:1035B0000100824216D021E0B2F1804F12D040F2D9
:1035C0000040C4F2000082420CD017E04EF200002E
:1035D000C4F20000824205D04EF20040C4F2000066
:1035E00082420BD107219068C0F201010140002006
:1035F000062918BFB1F5803F00D17047106840F030
:10360000010010600020704760B310B5044690F8C8
:103610003D0028B9002084F83C00204600F024F842
:10362000022084F83D002068211D01F089FD012061
:1036300084F8480084F83E0084F83F0084F8400095
:1036400084F8410084F8420084F8430084F8440080
:1036500084F8450084F8460084F8470084F83D006B
:10366000002010BD0120704780B586B040F6FF7184
:103670000068C4F20001884220DD41F20001C4F27A
:10368000000188423ED04EF20001C4F2000188429F
:1036900048D00021C4F2010188426CD144F2E840D4
:1036A000C5F60200816841F001018160806800F088
:1036B00001000190019806B080BD00BF40F20041BA
:1036C000C4F20001884259D040F60041C4F2000122
:1036D000884250D144F2E8400022C5F60200016859
:1036E00041F0080101600068002100F0080001902D
:1036F00001983220FEF7ECFB322006B0BDE8804096
:10370000FEF7D2BB44F2E840C5F60200016841F082
:1037100010010160006800F010000190019806B0EF
:1037200080BD00BF44F2E840C5F60200416841F0A8
:1037300080714160416801F080710191019950F8F8
:10374000081C41F0020140F8081C50F8080C01A9BF
:1037500000F00200019001980420019002200290E4
:103760000020CDE903000D20059040F20040C5F691
:103770000200FEF7C1F906B080BD00BF44F2E84088
:103780000022C5F60200016841F0020101600068F4
:10379000012100F00200019001981D20FEF798FB26
:1037A0001D2006B0BDE88040FEF77EBB0000000093
:1037B00090F83D10012923D1022180F83D100168C5
:1037C0004DF6FF70C4F2000081421BDC40F2FF7036
:1037D000C4F2000081422DDD40F60000C4F200007A
:1037E00081423DD040F60040C4F20000814237D013
:1037F00041F60000C4F20000814231D03CE000BF3D
:10380000012070474FF6FF70C4F2000081421BDDBB
:103810000020C4F20100814222D044F20000C4F230
:10382000010081421CD040F20040C4F201008142FC
:1038300016D021E0B1F1804F12D040F20040C4F226
:10384000000081420CD017E04EF20000C4F20000EC
:10385000814205D04EF20040C4F2000081420BD1FB
:1038600007228868C0F2010202400020062A18BF21
:10387000B2F5803F00D17047086840F00100086051
:10388000002070470000000090F83D10012927D16A
:10389000022180F83D1001684DF6FF70C4F200006F
:1038A0008142C86840F00100C8601BDC40F2FF7034
:1038B000C4F2000081422DDD40F60000C4F2000099
:1038C00081423DD040F60040C4F20000814237D032
:1038D00041F60000C4F20000814231D03CE000BF5C
:1038E000012070474FF6FF70C4F2000081421BDDDB
:1038F0000020C4F20100814222D044F20000C4F250
:10390000010081421CD040F20040C4F2010081421B
:1039100016D021E0B1F1804F12D040F20040C4F245
:10392000000081420CD017E04EF20000C4F200000B
:10393000814205D04EF20040C4F2000081420BD11A
:1039400007228868C0F2010202400020062A18BF40
:10395000B2F5803F00D17047086840F00100086070
:10396000002070470000000010B590F83C20012AAC
:103970004FF0020200F0B78080F83D208822D0F896
:1039800000E0CFF6CE72DEF808301A40CEF80820FC
:103990000B686F2B0EDDB3F1101F39DAB3F5005F42
:1039A00048DA702B00F0A280B3F5805F00F09480BD
:1039B000E4E000BF2F2B35DD4F2B41DC302B00F036
:1039C0007F80402B40F0DA8043F6FF72D1F804C0CC
:1039D000C4F20102C968DEF820309645DEF82020E6
:1039E00022F00102CEF8202040F3CA8044F2000207
:1039F000C4F20102964500F0CE8044F60002C4F203
:103A00000102964500F0C78044F20042BFE000BFCB
:103A10002F21C0F210018B4248DCB3F1101F4FD0B0
:103A2000202149E0002B18BF102B49D0202B47D074
:103A3000A4E000BF6ED0B3F5801F41D09EE000BF70
:103A4000502B7BD0602B40F0998040F200444EF424
:103A50008062C4F20104D1F804C0C968DEF82030E5
:103A6000A242DEF8202022F01002CEF8202002BF71
:103A7000DEF8202022F04002CEF82020DEF81820C8
:103A800022F4704242EA013123F0A002CEF818106D
:103A900042EA0C11CEF820104FF68872DEF80810BA
:103AA000CFF6CF721140673114E000BF3021C0F271
:103AB00010018B4204D04021C0F210018B425DD135
:103AC0004FF68872DEF80810CFF6CF721140194316
:103AD00041F00701CEF808100022012180F83D10C6
:103AE000002180F83C10104610BD00BFD1E901C391
:103AF000C968DEF8082043EA0C0322F47F4243EA57
:103B000001211143CEF80810DEF8081041F07701CA
:103B1000E0E700BFD1E901C3C968DEF8082043EA45
:103B20000C0322F47F4243EA01211143CEF808102E
:103B3000DEF8081041F48041CCE700BF43F6FF7285
:103B4000D1F804C0C4F20102C968DEF820309645FD
:103B5000DEF8202022F00102CEF8202038DD44F2E9
:103B60000002C4F2010296453DD044F60002C4F2C0
:103B70000102964537D044F2004230E00122ACE722
:103B80000022C4F20102964505D040F20042C4F280
:103B90000102964505D1DEF8202022F00402CEF87D
:103BA0002020DEF8182022F0F00242EA011123F072
:103BB0000A02CEF8181042EA0C01CEF820104FF697
:103BC0008872DEF80810CFF6CF721140473181E7D6
:103BD0000022C4F20102964505D040F20042C4F230
:103BE0000102964505D1DEF8202022F00402CEF82D
:103BF0002020DEF8182022F0F00242EA011123F022
:103C00000A02CEF8181042EA0C01CEF820104FF646
:103C10008872DEF80810CFF6CF721140573159E79D
:103C2000002857D02DE9F04381B0044690F83D00BC
:103C30000D4628B9002084F83C00204600F04CF8DE
:103C4000022084F83D0020684BF6F872CFF6FE7231
:103C5000816811408160211D01F072FA20684FF6E1
:103C6000FF79D0F808808269D0F820C0AF69D5E923
:103C7000026122EA090246EA07264FF6FC47BE43E4
:103C8000EF6911432A6931432E6A41EA07216F69BE
:103C9000D5E9003E41EA02112CF0AA0242EA0E02E6
:103CA00043EA080341EA06318360816142EA071171
:103CB0000162012084F8480084F83E0084F83F0047
:103CC00084F8440084F8450084F83D00002001B0E9
:103CD000BDE8F0830120704780B586B00068B0F180
:103CE000804F01D006B080BD44F2E040C5F602002E
:103CF000816841F001018160816801F00101019159
:103D00000199016841F001010160006801A900F01A
:103D100001000190019803200190022002900020F0
:103D2000CDE90300012005900020C5F60200FDF753
:103D3000E3FE1C2000210022FEF7CAF81C20FEF73B
:103D4000B3F806B080BD000080B590F83E2004298D
:103D500090F83F3090F844E090F845C00AD0B9B9E7
:103D6000012A4FF0010208BFBEF1010F34D0104606
:103D700080BD00BF0122012B08BFBCF1010FF6D1AD
:103D8000022180F83F1080F84510006820E000BF55
:103D9000012A4FF0010208BF012BE8D1BEF1010F4B
:103DA00008BFBCF1010FE2D14FF0020280F83E20C3
:103DB00080F83F2080F8442080F8452089B10068D1
:103DC000016A21F001010162016A41F00101016211
:103DD00010216FF0100208E0022180F83E1080F8F8
:103DE0004410006801216FF00102036A1A40026268
:103DF000026A114301620168002241F00101016081
:103E0000104680BD0000000040F600020168C4F2C8
:103E10000002914218BF7047007F012802D100F0D4
:103E200077BC00BF70470000F0B581B00446006861
:103E3000C5680669B10717D515F0020114D06FF0F7
:103E400002010161012121778069800704D02046A9
:103E5000FFF7DAFF06E000BF204600F09DF820469D
:103E600000F03AFB00202077700719D515F0040008
:103E700016D020686FF0040101610221217780696A
:103E800010F4407F04D02046FFF7BEFF06E000BFDD
:103E9000204600F081F8204600F01EFB002020772D
:103EA000300717D515F0080014D020686FF008010E
:103EB000016104212177C069800703D02046FFF704
:103EC000A3FF05E0204600F067F8204600F004FB61
:103ED00000202077F00619D515F0100016D02068C4
:103EE0006FF01001016108212177C06910F4407F53
:103EF00004D02046FFF788FF06E000BF204600F010
:103F00004BF8204600F0E8FA00202077F00718BFB1
:103F100015F0010006D020686FF001010161204614
:103F200000F0AEFB05F0800716F4025F18BF002F0B
:103F300002D1F00509D410E020686FF4025101614C
:103F40002046FFF7BDF8F00507D537B120686FF4BC
:103F5000807101612046FFF7AFF8700609D515F0B2
:103F6000400006D020686FF040010161204600F05B
:103F7000CBFBB0060CD515F0200009D020686FF0FF
:103F800020010161204601B0BDE8F040FFF79CB878
:103F900001B0F0BD0000000070470000000000000C
:103FA0002DE9F04190F83C30012B03D10220BDE80F
:103FB000F08100BF4FEAB202052A31D8DFE812F0E3
:103FC000060038007800B800DE000401036843F6FC
:103FD000FF76C4F201061C6AB3421A6A24F0020496
:103FE00022F001021A621A46D3F804E052F818CF00
:103FF0008D6844EA0504D1F8008040F30B8144F257
:104000000007C4F20107BB4200F00F8144F600072D
:10401000C4F20107BB4200F0088144F2004700E10E
:104020000121002280F83C200846BDE8F08100BF55
:10403000036840F2004843F48066C4F201081F6A36
:1040400046451A6A27F0200722F010021A621A4623
:104050005D6852F818CF8C68D1F800E047EA041484
:1040600008D11E6A24F0800426F040061E62CE6845
:1040700044EA061443F6FF76C4F20106B34240F365
:10408000F18044F20006C4F20106B34200F0F18070
:1040900044F60006C4F20106B34200F0EA8044F29E
:1040A0000046C4F20106B34200F0E380E8E000BF3E
:1040B000036840F2004843F48066C4F201081F6AB6
:1040C00046451A6A27F4007722F480721A621A466B
:1040D0005D6852F81CCF8C68D1F800E047EA0424F0
:1040E00008D11E6A24F4006426F480661E62CE683D
:1040F00044EA062443F6FF76C4F20106B34240F3D5
:10410000D78044F20006C4F20106B34200F0D78023
:1041100044F60006C4F20106B34200F0D08044F237
:104120000046C4F20106B34200F0C980CEE000BFF1
:10413000036843F6FF77C4F20107D3F820C0BB42FF
:104140001A6A22F480521A621A465C6852F81C6F8E
:104150000D68D1F808E040F3D18044F20007C4F2C2
:104160000107BB4200F0D58044F60007C4F2010706
:10417000BB4200F0CE8044F20047C6E0036843F63D
:10418000FF77C4F20107D3F820C0BB421A6A22F4B9
:1041900080321A621A465C6852F8546F0D68D1F882
:1041A00008E040F3D58044F20007C4F20107BB42A7
:1041B00000F0D98044F60007C4F20107BB4200F0CA
:1041C000D28044F20047CAE0036843F6FF77C4F2A6
:1041D0000107D3F820C0BB421A6A22F480121A6287
:1041E0001A465C6852F8546F0D68D1F808E040F345
:1041F000DB8044F20007C4F20107BB4200F0DF801D
:1042000044F60007C4F20107BB4200F0D88044F234
:104210000047D0E00027C4F20107BB4205D040F2BE
:104220000047C4F20107BB4207D11F6A24F008040B
:1042300027F004071F62CF683C43B34240F3E2809B
:1042400044F20006C4F20106B34200F0E68044F6F0
:104250000006C4F20106B34200F0DF8044F20046DB
:10426000D7E000BF0026C4F20106B34201D04345A7
:1042700006D1D1E905673E4325F4406545EA860548
:1042800048F6FF465D60CFF6FF660CEA060747EA90
:104290000E279F614F6809699F631C629F6947F4FD
:1042A00000679F619F6927F480679F61A7E000BF57
:1042B0000026C4F20106B34201D0434506D1D1E93C
:1042C00005673E4325F4405545EA06154FF68C76C2
:1042D0005D60CFF6FE760CEA060747EA0E07DF615F
:1042E0004F680969DF631C62DF6947F00807DF6117
:1042F000DF6927F00407DF61ADE000BF0027C4F2EB
:104300000107BB4205D040F20047C4F20107BB429F
:1043100004D14F6924F4804444EA871448F6FF47E7
:104320005C60CFF6FF673E402CF4005746EA052458
:10433000DC614E6809691E6447EA0E371F62DF6957
:1043400047F40067DF61DF6927F48067DF6156E0CB
:104350000027C4F20107BB4205D040F20047C4F277
:104360000107BB4204D14F6924F4803444EA072496
:104370004FF68C775C60CFF6FE7703373E402CF427
:10438000003746EA05045C654E6809699E6547EAA0
:104390000E471F625F6D47F008075F655F6D27F08E
:1043A00004075F6557E000BF0027C4F20107BB4266
:1043B00005D040F20047C4F20107BB4204D14F6967
:1043C00024F4802444EA872448F6FF475C60CFF653
:1043D000FF6707F540773E402CF4001746EA0524B6
:1043E0005C654E680969DE6547EA0E571F625F6DBE
:1043F00047F400675F655F6D27F480675F650902BA
:1044000029E000BF0026C4F20106B34205D040F205
:104410000046C4F20106B34206D12EF44077D1E93A
:104420000565374347EA050E4FF68C75C3F804E07F
:10443000CFF6FE750CEA050747EA08079F614F684B
:1044400009695F631C629F6947F008079F619F6964
:1044500027F004079F6113681943116000210022AF
:1044600080F83C200846BDE8F08100000000000014
:1044700060B310B5044690F83D0028B9002084F8D8
:104480003C00204600F024F8022084F83D0020681B
:10449000211D00F055FE012084F8480084F83E00FC
:1044A00084F83F0084F8400084F8410084F842001A
:1044B00084F8430084F8440084F8450084F84600FA
:1044C00084F8470084F83D00002010BD01207047AB
:1044D000704700000000000070470000000000006E
:1044E00071B10A1F4FEAB202032A11D8DFE802F0C5
:1044F00002161E2400F13F031B78012B13D120E08C
:1045000090F83E20012A0ED1022280F83E2032E0AF
:1045100000F143031B78012B05D112E000F14003A9
:104520001B78012B0DD00120704700BF00F1410323
:104530001B78012B05D0F6E700F142031B78012B15
:10454000F1D1032A08D8DFE802F0030B0F1300BFF4
:10455000022280F83F200EE0022280F843200AE089
:10456000022280F8402006E0022280F8412002E08A
:10457000022280F84220026801F01F00012101FAA6
:1045800000F0116A814311624EF2FF31C4F2000162
:104590008A42116A40EA0100106215DC40F6FF30E1
:1045A000C4F20000824227DCB2F1804F4ED040F2CC
:1045B0000040C4F20000824248D040F60000C4F23D
:1045C0000000824242D053E043F6FF700021C4F263
:1045D0000100C4F20101824244F20000C4F2010071
:1045E0001EDC4EF20043C4F200039A422ED08A42EF
:1045F00024D040F200431DE040F60040C4F2000029
:10460000824223D041F60000C4F2000082421DD055
:104610004EF20000C4F20000824217D028E000BF32
:1046200082420BD044F60003C4F201039A4205D043
:1046300044F20043C4F201039A4219D1536C8A42F6
:1046400043F40041516418BF82420BD107219068A6
:10465000C0F2010101400020062918BFB1F5803FDA
:1046600006D1704740F20040C4F201008242EDD012
:10467000106840F00100106000207047000000004A
:10468000B0B540F600410068C4F20001884237D05E
:1046900040F20041C4F20001884218BFB0BD41F2AF
:1046A00000444FF40071C5F6020401222046FDF7D4
:1046B00013FB00F0E9FB40F21805C2F2004585ED5E
:1046C000010A00F005FC85ED020A00F009FC85ED09
:1046D000030A00F021F8287000F0CAFB6880FBF79D
:1046E000B3FF85ED040AFBF7D3FF4FF400710022FE
:1046F00085ED050A2046BDE8B040FDF7EDBA00BFE4
:10470000BDE8B040FCF770B8704700000000000042
:1047100000F00AB80000000040F23000C2F2004091
:10472000007970470000000070B52DED028B40F657
:1047300000444FF48051C5F602042046FDF7C4FA48
:1047400005464FF400512046FDF7BEFA06464FF4E9
:1047500080412046FDF7B8FA40F230047100C2F201
:10476000004441EA85010843607160790138C0B2B4
:10477000052805D82BA1085C2071207920B926E0F6
:1047800000202071207910B320799FED281A9FED29
:10479000288A0138F0EE480A00EE100AB8EEC00A86
:1047A00020EE010A84ED020A94ED020A00F0DDFE1B
:1047B00084ED020A94ED020AB5EE400AF1EE10FA19
:1047C00005DA94ED020A30EE080A84ED020A207D33
:1047D00010B1BDEC028B70BD20790028F9D0B5EE88
:1047E000000A94ED021A9FED128AF0EE480A21EEBB
:1047F000000A84ED030A94ED030A00F0B6FE84ED8E
:10480000030A94ED030AB5EE400AF1EE10FAE0DA7D
:1048100094ED030A30EE080A84ED030ABDEC028B26
:1048200070BD00BF0503040106020000920A863F26
:10483000DB0FC94000000000FEE7000000000000A0
:1048400010B594B001A8402100241394CDE911447F
:10485000FBF7C5FD40F27C0042F20001C2F20040CD
:10486000C4F2020101604FF48031C0E90114046117
:104870000421416101210483C16180F82040046367
:10488000C0E90F4480F844408164FCF739FF08B167
:10489000FCF736F8052011A9CDE9110440F27C009F
:1048A0001394C2F20040FCF767FD08B1FCF728F84A
:1048B00040F27C04C2F200442046FCF73DF804209C
:1048C00040F2FF71C0F660000190092002900020C4
:1048D000039004910421CDE905108DF825000121F4
:1048E0000A91B821ADF82C008DF82E000C91802192
:1048F0000D9101A98DF838002046FCF739F808B170
:10490000FBF7FEFF14B010BDF0B591B001A828214F
:104910001830FBF764FD40F2EC0042F20011C2F2E5
:104920000040C4F202010025042701604FF48031E9
:10493000416001268560056147610583C66180F895
:1049400020500563C0E90F5580F844508664FCF799
:10495000D7FE08B1FBF7D4FF40F2EC04C2F20044EA
:104960002046FBF7E9FF042001A9C0F66000019092
:1049700009200695CDE9020540F2FF708DF825501B
:10498000CDE9040720460A96ADF82C508DF82E503C
:104990008DF83850FBF7ECFF08B1FBF7B1FF11B011
:1049A000F0BD00000000000070B586B044F2E040A9
:1049B0000025C5F60200059541F200440022016879
:1049C000C5F6020441F02001016001684FF4007651
:1049D00001F0200100910099016841F0800101601F
:1049E000016801F0800100910099016841F0010126
:1049F0000160016801F0010100910099016841F036
:104A000002010160016801F0020100910099016852
:104A100041F010010160016801F01001009100995E
:104A2000016841F00801016000684FF4007100F076
:104A30000800009000982046FDF74EF9012001A9DA
:104A4000CDE90205204601960495FDF755F806B01C
:104A500070BD000000000000B0B5A0B000256846A1
:104A6000342100241A94C4F20105CDE918441694A7
:104A7000CDE91444CDE91244CDE91044CDE90E440A
:104A80000D94FBF7ACFC40F25C106021C2F20040D8
:104A9000C0E90054816041F6DB21C0E90314042120
:104AA000416180218161FEF7AFFD08B1FBF728FF6E
:104AB0004FF48050179040F25C1017A9C2F20040EA
:104AC000FEF752FF08B1FBF71BFF40F25C10C2F289
:104AD0000040FFF7CDFC08B1FBF712FF2020149037
:104AE00040F25C1014A9C2F200400024CDE9154444
:104AF000FEF77AFC08B1FBF703FF60200DA9CDE9B2
:104B00000D0440F25C100022C2F200401394CDE983
:104B10000F44CDE91144FFF743FA08B1FBF7F0FE6B
:104B200040F25C100DA9C2F200400422FFF738FAEF
:104B300008B1FBF7E5FE40F25C100DA9C2F200409F
:104B40000822FFF72DFA08B1FBF7DAFE40F25C14F9
:104B50000020C2F200440290CDE9000064210890D8
:104B6000CDE903104FF400510C90CDE905104FF042
:104B70000071CDE9091069462046FEF7A9FA08B18F
:104B8000FBF7BEFE2068A84202D020B0B0BD00BF37
:104B900044F2E040C5F60200016841F010010160F6
:104BA00000681BA900F010001B901B984FF47C506C
:104BB0001B9002201C900020CDE91D0001201F90B9
:104BC00041F20000C5F60200FCF796FF20B0B0BD30
:104BD00010B588B040F2F4104EF20001C2F200406D
:104BE00000240394C4F20001CDE90144C0E900149B
:104BF00084604FF0FF31C0E903148461FEF704FDC7
:104C000008B1FBF77DFE4FF4005004A9CDE9040480
:104C100040F2F410C2F20040CDE90644FEF7A4FED3
:104C200008B1FBF76DFE00200190039040F2F410F4
:104C3000C2F2004001A9FEF7D7FB08B1FBF760FE06
:104C400008B010BD0000000010B58CB040F2A810F4
:104C50000024C2F200404FF080410194C0E90014EA
:104C600042F20F718460C0E9031403218461CDE92D
:104C7000031401210B94CDE90514CDE9091403A90E
:104C8000CDE90744FEF7CCFF08B1FBF739FE40F24F
:104C9000A8106946C2F2004000940294FEF7A4FBFB
:104CA00008B1FBF72DFE0CB010BD000000000000A5
:104CB00080B588B040F2402040F20042C2F200408D
:104CC00000210791C4F20002CDE9051102910260B2
:104CD0004FF48972C0E9012164228161C0E9032196
:104CE000FEF792FC08B1FBF70BFE4FF480500490E6
:104CF00040F2402004A9C2F20040FEF735FE08B1A0
:104D0000FBF7FEFD00200190039040F24020C2F22C
:104D1000004001A9FEF768FB08B1FBF7F1FD08B000
:104D200080BD00000000000010B588B040F28C206B
:104D300040F60001C2F200400024C4F200010294D7
:104D4000C0E900144FF6FF718460C0E9031404A9A0
:104D50008461CDE90444CDE90644FEF71DFA08B1AB
:104D6000FBF7CEFD5020019040F28C2001A9C2F249
:104D700000400394FEF738FB08B1FBF7C1FD08B013
:104D800010BD00000000000080B588B040F2D820BF
:104D900040F60042C2F2004000210791C4F2000236
:104DA000CDE90511029102604FF48972C0E9012139
:104DB00063228161C0E90321FEF726FC08B1FBF7FD
:104DC0009FFD4FF48050049040F2D82004A9C2F215
:104DD0000040FEF7C9FD08B1FBF792FD20200190CD
:104DE0000020039040F2D82001A9C2F20040FEF753
:104DF000FBFA08B1FBF784FD08B080BD000000009D
:104E000010B584B040F2243041F20001C2F20040FB
:104E100000240294C4F2000101604FF48971C0E9DA
:104E200001146321C1608461FEF7EEFB08B1FBF75A
:104E300067FD2020019040F2243001A9C2F2004019
:104E40000394FEF7D1FA08B1FBF75AFD04B010BD88
:104E5000FEE7000000000000FEE700000000000088
:104E600070470000000000007047000000000000D4
:104E700040F23000C2F20040406BC0B27047000008
:104E8000704700000000000080B52DED028B40F25D
:104E90003000B1EE000AC2F200409FED0B8AF0EE46
:104EA000480A90ED031A21EE000A00F05EFB30EE96
:104EB000081AB5EE400AF1EE10FAB8BFB0EE410A9A
:104EC000BDEC028B80BD00BFDB0FC94000000000BD
:104ED00040F23000C2F2004090ED030A704700003B
:104EE00040F23000C2F2004090ED040A704700002A
:104EF000B0B540F28C20C2F20040FEF7F5F940F266
:104F0000A8143C21C2F200442046FEF71DFF40F2E7
:104F1000F410C2F20040FEF74BFC40F2D820C2F27F
:104F20000040FEF7B1FC40F230054BF21770C2F2C0
:104F30000045C3F6D1002860FFF7F6FB0020C5E965
:104F40000600C5E908002168496AE9622875E86039
:104F50002861B0BD00000000FCF7CEBE00000000DC
:104F6000B0B59CB044F61804022000251195CDE997
:104F70000F55CDE90D55CDE90B550895C5F6020441
:104F8000CDE90655CDE90455CDE902550195FCF76B
:104F9000DFFF0095206820F440402060206800F486
:104FA0004040009000982068800409D42068800464
:104FB0005CBF20685FEA804002D420688004F2D59C
:104FC000012009902C224FF48031CDE915200C20CE
:104FD000199009A80A9102211491CDE91211CDE985
:104FE00017110024CDE91A44FDF7C2FD10B172B6C5
:104FF000FEE700BF3F20019003204FF48061CDE920
:105000000204082004904020CDE90500CDE90710F6
:1050100001A80321FDF794FB10B172B6FEE700BFB3
:105020001CB0B0BD000000004EF6885042F2000CEB
:10503000CEF20000C5F2002C026842F47002026059
:10504000DCF8000000F00F00062806D8DCF80000AD
:10505000072262F30300CCF8000044F200404EF651
:105060007F51C5F60200CEF6F621026842F0010239
:10507000026000220261036819400160DCF8001040
:10508000090706D5DCF80010072363F30301CCF809
:10509000001040F200218261C261C0F2022102626E
:1050A00081620021C0F2FF11C16240F28021C0F292
:1050B0000111016342638163C26301644264016858
:1050C00021F4802101600266D0F8D410C90448BFE1
:1050D0007047D0F8D41043F2D20241F48051C0F8A6
:1050E000D41044F20001C5F200210A60D0F8D410B7
:1050F00021F48051C0F8D410704700000000000077
:1051000040F2A810C2F20040FEF78EBE0000000080
:1051100040F24020C2F20040FEF786BE00000000D0
:1051200040F28C20C2F20040FEF77EBE000000007C
:1051300040F2D820C2F20040FEF776BE0000000028
:1051400010B540F6FF32D0F800E0C4F20002904201
:1051500010DCB0F1804F1ED040F20043C4F20003D7
:10516000984218D040F60003C4F20003984212D0CF
:1051700016E000BF40F60043C4F2000398420AD094
:1051800040F20043C4F20103984204D00023C4F269
:105190000103984204D12EF070024B6843EA020EDC
:1051A0004EF2FF3343F6FF7CC4F20003C4F2010C5D
:1051B000984213DD60452BDC4EF20043C4F200033D
:1051C000984242D00023C4F2010398423DD040F2FD
:1051D0000043C4F20103984237D03BE040F2FF7332
:1051E000C4F20003984227DD40F60003C4F2000336
:1051F00098422AD040F60043C4F20003984224D0DB
:105200004EF20003C4F2000398421ED022E000BF19
:1052100044F20003C4F20103984216D044F600039E
:10522000C4F20103984210D044F20043C4F20103D7
:1052300098420AD00EE000BFB0F1804F05D040F296
:105240000043C4F20003984204D12EF44072CB68AC
:1052500043EA020E4B6960450A688C68C462826248
:1052600012DD44F20002C4F20102904217D044F66B
:105270000002C4F20102904211D044F20042C4F292
:10528000010290420BD00CE00022C4F201029042D5
:1052900005D040F20042C4F20102904201D10969F6
:1052A0000163016841F004010160012141612EF0B8
:1052B00080011943016010BD01F01F01012303FAB1
:1052C00001FC036A23EA0C03036202FA01F1026A99
:1052D000114301627047000070B5036A40F2004656
:1052E000026A40F4806422F0100202624268D0F840
:1052F00018C08D68C4F2010623F02003B442D1F82F
:1053000000E043EA051308D1046A23F0800324F087
:1053100040040462CC6843EA041343F6FF74C4F209
:105320000104A04212DD44F20004C4F20104A042D0
:1053300013D044F60004C4F20104A0420DD044F29C
:105340000044C4F20104A04207D00DE00024C4F2DE
:105350000104A04201D0B04206D1D1E905452C4359
:1053600022F4406242EA840248F6FF444260CFF6EB
:10537000FF640CEA040646EA0E22826149688163F2
:10538000036270BD0000000010B543F6FF7ED0F848
:1053900020C0C4F2010E7045D0F820E02EF0010EBE
:1053A000C0F820E012DD44F2000EC4F2010E704598
:1053B00018D044F6000EC4F2010E704512D044F22B
:1053C000004EC4F2010E70450CD011E040F2000E08
:1053D000C4F2010E704505D040F2004EC4F2010E39
:1053E000704505D1D0F820E02EF0040EC0F820E082
:1053F0004DF6FF7EC4F2000E7045D0F818E019DCBF
:1054000040F2FF74C4F20004A0422BDD40F6000419
:10541000C4F20004A0423BD040F60044C4F20004B1
:10542000A04235D041F60004C4F20004A0422FD0BF
:105430003CE000BF4FF6FF74C4F20004A0421BDD45
:105440000024C4F20104A04222D044F20004C4F2B9
:105450000104A0421CD040F20044C4F20104A04266
:1054600016D023E0B0F1804F12D040F20044C4F2D5
:105470000004A0420CD019E04EF20004C4F2000473
:10548000A04205D04EF20044C4F20004A0420DD167
:105490002EF00304224363F307122CF00A0301F0F9
:1054A0000A0182611944016210BD00BF4EF0010281
:1054B000F1E7000000000000FEE70000000000002F
:1054C00084B001200090FCF7B3FC0020019048F26A
:1054D0001F70029040F2011003906846FCF778FCC0
:1054E0000420FCF7B5FCFCF717FCFFF739FDFFF7CC
:1054F0005BFAFFF7B1FAFFF7DBFBFFF7A5FBFFF75E
:1055000013FCFFF741FCFFF763FBFFF799F9FFF787
:10551000FBF9FFF775FC40F25C140021C2F2004475
:105520002046FEF7DDFF04212046FEF7D9FF0821C3
:105530002046FEF7D5FF00212046FDF7C5FF0421D8
:105540002046FDF7C1FF08212046FDF7BDFF40F2D0
:105550004020C2F20040FEF797F9FFF7C9FCFFF7C1
:10556000D7F8FBF7B9F800BFFEE710B52DED028BB9
:10557000F0EE408A18EE900AB0EE608A20F000400B
:10558000C0F1FF40C00F07D118EE100A20F0004014
:10559000C0F1FF40C00F2BD018EE101A18EE900A81
:1055A000FAF794FF00EE100A10EE100A6FEAD050DE
:1055B00010F0FF0F04BFBDEC028B10BD18EE900A77
:1055C00000F0004110EE100A00F00040814204BFDC
:1055D000BDEC028B10BD18EE101A10EE100ABDECD7
:1055E000028B61F31E0000EE900A30EE600A10BDDF
:1055F00018EE900A4FF07F41B1EB400F1CBF18EE40
:10560000100A5FEA4000C7D1012000F01FF8BDEC8E
:10561000028BBDE8104000F001B80000DFED020A87
:1056200080EEA00A704700000000000002E008C8F9
:10563000121F08C1002AFAD170477047002001E00C
:1056400001C1121F002AFBD1704700000149086008
:105650007047000000000024000000000102030465
:1056600001020304060708099856000800000024F8
:10567000180000002C560008985600080000002072
:10568000000400003C560008B05600081800002432
:105690005C0300003C560008000000000100000010
:1056A000100000000090D0030090D0030000000024
:04000005080002CD20
:00000001FF
