:020000040800F2
:10000000D8050020E102000811960008E98D0008DB
:1000100081950008B909000869B5000800000000D2
:10002000000000000000000000000000819C0008AB
:10003000210E00080000000039970008219E0008EA
:10004000FF020008FF020008FF020008FF0200088C
:10005000FF02000891990008FF020008FF02000853
:10006000FF020008FF020008FF020008C1090008A3
:10007000D1090008FF020008FF020008FF02000883
:10008000FF020008FF02000899090008FF020008AB
:10009000FF020008FF020008FF020008FF0200083C
:1000A000FF020008FF020008FF020008FF0200082C
:1000B000FF020008C99F0008D99F0008FF0200083E
:1000C000FF020008FF020008FF020008FF0200080C
:1000D000FF02000839B50008FF020008FF0200080F
:1000E000FF020008FF0200080000000009A000084D
:1000F000FF020008FF020008FF020008FF020008DC
:10010000FF020008FF020008E99F0008FF02000844
:10011000FF020008FF020008F99F0008FF02000824
:10012000FF020008FF020008FF020008FF020008AB
:10013000FF020008FF020008FF020008FF0200089B
:1001400000000000000000000000000000000000AF
:10015000FF020008FF020008FF020008FF0200087B
:10016000FF020008FF020008FF020008FF0200086B
:10017000FF020008FF020008FF0200080000000064
:10018000FF020008FF020008FF020008FF0200084B
:10019000FF020008FF020008FF020008FF0200083B
:1001A000FF020008FF020008FF0200080000000034
:1001B000FF020008FF020008FF020008FF0200081B
:1001C000FF020008FF02000800000000000000001D
:1001D0000000000000000000FF0200080000000016
:1001E000000000000000000000000000000000000F
:1001F0000000000000000000FF020008FF020008ED
:10020000FF020008FF02000800000000FF020008D3
:10021000FF020008FF020008FF020008FF020008BA
:10022000FF02000800000000FF02000800000000BC
:10023000FF020008FF02000800000000FF020008A3
:10024000FF020008FF020008FF020008FF0200088A
:10025000FF020008FF020008FF020008FF0200087A
:10026000FF020008FF020008FF020008FF0200086A
:10027000FF020008FF020008FF0200080000000063
:10028000FF020008FF020008FF020008FF0200084A
:1002900000000000FF020008FF020008000000004C
:1002A00000000000FF020008FF020008FF02000833
:1002B000FF020008FF020008FF020008FF0200081A
:1002C000FF020008FF020008FF020008DFF80CD060
:1002D00000F066F90048004789B60008D8050020FC
:1002E000074880470748804707480047FEE7FEE782
:1002F000FEE7FEE7FEE7FEE7FEE7FEE7FEE7FEE7D6
:1003000019110008F19E0008CD0200082DE9F05FE8
:100310000546002092469B46884606468146402474
:100320001BE0284641464746224600F06BF85346FC
:100330005A46C01A914110D311461846224600F081
:1003400052F82D1A67EB01084F4622460120002182
:1003500000F049F817EB00094E41201EA4F10104FA
:10036000DFDC484631462A464346BDE8F09FD2B21C
:1003700001E000F8012B491EFBD270470022F6E78E
:1003800010B513460A4604461946FFF7F0FF20460B
:1003900010BDF0B4CA17CB0F50405140C61841F100
:1003A00000054FEAC372314628004FF0960303D090
:1003B000B623F0BC00F03FB830460021F9E73EB567
:1003C000CA17CB0F002450405140C0186141DA07D2
:1003D00040F233430094CDE901232246234600F046
:1003E00090F803B030BD202A04DB203A00FA02F175
:1003F000002070479140C2F1200320FA03F3194313
:1004000090407047202A04DB203A21FA02F00021B4
:10041000704721FA02F3D040C2F120029140084314
:10042000194670470029A8BF7047401C490008BF03
:1004300020F00100704710B4B0FA80FC00FA0CF014
:1004400050EA010404BF10BC704749B1CCF120044C
:1004500021FA04F411FA0CF118BF012121430843D9
:10046000A3EB0C01CB1D4FEA00614FEA102042BF05
:10047000002010BC704700EBC35010440029A4BFFB
:1004800010BC7047401C490008BF20F0010010BCA0
:100490007047F0B400F0004221F0004120F000402D
:1004A000CE0DC30DC1F3160141F40001C0F31600D7
:1004B0004C42154640F40000761E09E010EB440063
:1004C00002D582F0004240428842F7D840005B1ECD
:1004D000B342F9DA18B1F0BC0021FFF7ACBF2846EF
:1004E000F0BC704710B5141E73F1000408DA401C0C
:1004F00041F1000192185B411A4301D120F0010043
:1005000010BD2DE9F04D92469B4611B1B1FA81F232
:1005100002E0B0FA80F220329046FFF764FF044612
:100520000F4640EA0A0041EA0B0153465A46084387
:1005300013D0114653EA010019D0C8F140025046C9
:10054000FFF760FF05460E46504659464246FFF704
:100550004AFF084305D0012004E020463946BDE8A3
:10056000F08D0020054346EAE0762C4337430A9895
:100570006305E40AA0EB08000022FD0A44EA4754A0
:100580000A3002D500200146E9E70105101969414A
:10059000DDE9084500196941BDE8F04DA2E700001A
:1005A000064C074D06E0E06840F0010394E80700C0
:1005B00098471034AC42F6D3FFF78CFEB0CC00085D
:1005C000F0CC00080000000010B50446006842F2BC
:1005D000001140F48070C4F20201884218D142F246
:1005E0000830C4F20200006810F4403F18D005F053
:1005F000B7F96168B1F5803F05D0B1F5403F2BD028
:10060000B1F5003F29D1090CB0FBF1F025E000BFA6
:1006100046F20830C5F60200006810F4403FE6D10B
:100620004FF40020002104F00FF96168A1F5802249
:100630004FEAB2420A2A10D8DFE802F006060606A0
:1006400006063C3E404244006FF0010202EA51417E
:10065000B0FBF1F001E000BF80084BF62141C0F291
:10066000BE01884206D82068816821F4407181600B
:1006700010BD00BF47F64101C0F27D11884207D886
:1006800020680122816862F30921816010BD00BFEA
:1006900021684FF28102C0F2FA229042886805D8A0
:1006A000022262F30920886010BD00BF40F4407050
:1006B000886010BD0009D0E74009CEE78009CCE78B
:1006C000C009CAE7000AC8E7B0B5016804468A68ED
:1006D0008868C0074FF0000031D012F0020218BF46
:1006E000B0BD886800F00D0001281FD14FF6C07220
:1006F0008868C7F6FF7210400230886003200860E7
:1007000003F066FD21688968C90701D10020B0BDEA
:10071000054602E08068C007F8D003F059FD401B91
:1007200003282068F6D38168C907F3D0206E40F013
:1007300010002066606E40F0010060660120B0BDD0
:100740002DE9F04148F2A06740F2701840F2E01540
:100750000026C0F20107C2F20048C2F200450024A0
:100760000921404601F028FA04440921284601F0F5
:1007700023FA013F0644F3D100EE104A01EE106A5D
:1007800040F2C0009FED082AC2F20000B8EE400A15
:10079000B8EE411A80EE020A80ED000A81EE020AEC
:1007A00080ED010ABDE8F0810050C3470000000061
:1007B00040F2C0009FED122AC2F2000090ED020A42
:1007C000B8EE400A90ED001A30EE410A9FED0B1A88
:1007D00020EE010AB7EE041A00EE021AB0EE000A8B
:1007E000B8EE042AA1EE002A9FED060A82EE000A66
:1007F00080ED040A90ED040A704700BF3333534084
:1008000000008039EC51B8BE40F2C0009FED122AC2
:10081000C2F2000090ED030AB8EE400A90ED011A12
:1008200030EE410A9FED0B1A20EE010AB7EE041AD2
:1008300000EE021AB0EE000AB8EE042AA1EE002A79
:100840009FED060A82EE000A80ED050A90ED050A8A
:10085000704700BF3333534000008039EC51B8BEBD
:1008600040F2C000C2F2000090ED040A90ED051ABB
:1008700030EE010AB1EE400A80ED060A90ED060A5C
:10088000704700000000000040F2C000C2F200000B
:1008900090ED010A70470000B0B540F270144FF0BF
:1008A0000111C2F2004440F2FF72204600F0B0FC99
:1008B00040F2E0154FF00111C2F2004540F2FF7224
:1008C000284600F0A5FC284601F0EEFD204601F088
:1008D000EBFD284601F090F92046BDE8B04001F05C
:1008E0008BB9000000000000F0B581B0044600683C
:1008F0008168C9074CD14FF6C0778168C7F6FF778A
:1009000007F17F0211420BD0206E40F010002066EC
:10091000606E40F001006066012001B0F0BD00BFD4
:100920008168394041F00101816003F051FC42F2DD
:10093000000346F20836C4F20203216803F5807210
:1009400003F54275C5F60206914208BF2E4699424C
:1009500008BF2E4699420546306816D0914214D100
:1009600010F01F0014D110E08868C00704D1886817
:10097000384040F00100886003F02AFC401B2168E9
:10098000032802D30868C007BED00868C007EBD0B0
:10099000002001B0F0BD000080B540F27010C2F23E
:1009A000004001F025FA40F2E010C2F20040BDE83C
:1009B000804001F01DBA0000FEE7000000000000CA
:1009C00040F25820C2F2004002F0EAB900000000F4
:1009D00040F2D020C2F2004002F0E2B90000000074
:1009E00040F20F42D0F800C0C4F20202944511DC7C
:1009F0006F22C4F20202944522DC3F22C4F20202BA
:100A0000944539DC1022C4F2020294455AD02822BF
:100A100054E000BF40F26F42C4F2020294451BDC76
:100A200040F23F42C4F2020294452DDC40F21042F3
:100A3000C4F20202944545D040F228423EE000BF95
:100A40009F22C4F20202944528DC7022C4F2020202
:100A5000944537D0882231E040F29F42C4F202022E
:100A6000944523DC40F27042C4F20202944529D03E
:100A700040F2884222E000BF4022C4F202029445C4
:100A800020D058221AE000BF40F24042C4F20202D5
:100A9000944517D040F2584210E000BFA022C4F2A3
:100AA000020294450ED0B82208E000BF40F2B842DE
:100AB000C4F20202944505D040F2A042C4F2020200
:100AC000944517D10CF0F8024AF6AB23103ACAF657
:100AD000AA23A2FB03310AA35F2AC1F302115B5CC4
:100AE00040F2FF312CEA0101C36588BF0431816502
:100AF000084670472CF0FF0181650846704700BF2B
:100B0000000610160006101670B540F26F44D0F8BB
:100B100000C0C4F20204D0F858E0A4451ADC9F25B6
:100B2000C4F20205AC4533DC5725C4F20205AC45DE
:100B30005ADC1025C4F20205AC4500F09880282547
:100B4000C4F20205AC4500F092804025C4F20205D3
:100B50008AE000BF45F22F45C5F60205AC452DDC05
:100B600040F2B745C4F20205AC454BDC40F270459B
:100B7000C4F20205AC457AD040F28845C4F20205C1
:100B8000AC4574D040F2A045C4F202056CE000BF51
:100B900040F22745C4F20205AC4543DCA025C4F26F
:100BA0000205AC4563D0B825C4F20205AC455ED061
:100BB00040F21045C4F2020556E000BF45F26B4515
:100BC000C5F60205AC453FDC45F23045C5F60205E9
:100BD000AC454CD045F24445C5F60205AC4546D07F
:100BE00045F258453EE000BF5825C4F20205AC4529
:100BF0003DD07025C4F20205AC4538D08825C4F23A
:100C0000020531E040F2B845C4F20205AC452ED0F1
:100C100045F20845C5F60205AC4528D045F21C450D
:100C200020E000BF40F22845C4F20205AC451ED0CA
:100C300040F24045C4F20205AC4518D040F2584598
:100C4000C4F2020510E000BF45F26C45C5F602058E
:100C5000AC450CD045F29445C5F60205AC4506D02E
:100C600045F28045C5F60205AC4540F0D580456E9D
:100C7000C66E002E866E6E601CBFD0E91C566E607C
:100C8000A44515DC9F24C4F20204A4452CDC57249F
:100C9000C4F20204A44551DC1024C4F20204A445A9
:100CA0007AD02824C4F20204A44575D040246FE011
:100CB00045F22F44C5F60204A44529DC40F2B744AE
:100CC000C4F20204A44545DC40F27044C4F20204BC
:100CD000A44561D040F28844C4F20204A4455BD02C
:100CE00040F2A04454E000BF40F22744C4F20204A2
:100CF000A4453FDCA024C4F20204A4454CD0B8248F
:100D0000C4F20204A44547D040F2104440E000BFC2
:100D100045F26B44C5F60204A44555DC45F2304467
:100D2000C5F60204A44561D045F24444C5F6020468
:100D3000A4455BD045F2584454E000BF5824C4F2A7
:100D40000204A44528D07024C4F20204A44523D090
:100D500088241DE040F2B844C4F20204A4451BD02C
:100D600045F20844C5F60204A4453FD045F21C44B0
:100D700038E000BF40F22844C4F20204A4450BD07E
:100D800040F24044C4F20204A44505D040F2584465
:100D9000C4F20204A4453FD18468C06D00F01F0076
:100DA0003F2505FA00F0CEF80800DCF80000402CE2
:100DB00020F48020CCF80000CCF8043023D0CCF80C
:100DC0000810CCF80C2070BD45F26C44C5F6020446
:100DD000A4450BD045F28044C5F60204A44505D0D5
:100DE00045F29444C5F60204A44515D1C46D80684B
:100DF00004F01F040125402805FA04F4CEF804404D
:100E0000CCF8043004D1CCF80820CCF80C1070BD1C
:100E1000CCF80810CCF80C2070BD000000000000D9
:100E200070470000000000002DE9F0412DED048B1B
:100E300040F2F40040F27806C2F20000C2F200066E
:100E400000230068426AD6E90401101A63EB01012D
:100E5000B0F1004371F1000302DB013908E000BF8B
:100E60000123C8F20003C31A71F1FF33B8BF013187
:100E7000D6E90637C018326179414FF00008C6E95B
:100E80000A01C6E90580F161FFF799FA41EC100B00
:100E90009FED571B9FED5A8A20EE010B9FED561BCD
:100EA00080EE010BB7EEC00BF0EE480A0BF0B4F881
:100EB00030EE081AB5EE400AB1EE009AF0EE480A9C
:100EC000F1EE10FAB8BFB0EE410A20EE091A86ED35
:100ED0000C0AB0EE410A0BF09FF806F1200330EE49
:100EE000081AB5EE400AF1EE10FAB8BFB0EE410AAA
:100EF0000FCB141A83EA010780EA020063EB0105B5
:100F0000384386ED0D0AC6E9082307D0601E75F147
:100F10000000B8BF4FF0010886F80180204629463E
:100F2000FFF737FA01EE100A9FED360A3078B2EE7D
:100F3000042A21EE001A01281CD1B0689FED324A24
:100F400003EE100A00287078B8EE433A23EE043A14
:100F50009FED2E4A84EE033A9FED2D4A04FE033A9C
:100F600000284FF000003070B1EE434A03FE043A0F
:100F700086ED033A40F20C0181EE021AC2F2000142
:100F800084EAE57085EAE5730A78B0EBE57163EB16
:100F9000E570DAB1012A03D196ED031A16E000BF1D
:100FA000D1F163024FF0000282410FD30B3996ED6D
:100FB000032A70F1000003D2B0EE421A06E000BF2F
:100FC00031EE021AB6EE002A21EE021A21EE082AAC
:100FD00086ED101A82EE000A86ED0E0A20EE092A2E
:100FE00086ED0F2ABDEC048BBDE8F08100BF00BF89
:100FF00000000060FB211940000000000088C34091
:10100000DB0FC9400000704200401C45C0E1644C49
:10101000000000000000000040F27801C2F2000170
:101020004A681AB1821A8A6001220A7048607047C1
:1010300040F27800C2F2000090ED0D0A7047000007
:1010400040F27800C2F2000090ED0C0A70470000F8
:1010500040F27800C2F2000090ED0E0A70470000E6
:1010600080B540F27800C2F20000D0E90A01FFF733
:1010700090F900EE100A80BD40F2F4000021C2F2A7
:1010800000000068416240F27800C2F20000C0E94E
:101090000C11C0E90E110164C0E90411C0E9061188
:1010A000C0E90811C0E90A11C0E9011101807047C7
:1010B00010B540F2F4043C21C2F20004204605F0D1
:1010C0000BFE20680024446240F2E030C2F200408F
:1010D00005F0AAFB40F22C400821C2F2004005F0C6
:1010E00063FF40F27800C2F20000C0E90C44C0E99E
:1010F0000E440464C0E90444C0E90644C0E908445D
:10110000C0E90A44C0E90144048010BD00000000A9
:1011100072B600BFFEE7000044F60400C5F6020008
:10112000816841F0020181600168890409D4016885
:1011300089045CBF01685FEA814102D401688904C7
:10114000F2D57047000000009FED0A2A20EE823A97
:101150009FED094AA0EE043A30EEC10AA1EE023A30
:101160009FED061A20EE010A80ED003A81ED000A9B
:10117000704700BFABAAAABEABAA2A3F3ACD133F25
:10118000B0B52DED088BB0EE40AAB0EE410A0C468A
:101190000546B0EE418AB0EE609A0AF0E9F9B0EE89
:1011A00040BAB0EE480A0AF02BFA20EE491A2BEEAC
:1011B000092AABEE0A1AA0EE0A2A85ED001A84ED80
:1011C000002ABDEC088BB0BDB0B52DED088BB0EE9C
:1011D00040AAB0EE410A0C460546B0EE418AB0EE98
:1011E000609A0AF0C5F9B0EE40BAB0EE480A0AF0CB
:1011F00007FA20EE091A2BEE092AABEE0A1AA0EE26
:101200004A2A85ED001A84ED002ABDEC088BB0BD9A
:1012100070B582B000230193044690F85C00012869
:1012200002D1022002B070BD012084F85C0020468B
:1012300015460E46FFF748FA216E18B141F010012D
:101240004CE000BF41F202124FF6C0739143C3F667
:10125000FE7302312166216806F4803605F0804570
:101260008A682E4413404FF2FF72C2F2C3523344D5
:1012700003F100438B608B68B3F1FF3F2ADC019BD5
:1012800001330193019B93421DD88B68B3F1FF3F5B
:1012900020DC019B01330193019B934213D88B689F
:1012A000B3F1FF3F16DC019B01330193019B934295
:1012B00009D88B68B3F1FF3F0CDC019B013301932C
:1012C000019B9342D7D9206E40F0100020F002011C
:1012D000012003E0216E012262F301012166002159
:1012E00084F85C1002B070BD00688168826801F00B
:1012F000040102F0080289180AD14FF6FF72C16892
:10130000C7F6DF72114001F10041C1600020704753
:10131000012070470000000070470000000000003E
:101320002DE9F04F81B00022009290F85C20012A54
:1013300006D14FF00208404601B0BDE8F08F00BF73
:101340000269002A4FF0010280F85C2002D04F6A47
:10135000012F19D14A68092A3DD10A68CB6A4FF496
:10136000785707EA524223B103F07C030F6B3B43EB
:101370001A43036844F20006C0F21046DF6C37409F
:101380001743DF64826626E0C66E1EB1836E0022BC
:101390000AE000BFCB6A7A1E23B103F07C030E6B18
:1013A00033431A4300233E46D1E9007505F01F057B
:1013B000C7F38467AF403A43771E42EA0302C0E9AD
:1013C0001A2708D1036844F20006C0F21046DF6C09
:1013D00037403A43DA64036846F2083C4FF6FF7E32
:1013E000C5F6020C9A68C0F20F0E12072AD40A68DA
:1013F000002A13D4ACF54274A3420FD092FAA2F49F
:1014000012EA0E0FB4FA84F408BF940E04F01F021F
:10141000012404FA02F2DC692243DA61DA6891F805
:10142000294091F82A50002C22F440144FEA4552EA
:1014300002D0224305E000BF91F8285044EA055449
:101440002243DA609A689C6802F0040204F00804FF
:10145000121915D1CA6ABAB10A6BAAB191F829203A
:10146000012A19D1026E4FF0010842F020020266F3
:1014700091F83440012C19D01C6924F0020429E0B1
:101480004FF0000894E100BF91F82920012ADA68A2
:1014900003D142F0007202E0DA6822F000724FF0ED
:1014A0000008DA6091F83440012CE5D1ACF54274C3
:1014B000A34200F0CB804FF61D651C69CFF60045B6
:1014C00002272C40CFF6FF77D1E90E56344307EBC5
:1014D00005452C431C610C6807278E68C4F34065E2
:1014E000C4F3045403EB8505A7406A6906FA04F4C3
:1014F000BA43ACF54277BB4242EA04026A6131D09A
:1015000041F20002C5F60042126802F07042B2F1E8
:10151000805F40F091804A69DC680E2505EA54043A
:1015200002FA04F40D69042D00F0D98003F1600281
:101530000E6806F0F84652F8257007F000473C4365
:10154000344342F825400C6991F8215052F8246048
:10155000012D26F0004608BF06F1004642F824603F
:1015600026E100BF4FF604520C69CFF6FF72042C3F
:101570004D695CF802607BD14FF65852CFF6FF728E
:101580005CF802201A6E0E68C2F3846216EA0E043A
:10159000C6F3846596FAA6F6B6FA86F6374608BF0D
:1015A0002F46BA420CD11A6E22F000421A660A681F
:1015B00002EA0E04C2F3846592FAA2F2B2FA82F64B
:1015C0005A6E37465A6E002C08BF2F46C2F384620B
:1015D000BA420CD15A6E22F000425A660A6802EAF8
:1015E0000E04C2F3846592FAA2F2B2FA82F69A6EFF
:1015F00037469A6E002C08BF2F46C2F38462BA4267
:101600000CD19A6E22F000429A660A6802EA0E0431
:10161000C2F3846592FAA2F2B2FA82F6DA6E002C74
:10162000DA6E08BF2E46C2F38462B24240F0C08038
:10163000DA6E22F00042BAE0DA684C69DD68D20660
:101640004FEA550544D405F00E0243E04FF6085426
:10165000CFF6FF745CF8045025F4FF75D1E90E67EE
:1016600035433D4345F002054CF8045033E700BFD5
:10167000ACF52A724FF2000BD1F800A0062752F801
:101680002490C0F2FF3B07EA96060AF0F84A09EAFE
:101690000B07B5400AEB0706354345F0004542F815
:1016A00024500C69CD6952F8246026F080763543C9
:1016B00042F824500C6991F8205052F82460012D12
:1016C00026F0007608BF06F1007642F824606FE04D
:1016D00005F0080294400D69042D7FF427AF1A6EBF
:1016E0001A6E0C6814EA0E0994FAA4F7B7FA87F593
:1016F000C4F384662F4608BF3746C2F38462BA42F9
:101700000FD11A6E04F0F84402F0004222441A6627
:101710000C6804EA0E09C4F3846694FAA4F2B2FADF
:1017200082F55A6E2F465A6EB9F1000F08BF374640
:10173000C2F38462BA420FD15A6E04F0F84402F048
:10174000004222445A660C6804EA0E09C4F3846617
:1017500094FAA4F2B2FA82F59A6E2F469A6EB9F113
:10176000000F08BF3746C2F38462BA420FD1DA6E67
:1017700004F0F84402F000422244DA660C6804EAFD
:101780000E09C4F3846694FAA4F2B2FA82F5DA6E12
:10179000B9F1000FDA6E08BF3546C2F38462AA427F
:1017A00006D1DA6E04F0F84402F000422244DA6610
:1017B0009A68D20740F09681ACF542790D684B45A6
:1017C000CE680DD006F01802D3F8C0102EFA02F23F
:1017D00005EA0E07B9432A401143C3F8C01010E0D0
:1017E0004FF6A85106F01807CFF6FF712EFA07F74B
:1017F00005EA0E042F405CF80120A2433A434CF85E
:1018000001200021C4F2527101F52D02964240F0F0
:10181000138146F20002C5F6020293423CD042F226
:101820000012C4F20202934226D042F20002C4F235
:101830000202934246D11F22C1F2F04295426BDD73
:1018400040F2FF72C2F63062954243DD40F600027C
:10185000C2F63062954200F0BF8041F20002C3F24E
:101860006022954200F08C800022C4F22132954221
:1018700000F0CD80B6E000BF1F21C1F2F0418D42E3
:1018800022DC0721C0F690418D4259DC0221C0F2D2
:1018900030418D424AD165E01F21C1F2F0418D42B5
:1018A00024DC0721C0F690418D426FDC0221C0F29A
:1018B00030418D4256D00421C0F660018D423AD0AD
:1018C0009AE000BF0021A2E040F2FF71C2F6306151
:1018D0008D4249DC2021C1F2F0418D423CD040F2E2
:1018E0000041C2F600218D4211D07BE040F2FF7131
:1018F000C2F630618D425DDC2021C1F2F0418D42A3
:101900002AD040F20041C2F600218D4274D140F647
:101910000001C2F630617AE00721C0F690418D42A5
:101920000EDC0221C0F230418D421BD00421C0F6F2
:1019300060018D4256D14021C1F6201167E000BF01
:101940000821C0F690418D4230D01021C1F2C00173
:101950008D4225D046E000BF40F20021C2F2B051D6
:1019600055E000BF012152E040F60001C2F63061AF
:101970008D4231D041F20001C3F260218D4231D15C
:1019800042F20001C3F2906141E000BF0821C0F6BD
:1019900090418D420AD01021C1F2C0018D422BD15D
:1019A00040F20011C2F2801131E000BF8021C1F687
:1019B00050512CE040F60001C2F630618D420BD050
:1019C00042F20001C3F290618D4215D144F2000150
:1019D000C3F6C0211BE000BF41F20001C3F2602149
:1019E00015E000BF00220021C4F68432954204BFF6
:1019F0000021C4F6B8710AE044F200020021C3F6E7
:101A0000C022954204BF48F20001C3F6F0614B4585
:101A100012D091FAA1F24FF6C137B2FA82F2C0F2B7
:101A20000A07394208BF8A0E02F01F01012202FA9A
:101A300001F1DA691143D961B5F1FF3F52DC42F29D
:101A4000001243F48071C4F20202914242F200019A
:101A5000C4F2020138D18A68D1F808711743FA0735
:101A60003AD101F5807201F542779342624608BF90
:101A70003A468B4240F2000108BF3A46CCF252711E
:101A800017688D4207F0E07108BF17F4000231D0EB
:101A90000022CCF22132954208BF17F0807245D067
:101AA0000022CCF6843295421CD117F4800208BF84
:101AB0004B4517D1DCF8002022F0E072114341F4CD
:101AC0008001CCF800100DE04FF60052CFF6FF7207
:101AD0005CF80270FA07C4D0016E4FF0010841F0C3
:101AE00020010166002180F85C10404601B0BDE88D
:101AF000F08F00BF4B45F5D1DCF8002022F0E072FA
:101B0000114342F6635241F40001CCF8001040F258
:101B10000001C0F23E52C2F2000109688909A1FB2E
:101B200002129109022202EB41010DE04B45D9D18D
:101B3000DCF8002022F0E072114341F08071CCF813
:101B40000010CFE700990139009100990029C9D010
:101B500000990139009100990029C3D000990139F9
:101B60000091009900291FBF009901390091009947
:101B700018BF0029B6D0E5E710B542F200010068B1
:101B8000C4F20201884218BF10BD40F27010092152
:101B9000C2F2004000F010F840F2C0040921C2F285
:101BA0000004A06040F2E010C2F2004000F004F82F
:101BB000E06010BD0000000040F20F1291420DD015
:101BC00040F2152291420DD040F21B320068914242
:101BD00014BF80308C300068704700BF00688430CC
:101BE0000068704700688830006870470000000097
:101BF000704700000000000070B542F2001546F288
:101C00000833C4F202050446006805F50272C5F601
:101C10000203A5F58071A84208BF1346884208BF99
:101C200013461E688168090710D4C168C06C10F49F
:101C3000C07F07D1002905D4206E40F02000206627
:101C4000012070BD94F85C00012801D1022070BD14
:101C5000012084F85C002046FEF746FE20B10021FA
:101C600084F85C1070BD00BF206EC00502D4002057
:101C700003E000BF606E20F00800606643F20101DF
:101C8000206E884306F01F0100F580502066206812
:101C9000A84200D119B9226E22F480122266602275
:101CA0000260002284F85C20C268920203D5426878
:101CB00042F48062426062696FF04003082A4FF08C
:101CC000200208BF6FF02003466808BF402233405F
:101CD00043604368A84242EA0302426007D10729F1
:101CE00012D8012202FA01F111F0C10F0CD0C16823
:101CF000890107D44FF6C0728168C7F6FF721140A0
:101D000008318160002070BD206E40F48010206694
:101D1000002070BD000000007047000000000000BF
:101D20007047000000000000B0B582B090F85C2061
:101D3000012A03D10221084602B0B0BD42F20832A6
:101D400000230193C4F202020093A2F542740368D7
:101D5000A34227D14FF6006E4FF60055CFF6FF7E17
:101D6000CFF6FF7552F80E40535923435B0719D441
:101D7000D1F800C01368BCF1000F23F440441DD01B
:101D80004B6823431360535952F80E502B43DB0723
:101D900022D1136840F61F75AB438968194341EAA5
:101DA0000C0116E0016E41F02001016601210022C4
:101DB00080F85C20084602B0B0BD00BF14605159E5
:101DC00052F80E301943C90708D1116840F61F7345
:101DD000994311600021EAE70021E8E70021E6E7E6
:101DE0007047000000000000704700000000000085
:101DF0002DE9F04F81B046F2083942F20002C5F6F3
:101E00000209C4F202020446006802F5807A02F573
:101E1000427B4946504508BF5946904208BF594643
:101E200006684568B2070F680FD515F002010CD09F
:101E3000206EC00603D4206E40F400602066204669
:101E4000FFF76AFA206802210160710707F01F0896
:101E500002D515F0040104D131074DD515F0080164
:101E60004AD0214651F8602FD20603D40A6842F4C2
:101E700000720A60C26812F4406F37D142F2000368
:101E80000246C4F20203504508BF1A46B8F1090FD2
:101E9000134608BF0346B8F1050F08BF0346B8F163
:101EA000000F08BF0346824208BF1346DA68920457
:101EB0001CD40268120719D5826852070CD44268F4
:101EC00022F00C024260086820F480700860086804
:101ED000C00407D50AE000BF206E04F1640140F0A1
:101EE00010002066086840F0010008602046FFF7F7
:101EF00077FF20680C210160B10602D515F02001A2
:101F000004D171062FD515F040012CD0214651F88F
:101F1000602FD20603D40A6842F400520A6042F2EB
:101F200000020346C4F20202504508BF1346B8F14E
:101F3000070F1A4608BF0246B8F1060F08BF02464F
:101F4000B8F1000F08BF0246834208BF1A46C36CAF
:101F500013F4C07FC368D26876D02046FFF70CFE2A
:101F600020686021016031060CD515F0800109D090
:101F7000206E40F480302066204600F021FA206870
:101F800080210160F1050DD515F480710AD0206E15
:101F900040F4003020662046FFF7BEFE20684FF474
:101FA00080710160B1050DD515F400710AD0206E65
:101FB00040F4802020662046FFF7B2FE20684FF4F0
:101FC00000710160F10624D515F0100121D0E16BFC
:101FD00089B1B8F1000F59D042F20001504508BF55
:101FE000D946C4F20201884208BFD946D9F8001088
:101FF00011F4404F0BD0206E40F480602066606E7C
:1020000040F0020060662046FFF7EEFE20681021D7
:102010000160710514D515F4806111D0216E41F471
:1020200080412166616E41F0080161664FF4806174
:102030000160204601B0BDE8F04FFFF7D9BD00BFF9
:1020400001B0BDE8F08F00BF970106D503F44063EF
:1020500002F40057DB197FF480AF03685B067FF55D
:102060007CAF12F400127FF478AF8268120711D4AB
:10207000426822F060024260086820F480500860E4
:102080000868C0053FF569AF0AE000BFC16889076D
:10209000B1D1BCE7206E04F1640140F0100020666D
:1020A000086840F00100086057E7000000000000E9
:1020B000F0B581B0044600284FF0000000902DD00C
:1020C000206E30B9204600F07FF90020606684F869
:1020D0005C002068816889004FF6C071C5F6FF7109
:1020E00002D582680A4082608268D20031D4826858
:1020F00001F18051114042F6635241F080518160FC
:1021000040F20001C0F23E52C2F2000109688909A2
:10211000A1FB0212012101EB921105E001252846E5
:1021200001B0F0BD009901390091009989B1009981
:1021300001390091009961B100990139009100992C
:1021400000291FBF009901390091009918BF00298B
:10215000E8D18168C90009D4216E012541F0100140
:102160002166616E41F00101616600E00025816831
:10217000226E02F0100201F004018918216E59D17B
:1021800021F4817146F2100C023121668168C5F696
:10219000020CC90724D142F2001240F48071C4F24B
:1021A0000202914242F20001C4F2020140F0F080CA
:1021B0008A68D1F808311A43D20711D101F580722B
:1021C00001F5427390421A4618BF0CF53E728842E0
:1021D00008BF1A466168136823F47C131943116021
:1021E000617EE36BACF11006B04243EA413329D083
:1021F000A168194394F82030012B41EA034306D12A
:10220000616A0022CFF6FE7202EB41410B43A16AE4
:1022100021B101F47871E26A11430B43B0421FD03F
:102220004CF20302C168CFF6F07211401943C1604D
:1022300028E000BF41F0100001252066284601B0CB
:10224000F0BD00BFA168D4F80CE0082900F0A6801A
:102250000C2900F0A5801C2940F0A4801021A4E0E6
:1022600044F207025CF8041CCFF6F07211401943E7
:102270004CF8041CDCF80010626B21F04061114343
:10228000CCF800108168826801F0040102F00802B5
:10229000891869D1217EB0424FEA813126D0226B64
:1022A000C36844F20307BB431A431143C16094F867
:1022B0004410012948D14FF61E020169CFF60042B1
:1022C0000126D4E912371140CFF6FF7606EB03431F
:1022D0003943276D1943636D3943226C19430161FA
:1022E000016921F07041114301613AE05CF8042C6E
:1022F00094F8383044F2030E94F8447022EA0E0247
:1023000042EA4302012F41EA02014CF8041C1BD1AE
:102310004FF61E01DCF80000CFF600410840D4E97A
:1023200012120843216D1043626D0843216C104363
:1023300040F00100CCF80000DCF8000020F0704014
:102340000843CCF800000FE00169B04221F0010120
:1023500001610169226C21F0704141EA02010161D1
:1023600002D02046FEF730F920682169026B01296E
:1023700022F00F0102D1E269013A11430163012108
:10238000206E61F301002066284601B0F0BD00BF59
:102390005CF8082CD2073FF411AF21E7002104E0DC
:1023A000082102E0182918BF002141EA0E01194353
:1023B00094F82030012B41EA03433FF421AF26E794
:1023C000704700000000000080B586B042F20012A5
:1023D0000068C4F20202002190420591CDE9031188
:1023E000CDE9011128D042F20001C4F20201884275
:1023F00058D140F2F00144F2D840C2F20001C5F6D3
:1024000002000A68002A02F101020A6008D101688C
:1024100041F020010160016801F020010091009964
:10242000816841F020018160806800F02000009008
:1024300000984FF4006021E040F2F00144F2D840EF
:10244000C2F20001C5F602000A68002A02F1010288
:102450000A6008D1016841F020010160016801F0C3
:10246000200100910099816841F02001816080681D
:1024700000F02000009000984FF4005001900320DD
:1024800002900020039041F20040C5F6020001A92D
:1024900001F0A6FD12200121002201F08DFF122083
:1024A00001F076FF06B080BDF0B581B042F20005C4
:1024B00046F20832C4F202050446006805F580764B
:1024C00005F54271C5F60202B04208BF0A46A842AD
:1024D00008BF0A4617688068400703D494F85C0078
:1024E000012803D1022001B0F0BD00BF012084F813
:1024F0005C002046FEF7F8F920B1002184F85C105A
:1025000001B0F0BD206807F01F01B04240F6017332
:1025100018BF0546226E2F1A22EA0303B7FA87F77F
:1025200003F580737A09236600D119B9236E23F469
:1025300080132366236E0027DB044FF0000344BFA3
:10254000676E27F0060767664FF01C07076084F880
:102550005C3042B9092919D8012202FA01F140F28E
:102560002122114212D0C168890104D5216E0122B5
:1025700062F30D3121664FF6C0728168C7F6FF72B3
:10258000114004318160002001B0F0BD206E40F4A4
:1025900080102066E8688001F5D5206E012161F386
:1025A0000D302066002001B0F0BD000000000000EA
:1025B0002DE9F041044601F00BFE3CB3054694F8CA
:1025C0003500022826D1276840F20F46C4F20206E1
:1025D00040F26F483868B74220F0010038606FF071
:1025E0000E00C4F202081DDC6F21C4F202018F420A
:1025F0002ADC3F21C4F202018F4241DC1021C4F2E7
:1026000002018F4263D028215CE000BF0120BDE8B9
:10261000F08100BF802060650120002184F8341023
:10262000BDE8F08147451BDC40F23F41C4F20201A6
:102630008F422DDC40F21041C4F202018F4246D09D
:1026400040F228413EE000BF9F21C4F202018F42C8
:1026500028DC7021C4F202018F4238D0882131E099
:1026600040F29F41C4F202018F4223DC40F27041EC
:10267000C4F202018F422AD040F2884122E000BF1A
:102680004021C4F202018F4221D058211AE000BF3C
:1026900040F24041C4F202018F4218D040F258414A
:1026A00010E000BFA021C4F202018F420FD0B82178
:1026B00008E000BF40F2B841C4F202018F4206D0E8
:1026C00040F2A041C4F202018F42394607D1394697
:1026D000386820F01E0041F8140B6FF080000A6883
:1026E000474500EA020008601ADC9F20C4F202009D
:1026F000874233DC5720C4F2020087425ADC1020A4
:10270000C4F20200874200F097802820C4F2020041
:10271000874200F091804020C4F202008AE000BFAE
:1027200045F22F40C5F6020087422DDC40F2B7404B
:10273000C4F2020087424BDC40F27040C4F2020057
:10274000874279D040F28840C4F20200874273D0B9
:1027500040F2A040C4F202006CE000BF40F227400B
:10276000C4F20200874243DCA020C4F20200874288
:1027700062D0B820C4F2020087425DD040F210401F
:10278000C4F2020056E000BF45F26B40C5F60200FD
:1027900087423FDC45F23040C5F6020087424BD00D
:1027A00045F24440C5F60200874245D045F2584004
:1027B0003EE000BF5820C4F2020087423CD07020A7
:1027C000C4F20200874237D08820C4F2020031E010
:1027D00040F2B840C4F2020087422DD045F20840D2
:1027E000C5F60200874227D045F21C4020E000BF1A
:1027F00040F22840C4F2020087421DD040F240401F
:10280000C4F20200874217D040F25840C4F20200DE
:1028100010E000BF45F26C40C5F6020087420BD0C5
:1028200045F29440C5F60200874205D045F280404B
:10283000C5F60200874205D1206E016821F480713F
:10284000016000BF3868C00710D001F0C1FC401B18
:102850000628F7D320206065032084F83500012086
:10286000002184F83410BDE8F08100BF2068B04238
:1028700010DC6F21C4F2020188421DDC3F21C4F24A
:102880000201884234DC1021C4F20201884255D092
:1028900028214FE040451BDC40F23F41C4F20201D9
:1028A00088422DDC40F21041C4F20201884245D03A
:1028B00040F228413EE000BF9F21C4F2020188425D
:1028C00028DC7021C4F20201884237D0882131E02F
:1028D00040F29F41C4F20201884223DC40F2704181
:1028E000C4F20201884229D040F2884122E000BFB0
:1028F0004021C4F20201884220D058211AE000BFD2
:1029000040F24041C4F20201884217D040F25841DF
:1029100010E000BFA021C4F2020188420ED0B8210D
:1029200008E000BF40F2B841C4F20201884205D07D
:1029300040F2A041C4F2020188425BD1D4E91612F0
:1029400002F01F023F2303FA02F28A6040455BDC7B
:102950009F21C4F20201884214DC5721C4F2020113
:10296000884227DC1021C4F20201884200F0A280D4
:102970002821C4F20201884200F09C804021C4F268
:10298000020195E040F22741C4F2020188421FDCB7
:10299000A021C4F20201884200F08C80B821C4F268
:1029A0000201884200F0868040F21041C4F2020128
:1029B0007EE000BF5821C4F2020188427AD0702123
:1029C000C4F20201884275D08821C4F202016FE08E
:1029D00040F22841C4F2020188426BD040F24041EB
:1029E000C4F20201884265D040F25841C4F20201AB
:1029F0005EE000BFD4E9161202F01F02012303FAC1
:102A000002F24A604045A3DD45F22F41C5F60201BE
:102A1000884217DC40F2B741C4F20201884227DC49
:102A200040F27041C4F20201884243D040F2884132
:102A3000C4F2020188423DD040F2A041C4F202013A
:102A400036E000BF45F26B41C5F6020188421FDC4B
:102A500045F23041C5F6020188422BD045F244418F
:102A6000C5F60201884225D045F258411EE000BF5C
:102A700040F2B841C4F2020188421BD045F208413D
:102A8000C5F60201884215D045F21C410EE000BF98
:102A900045F26C41C5F6020188420BD045F29441E3
:102AA000C5F60201884205D045F28041C5F6020113
:102AB00088420BD1616EA26EE06E4A6030B101684F
:102AC00021F480710160D4E91C014160012084F887
:102AD00035000020002184F83410BDE8F0810000AA
:102AE00080B5D8B190F83510022919D140F20F42C3
:102AF0000168C4F20202914216DC6F23C4F20203A1
:102B0000994227DC3F23C4F2020399423EDC1023A2
:102B1000C4F2020399425FD0282359E0012080BD0E
:102B200080214165012080BD40F26F43C4F2020361
:102B300099421BDC40F23F43C4F2020399422DDC70
:102B400040F21043C4F20203994245D040F22843B8
:102B50003EE000BF9F23C4F20203994228DC7023A9
:102B6000C4F20203994237D0882331E040F29F43F8
:102B7000C4F20203994223DC40F27043C4F2020320
:102B8000994229D040F2884322E000BF4023C4F29A
:102B90000203994220D058231AE000BF40F240437C
:102BA000C4F20203994217D040F2584310E000BF2C
:102BB000A023C4F2020399420ED0B82308E000BF5C
:102BC00040F2B843C4F20203994205D040F2A04358
:102BD000C4F20203994275D191424FF0040280F889
:102BE000352011DC6F20C4F20200814222DC3F203C
:102BF000C4F20200814239DC1020C4F2020081429A
:102C000059D0282054E000BF40F26F40C4F20200C7
:102C100081421BDC40F23F40C4F2020081422DDCC5
:102C200040F21040C4F20200814244D040F22840F9
:102C30003EE000BF9F20C4F20200814228DC7020E9
:102C4000C4F20200814236D0882031E040F29F4039
:102C5000C4F20200814223DC40F27040C4F2020060
:102C6000814228D040F2884022E000BF4020C4F2D8
:102C7000020081421FD058201AE000BF40F24040BD
:102C8000C4F20200814216D040F2584010E000BF6A
:102C9000A020C4F2020081420DD0B82008E000BF9D
:102CA00040F2B840C4F20200814204D040F2A04099
:102CB000C4F202008142086820F001000860002090
:102CC00080BD00BF0A6822F001020A6045F2574247
:102CD000C5F6020291420A6822F00E020A600FDC79
:102CE00045F22F42C5F60202914219DC45F2084234
:102CF000C5F60202914229D045F21C4222E000BFF3
:102D000045F27F42C5F60202914213DC45F2584279
:102D1000C5F60202914219D045F26C4212E000BFA2
:102D200045F23042C5F6020291420FD045F24442CC
:102D300008E000BF45F29442C5F60202914205D078
:102D400045F28042C5F6020291421AD1D0E9181C20
:102D5000D0E916E30A6822F480720A6003F01F01CA
:102D6000012202FA01F1CEF80410816ECCF80410B1
:102D7000C16E31B10A6822F480720A60D0E91C1277
:102D80004A60012180F83510026D002180F834106E
:102D90000AB190470021084680BD000000000000F5
:102DA0002DE9F04782B00021019140F20001044674
:102DB000C2F2000148F2B512C1F64E32A56D0968A3
:102DC00040F26F490068C4F20209A1FB02184845AD
:102DD0002E68296816DC9F21C4F2020188422DDC8E
:102DE0005721C4F20201884252DC1021C4F20201D0
:102DF00088427CD02821C4F20201884277D0402149
:102E000070E000BF45F22F42C5F60202904229DC75
:102E100040F2B742C4F20202904245DC40F27041F7
:102E2000C4F20201884262D040F28841C4F2020139
:102E300088425CD040F2A04154E000BF40F22741FC
:102E4000C4F2020188423FDCA021C4F202018842A0
:102E50004DD0B821C4F20201884248D040F210415E
:102E600040E000BF45F26B42C5F60202904275DCBD
:102E700045F23042C5F60202904200F0828045F2EF
:102E80004442C5F6020290427BD045F2584273E0BC
:102E90005821C4F20201884229D07021C4F20201F3
:102EA000884224D088211DE040F2B842C4F20202D8
:102EB00090421CD045F20842C5F60202904260D012
:102EC00045F21C4258E000BF40F22841C4F2020122
:102ED00088420CD040F24041C4F20201884206D040
:102EE00040F25841C4F20201884240F05A83E16D39
:102EF000082201F01F0140F20F4A8A40C4F2020A80
:102F0000324200F0E68050454FF0040312DC6F2798
:102F1000C4F20207B8426FDC3F27C4F20207B8428E
:102F200000F3A4801027C4F20207B84200F0C58065
:102F30002827BDE048456BDC40F23F47C4F202075A
:102F4000B84200F39B8040F21047C4F20207B84237
:102F500000F0B38040F22847AAE000BF45F26C427F
:102F6000C5F6020290420CD045F28042C5F602023C
:102F7000904206D045F29442C5F60202904240F0DB
:102F800010830268E36D03F01F0304279F400F4284
:102F900018BF12F0040621D102279F400F4218BF2C
:102FA00012F002064CD1D940090740F1FA8212F022
:102FB000080100F0F682016821F00E010160012095
:102FC00000FA03F16960606584F835000020E16C67
:102FD00084F83400002940F0DC82E2E211046F60E2
:102FE00026D4910603D4016821F004010160216C0C
:102FF000002940F0CE82D4E29F27C4F20207B842F3
:1030000046DC7027C4F20207B84256D088274FE04A
:1030100040F29F47C4F20207B84241DC40F27047D9
:10302000C4F20207B84248D040F2884740E000BFEF
:10303000D00300F1B382216C002940F0AA82B0E2F3
:1030400011046F6000F1B482910609D4016821F087
:103050000A010160012084F83500002084F8340062
:10306000E16B002940F095829BE200BF4027C4F24B
:103070000207B84221D058271AE000BF40F240476B
:10308000C4F20207B84218D040F2584710E000BF1F
:10309000A027C4F20207B8420FD0B82708E000BF4B
:1030A00040F2A047C4F20207B84206D040F2B84747
:1030B000C4F20207B84218BF082307681F4208D0AD
:1030C000036823F004030360AA60626D42F001020A
:1030D000626501228A4032426FD0504510DC6F2376
:1030E000C4F2020398421DDC3F23C4F2020398425B
:1030F00034DC1023C4F20203984256D028234FE058
:1031000048451BDC40F23F43C4F2020398422DDCE9
:1031100040F21043C4F20203984246D040F22843E2
:103120003EE000BF9F23C4F20203984228DC7023D4
:10313000C4F20203984238D0882331E040F29F4322
:10314000C4F20203984223DC40F27043C4F202034B
:1031500098422AD040F2884322E000BF4023C4F2C4
:103160000203984221D058231AE000BF40F24043A6
:10317000C4F20203984218D040F2584310E000BF56
:10318000A023C4F2020398420FD0B82308E000BF86
:1031900040F2A043C4F20203984206D040F2B84382
:1031A000C4F20203984240F0098243691B0604D529
:1031B000AA60626D42F00202626504228A403242D5
:1031C0006FD0504510DC6F23C4F2020398421DDC1F
:1031D0003F23C4F20203984234DC1023C4F20203FA
:1031E000984256D028234FE048451BDC40F23F432D
:1031F000C4F2020398422DDC40F21043C4F20203F1
:10320000984246D040F228433EE000BF9F23C4F2DC
:103210000203984228DC7023C4F20203984238D09B
:10322000882331E040F29F43C4F20203984223DC3A
:1032300040F27043C4F2020398422AD040F288431D
:1032400022E000BF4023C4F20203984221D0582359
:103250001AE000BF40F24043C4F20203984218D083
:1032600040F2584310E000BFA023C4F2020398428A
:103270000FD0B82308E000BF40F2A043C4F202031D
:10328000984206D040F2B843C4F20203984240F09C
:103290009D8103689B0704D5AA60626D42F0040219
:1032A0006265102202FA01F1314200F0818050453E
:1032B0004FF0080210DC6F23C4F2020398421DDCB9
:1032C0003F23C4F20203984234DC1023C4F2020309
:1032D000984256D028234FE048451BDC40F23F433C
:1032E000C4F2020398422DDC40F21043C4F2020300
:1032F000984246D040F228433EE000BF9F23C4F2EC
:103300000203984228DC7023C4F20203984238D0AA
:10331000882331E040F29F43C4F20203984223DC49
:1033200040F27043C4F2020398422AD040F288432C
:1033300022E000BF4023C4F20203984221D0582368
:103340001AE000BF40F24043C4F20203984218D092
:1033500040F2584310E000BFA023C4F20203984299
:103360000FD0B82308E000BF40F2A043C4F202032C
:10337000984206D040F2B843C4F20203984218BF04
:1033800004220368134213D0A9600168490301684D
:1033900008D4C90508D4016821F008010160216C36
:1033A00021B905E008034FD4216C09B120468847B4
:1033B000E06D00F01F01202000FA01F2324200F01F
:1033C000AB8020681023504510DC6F27C4F2020741
:1033D000B8421DDC3F27C4F20207B84238DC102790
:1033E000C4F20207B8425AD0282753E048451BDCF4
:1033F00040F23F47C4F20207B84231DC40F21047C6
:10340000C4F20207B8424AD040F2284742E000BF67
:103410009F27C4F20207B8422CDC7027C4F20207CF
:10342000B8423CD0882735E040F29F47C4F20207FB
:10343000B84227DC40F27047C4F20207B8422ED0EF
:1034400040F2884726E000BFA16C0029AED1AFE76B
:103450004027C4F20207B84221D058271AE000BF23
:1034600040F24047C4F20207B84218D040F2584731
:1034700010E000BFA027C4F20207B8420FD0B8275F
:1034800008E000BF40F2A047C4F20207B84206D0ED
:1034900040F2B847C4F20207B84218BF02230768D7
:1034A0001F4239D0AA6094F83520042A02681BD143
:1034B00022F016020260426922F080024261226C10
:1034C0000AB9A26C1AB1026822F0080202603F2019
:1034D0008840A860012084F83500216D0020002973
:1034E00084F8340055D15CE0510301680ED4C9055D
:1034F0000ED4016821F010010160012084F835002C
:10350000002084F83400E16B21B905E008034BD4B6
:10351000E16B09B120468847606D002841D0606D9D
:10352000C00734D0042084F8350020684FEA982181
:10353000026822F001020260019A013201928A427D
:103540001AD80268D20717D0019A013201928A4232
:1035500012D80268D2070FD0019A013201928A4232
:103560000AD80268D20707D0019A013201928A4232
:1035700002D80268D207DFD10068C0074FF003000D
:1035800008BF012084F83500002084F83400E16C85
:1035900039B1204602B0BDE8F0470847A16C0029C8
:1035A000F7D102B0BDE8F087616C0029B2D1B3E772
:1035B000D0030DD4616C0029EBD1F2E7026804223C
:1035C0008A4032427FF4FDAD6BE600BF026868E6D8
:1035D000E16B0029DDD1E4E72DE9F04381B0044639
:1035E00000F0F6FD002C00F0AF8040F26F48054679
:1035F0002068C4F20208404516DC9F21C4F2020193
:1036000088422DDC5721C4F20201884254DC10218B
:10361000C4F20201884200F07E802821C4F2020137
:10362000884278D0402171E045F22F41C5F6020171
:10363000884229DC40F2B741C4F20201884247DCEB
:1036400040F27041C4F20201884264D040F28841E5
:10365000C4F2020188425ED040F2A04156E000BFB1
:1036600040F22741C4F20201884241DCA021C4F2A9
:10367000020188424FD0B821C4F2020188424AD0E8
:1036800040F2104142E000BF45F26B41C5F6020135
:10369000884200F3BD8045F23041C5F60201884200
:1036A00000F0C98045F24441C5F60201884200F0AD
:1036B000C28045F25841B9E05821C4F20201884263
:1036C00029D07021C4F20201884224D088211DE053
:1036D00040F2B841C4F2020188421CD045F20841D0
:1036E000C5F60201884200F0A68045F21C419DE02B
:1036F00040F22841C4F2020188420CD040F240411D
:10370000C4F20201884206D040F25841C4F20201DC
:10371000884240F02581022184F83510002184F888
:103720003410016821F00101016000BF20680168C8
:10373000C9070DD000F04CFD401B0628F6D3202011
:103740006065032084F83500012001B0BDE8F083F6
:1037500048F23F0204F108060168CFF610621140FA
:10376000D4F818C06CCE1143D4F824901943E369FF
:103770002943256A0E43B9F1040F43EA060343EADD
:10378000050343EA0C0303D1D4E90B652E4333430D
:10379000666843F48011A6F13F07A6F12905042FBE
:1037A000A6F1470238BF0B46062DA6F14F0E38BFD3
:1037B0000B46022A26F0030238BF0B46BEF1040F67
:1037C00038BF0B46742A08BF0B46B9F1040F0360DB
:1037D000416921F0070141EA090140F0DD80D4E9A7
:1037E0000A53002B41EA050100F0D680BCF5005FCA
:1037F00000F0B880BCF1000F40F0C080022D00F056
:10380000C080012D00F0B480002D00F0BA80C3E02C
:1038100045F26C41C5F6020188420CD045F2804168
:10382000C5F60201884206D045F29441C5F6020170
:10383000884240F0958004F1080E022184F835108A
:10384000002184F834100168A3699EE80450A2F1B5
:103850008005E769B5FA85F566696D09402A4FEA82
:10386000853543EA07026FF3101142EA060208BFEA
:10387000102541EADC0142EA0E02236A294341EAAB
:10388000D20141EA131140F80819C0B2CD214843D2
:103890003C2101EA9020E0652046FDF7A1F8E16DAA
:1038A000012201F01F0102FA01F141602068404548
:1038B00000F381809F21C4F20201884214DC572169
:1038C000C4F20201884227DC1021C4F202018842BE
:1038D00000F0C7802821C4F20201884200F0C180B4
:1038E0004021C4F20201B9E040F22741C4F20201D2
:1038F000884221DCA021C4F20201884200F0B1809C
:10390000B821C4F20201884200F0AB8040F21041BD
:10391000C4F20201A2E000BF5821C4F202018842B1
:1039200000F09F807021C4F20201884200F099806B
:103930008821C4F2020191E040F22841C4F2020160
:10394000884200F08E8040F24041C4F20201884279
:1039500000F0878040F25841C4F202017EE000BFCF
:103960004020EDE6032D17D8DFE805F00E0B0E0220
:10397000A3F1C072B2FA82F2520904E0032D03D31C
:103980000AD1C3F300623AB140206065012084F897
:10399000350001B0BDE8F08341612046FDF720F815
:1039A000E16D3F2201F01F0102FA01F18160206800
:1039B00040457FF77FAF45F22F41C5F602018842AF
:1039C00016DC40F2B741C4F20201884226DC40F224
:1039D0007041C4F20201884243D040F28841C4F2EF
:1039E000020188423DD040F2A041C4F2020135E01C
:1039F00045F26B41C5F6020188421FDC45F23041B9
:103A0000C5F6020188422CD045F24441C5F60201B8
:103A1000884226D045F258411EE000BF40F2B8412E
:103A2000C4F2020188421CD045F20841C5F60201E9
:103A3000884216D045F21C410EE000BF45F26C41B1
:103A4000C5F6020188420CD045F29441C5F6020148
:103A5000884206D045F28041C5F60201884240F016
:103A6000E18045F2574C45F6FC01C5F6020CC5F65F
:103A7000020160450EDC45F22F42C5F6020290427B
:103A800018DC45F20842C5F60202904228D045F201
:103A90001C4221E045F27F42C5F60202904213DC4F
:103AA00045F25842C5F60202904219D045F26C42E6
:103AB00012E000BF45F23042C5F6020290420FD03C
:103AC00045F2444208E000BF45F29442C5F60202C6
:103AD000904205D045F28042C5F60202904247D19D
:103AE00000F0FC024CF6CD43083ACCF6CC43A2FBE6
:103AF0000323A1F1FC05A1F17C061B0905EB83055D
:103B000003F01F02A3682566802B4FF0010303FA20
:103B100002F26666A26605D10020606028607260CD
:103B20001EE000BF6768FBB2013F072F2B60726089
:103B300016D85E1E082E19D2604501F1440237DC0A
:103B400045F22F47C5F60207B84241DC45F2084767
:103B5000C5F60207B84259D045F21C474AE000BFFB
:103B600000206067C4E91B005CE000BFE06E54E029
:103B700000F0F8024AF6AB23103ACAF6AA23A2FBD9
:103B8000032740F20F43C4F2020308253A09984282
:103B900003F1AA06134688BF05EB171340F600058C
:103BA000B042C4F2020505F1800628BF1346A5E71E
:103BB00045F27F47C5F60207B84213DC45F2584785
:103BC000C5F60207B84221D045F26C4712E000BFAB
:103BD00045F23047C5F60207B84217D045F24447D0
:103BE00008E000BF45F28047C5F60207B8420DD095
:103BF00045F29447C5F60207B84207D040F60000E8
:103C0000C4F2020000F1FC0100F5A07201EB830098
:103C10000121E066B1402267616700210160D4E9BB
:103C20001C01416000206065012184F8351001B05D
:103C3000BDE8F08300000000B0B500283CD0054688
:103C400090F83400012801D10220B0BD012085F890
:103C5000340095F83500012828D1022085F8350078
:103C6000002068652868046824F001040460284680
:103C7000FCF74AFF40F20F422868C4F2020240F209
:103C80006F419042C4F2020118DC6F23C4F20203B8
:103C9000984225DC3F23C4F2020398423CDC102307
:103CA000C4F2020398425ED0282357E04FF400602C
:103CB0006865002085F834000120B0BD88421BDC17
:103CC00040F23F43C4F2020398422DDC40F210431D
:103CD000C4F20203984246D040F228433EE000BFBF
:103CE0009F23C4F20203984228DC7023C4F202032B
:103CF000984238D0882331E040F29F43C4F2020357
:103D0000984223DC40F27043C4F2020398422AD066
:103D100040F2884322E000BF4023C4F202039842ED
:103D200021D058231AE000BF40F24043C4F20203FE
:103D3000984218D040F2584310E000BFA023C4F2CC
:103D4000020398420FD0B82308E000BF40F2B84306
:103D5000C4F20203984206D040F2A043C4F2020328
:103D6000984240F02F8103680B2464F344030360FE
:103D70002B6C1BB10823046823430360884219DCC1
:103D80009F23C4F20203984232DC5723C4F2020399
:103D9000984259DC1023C4F20203984200F0968046
:103DA0002823C4F20203984200F090804023C4F21A
:103DB000020389E045F22F43C5F6020398422DDC49
:103DC00040F2B743C4F2020398424BDC40F2704326
:103DD000C4F20203984279D040F28843C4F202034D
:103DE000984273D040F2A043C4F202036CE000BFDB
:103DF00040F22743C4F20203984243DCA023C4F2FA
:103E00000203984262D0B823C4F2020398425DD004
:103E100040F21043C4F2020356E000BF45F26B4388
:103E2000C5F6020398423FDC45F23043C5F6020373
:103E300098424BD045F24443C5F60203984245D020
:103E400045F258433EE000BF5823C4F202039842B3
:103E50003CD07023C4F20203984237D08823C4F2C6
:103E6000020331E040F2B843C4F2020398422DD07D
:103E700045F20843C5F60203984227D045F21C4399
:103E800020E000BF40F22843C4F2020398421DD054
:103E900040F24043C4F20203984217D040F2584324
:103EA000C4F2020310E000BF45F26C43C5F6020302
:103EB00098420BD045F29443C5F60203984205D0D0
:103EC00045F28043C5F60203984274D12B6E1C68FC
:103ED000E40303D51C6844F480741C60EB6E1BB1D2
:103EE0001D6845F480751D60904211DC6F21C4F29D
:103EF000020188421EDC3F21C4F20201884235DC07
:103F00001021C4F20201884255D0282150E000BFA0
:103F100088421BDC40F23F41C4F2020188422DDCA2
:103F200040F21041C4F20201884244D040F22841DC
:103F30003EE000BF9F21C4F20201884228DC7021CC
:103F4000C4F20201884236D0882131E040F29F411C
:103F5000C4F20201884223DC40F27041C4F2020143
:103F6000884228D040F2884122E000BF4021C4F2BC
:103F7000020188421FD058211AE000BF40F24041A0
:103F8000C4F20201884216D040F2584110E000BF4E
:103F9000A021C4F2020188420DD0B82108E000BF80
:103FA00040F2B841C4F20201884204D040F2A0417C
:103FB000C4F202018842016841F001010160002061
:103FC000B0BD00BF0368052464F3430303602B6C9A
:103FD000002B3FF4D3AE0423CDE600000000000028
:103FE0002DE9F04F82B00D68002D00F0DB8000F16C
:103FF000264242F2004302F1FF72C5F602030A278D
:1040000098424FEAB2244FF0000C08BF0927082C51
:104010004FF0000638BF4FEAB2270097002709E0AB
:1040200001370D6835FA07F206F102060CF1040CAF
:1040300000F0B880012202FA07F415EA0408EFD074
:10404000D1F8049009F0030AAAF10105012D13D853
:104050000322D0F808B002FA06F3CD682BEA030376
:10406000B5402B438360C9F300154368A34305FAA9
:1040700007F4234343600DE0BAF1030F0AD18B68C4
:10408000012B07D14FF0030AB3460AFA06F36FEA91
:10409000030E29E00322C36802FA06F4BAF1020F04
:1040A0006FEA040E23EA04038C684FEA470B04FA14
:1040B00006F443EA0403C36016D16FF003020CF068
:1040C0001C0502EA57030F22034402FA05FAD3F84B
:1040D00020900C6929EA0A09AC4044EA09041C62F0
:1040E000D1F8049009F0030A03680AFA0BF503EA11
:1040F0000E0319F4403F43EA0503036090D044F2F5
:10410000F44240F20849C5F60202C5F600091368F8
:1041100043F00203136013680F2203F002030193BC
:1041200027F00303019D0CF00C0553F809E002FA97
:1041300005F4009A2EEA040402FA05F54FF0B04E99
:10414000254343F80950DEF800304D6843EA08047F
:10415000EA0258BF23EA0804CEF8004040F2040EF9
:10416000C5F6000EAC02DEF8002042EA080358BF94
:1041700022EA0803AC03CEF80030DEF8802042EAE1
:10418000080358BF22EA0803ED03CEF88030DEF8BA
:104190007C2042EA080358BF22EA0803CEF87C30AC
:1041A0003EE700BF02B0BDE8F08F00000000000055
:1041B0000069084018BF012070470000000000009F
:1041C000002A08BF09048161704700000000000058
:1041D00040F2CC50C2F2004000687047000000007E
:1041E00040F2040040F2CC51C2F20040C2F2004161
:1041F00000780A6810440860704700000000000062
:1042000080B5032000F008F901F032FC44F21841B7
:104210004CF23643C5F60201C0F600030A6809688D
:1042200001F00F01C2F30322595C9A5C01F01F01F7
:1042300002F01F02D04040F20402C2F2000220FA53
:1042400001F1116040F20001C2F2000108600F208C
:1042500000F00AF800281CBF012080BD00F07CF8A7
:10426000002080BD0000000070B540F20406C2F2DC
:1042700000463178E1B1044640F20000C2F200008D
:104280004FF47A72B2FBF1F10068B0FBF1F001F08B
:1042900007FF0F2C4FF0010508D838B94FF0FF3059
:1042A00000222146002500F087F87460284670BD82
:1042B000012070BD0000000010B54EF6A05E4178F0
:1042C000CEF2000E90F800C04EF8081CDEF8001088
:1042D00021F00101CEF8001041684EF8041C017B6A
:1042E000C37A827A447B1B0643EA0171837B41EAED
:1042F000C241C27B41EA8441447A41EA4341007AA7
:1043000041EA024141EA042141EA400040EA0C004E
:10431000CEF8000010BD00004EF62450CEF2000092
:10432000BFF35F8F016821F48031016000210167D4
:1043300070470000000000004EF6245140F00100DC
:10434000CEF200010867086840F480300860BFF3CF
:104350004F8FBFF36F8F704780B582B044F2F44047
:104360000022C5F60200016841F002010160006808
:10437000002100F0020001900198052000F01CF8D7
:10438000052002B0BDE8804000F002B80000000047
:10439000002848BF704781B200F01F000122490980
:1043A00002FA00F04EF20012CEF2000242F82100B2
:1043B000704700000000000070B54EF60C5C4FF036
:1043C000FF36CEF2000C00F1604505F56445DCF8DF
:1043D0000030C3F3022E8EF00703042B28BF042302
:1043E000BEF1030406FA03F321EA030100F00F0310
:1043F00038BF0024043B0028634406FA04F048BF99
:1044000003F10C05A14022EA0000084300012870D6
:1044100070BD0000000000004EF60C514FF6FF0387
:10442000CEF200010A681A4060F30A2242F080606E
:1044300040F0FD7008607047B0B544F60C05C5F655
:10444000020529684907296806D401F00701081AFE
:1044500018BF0120B0BD00BF21F00701084328604C
:10446000FFF7B6FE044600BF55F8080C800407D4D9
:10447000FFF7AEFE001BB0F57A7FF5D90120B0BD85
:104480000020B0BD0000000080B501F069FA44F2E0
:1044900020414CF23642C5F60201C0F6000209681E
:1044A000C1F30211515C01F01F01C84080BD000042
:1044B00080B544F2304EC5F6020E5EF8083C5EF858
:1044C000081CC1F3051C5EF8041CBCF1000FDEF8EB
:1044D000042019D001F0010103F003034942022B2B
:1044E00001EAD2016FF35F3100EE101AB8EE400A14
:1044F00010D0012B12D01BB95EF8301C890611D4E4
:104500009FED361A1CE000BF00218160C0E9001158
:1045100080BD00BF9FED301A12E000BF9FED2D1A45
:104520000EE000BF5EF8301C49F20002C0F2D0324B
:10453000C1F3C10122FA01F101EE101AB8EE411ADD
:10454000DEF800109FED263A6FF35F2102EE101A9D
:10455000DEF80010C1F34621B8EE422A00EE032A2D
:1045600000EE10CAB7EE003AB8EE400A81EE000A3B
:1045700032EE031A02EE101AB8EE422A20EE010AB9
:1045800032EE031A80EE011ABCEEC11A80ED001A59
:10459000DEF80010C1F3064101EE101AB8EE411A20
:1045A00031EE031A80EE011ABCEEC11A80ED011A39
:1045B000DEF80010C1F3066101EE101AB8EE411AE0
:1045C00031EE031A80EE010ABCEEC00A10EE101A9A
:1045D000816080BD0024744A20BCBE4B0024744C12
:1045E000000000390000000080B544F2384EC5F6E6
:1045F000020E5EF8103C5EF8101C5EF80C2CC1F345
:10460000053CDEF80410BCF1000F15D0C908D20635
:1046100001EAE2716FF35F3100EE101A03F003015B
:104620000229B8EE400A0DD081B95EF8381C89061F
:1046300010D49FED361A1BE000218160C0E9001103
:1046400080BD00BF9FED301A12E000BF9FED2D1A14
:104650000EE000BF5EF8381C49F20002C0F2D03212
:10466000C1F3C10122FA01F101EE101AB8EE411AAC
:10467000DEF800109FED263A6FF35F2102EE101A6C
:10468000DEF80010C1F34621B8EE422A00EE032AFC
:1046900000EE10CAB7EE003AB8EE400A81EE000A0A
:1046A00032EE031A02EE101AB8EE422A20EE010A88
:1046B00032EE031A80EE011ABCEEC11A80ED001A28
:1046C000DEF80010C1F3064101EE101AB8EE411AEF
:1046D00031EE031A80EE011ABCEEC11A80ED011A08
:1046E000DEF80010C1F3066101EE101AB8EE411AAF
:1046F00031EE031A80EE010ABCEEC00A10EE101A69
:10470000816080BD0024744A20BCBE4B0024744CE0
:10471000000000390000000080B544F2404EC5F6AC
:10472000020E5EF8183C5EF8181C5EF8142CC1F3FB
:10473000055CDEF80410BCF1000F15D0C908D205E5
:1047400001EAE2716FF35F3100EE101A03F003012A
:104750000229B8EE400A0DD081B95EF8401C8906E6
:1047600010D49FED361A1BE000218160C0E90011D2
:1047700080BD00BF9FED301A12E000BF9FED2D1AE3
:104780000EE000BF5EF8401C49F20002C0F2D032D9
:10479000C1F3C10122FA01F101EE101AB8EE411A7B
:1047A000DEF800109FED263A6FF35F2102EE101A3B
:1047B000DEF80010C1F34621B8EE422A00EE032ACB
:1047C00000EE10CAB7EE003AB8EE400A81EE000AD9
:1047D00032EE031A02EE101AB8EE422A20EE010A57
:1047E00032EE031A80EE011ABCEEC11A80ED001AF7
:1047F000DEF80010C1F3064101EE101AB8EE411ABE
:1048000031EE031A80EE011ABCEEC11A80ED011AD6
:10481000DEF80010C1F3066101EE101AB8EE411A7D
:1048200031EE031A80EE010ABCEEC00A10EE101A37
:10483000816080BD0024744A20BCBE4B0024744CAF
:10484000000000390000000010B584B0024641F6B7
:10485000FF7300209B1A70EB01032DDA47F6FF73FC
:104860009B1A70EB010380F2918082F400430B43AA
:1048700000F0B88082F480330B4300F0018182F4B1
:104880000022114340F0478144F20040C5F6020087
:10489000816D01F44031B1F5003F00F04B81B1F57D
:1048A000803F00F02781002940F03B810068000133
:1048B00040F137810BE100BF40F2FF739B1A70EBB0
:1048C000010331DB82F480730B4300F09F8082F49C
:1048D0008062114340F01F8144F20041C5F602019D
:1048E000886DC0F34252042A00F21B8148F2000096
:1048F000C0F2BB00DFE812F0C200E800F2000F01D6
:10490000060000BFC86C0A68520700F040520868F1
:1049100002D5002A00F06881C00540F12581B2F17E
:10492000805F00F07A811FE182F400630B4300F0A6
:10493000938082F48052114340F0ED8044F20041B4
:10494000C5F60201086DC0F30232042A00F2E980C4
:1049500048F20000C0F2BB00DFE812F09000B600A1
:10496000C000DD00060000BFC86C0A68520700F0F6
:104970004052086802D5002A00F03681C00540F197
:10498000F380B2F1805F00F04881EDE082F40053E3
:104990000B4300F0858082F48042114340F0BB80DD
:1049A00044F20044C5F60204A06DC0F3027005286D
:1049B00000F2B780DFE810F00600EA00EC00EE003D
:1049C000F400F60000F0CCFF216A4CF23642C0F64B
:1049D0000002C1F30211515C01F01F01C84004B094
:1049E00010BD00BF44F20040C5F60200016D01F0A9
:1049F0004051B1F1005F00F08780B1F1805F00F0BD
:104A00008D80002940F08D8072E000BF44F20041AB
:104A1000C5F60201086D00F00702042A00F2818049
:104A200048F20000C0F2BB00DFE802F0284E5875E3
:104A3000040000BFC86C0A68520700F040520868C2
:104A400002D5002A00F0D080C00540F18D80B2F17F
:104A5000805F00F0E28087E044F20041C5F6020189
:104A6000886DC0F30262042A5BD848F20000C0F2ED
:104A7000BB00DFE802F0032933506B0008684EE00A
:104A800044F20040C5F60200C16C0068C90346D577
:104A9000000146D501A8FFF7A7FD039804B010BD9B
:104AA00044F20040C5F60200016DC1F30241052940
:104AB00037D8DFE801F003818B95A31D04B0BDE872
:104AC000104000F075BF00BF0868000129D501A89B
:104AD000FFF78AFD019804B010BD00BF0868800090
:104AE0001FD501A8FFF718FE019804B010BD00BF44
:104AF000006858E00068800013D501A8FFF70CFE9D
:104B0000039804B010BD00BF0068000109D501A8DA
:104B1000FFF76AFD029804B010BD00BF0068800175
:104B200002D4002004B010BD01A8FFF7C1FC029818
:104B300004B010BDC16C0268520701F04051026818
:104B400066D5002964D1C2F3C1004FE0C86C0A6881
:104B5000520700F04052086801D5002A44D0C00531
:104B600002D5B2F1805F58D00868B2F1005F00F45E
:104B700000314FF0000004BF47F64000C0F27D1046
:104B8000002908BF084604B010BD00BF206814E02B
:104B900020681CE020684007C3D5206824E000BFDF
:104BA00020682CE0206847F640018003C0F27D11A8
:104BB00001EAE07004B010BD00680001B1D501A8A1
:104BC000FFF712FD029804B010BD00BF006880001E
:104BD000A7D501A8FFF7A0FD029804B010BD00BF43
:104BE000016849079DD50068C0F3C10049F2000182
:104BF000C0F2D03121FA00F004B010BD006840F6D8
:104C00000011C005C0F23D0101EAE07004B010BD22
:104C1000D20509D5B1F1805F06D140F60010C0F28F
:104C20003D0004B010BD00BF0068B1F1005F00F4AA
:104C300000324FF0000004BF47F64000C0F27D1084
:104C4000002A08BF104604B010BD0000000000009C
:104C50002DE9F0470446C07844F22C480007C5F619
:104C6000020833D5606E4FEA305103290CD8DFE8D3
:104C700001F003111D2600BFD8F8001041F40031E7
:104C8000C8F800101BE000BF01266078C0070BD0F9
:104C900020E000BF04F10800022104F051FD0646A7
:104CA00060B16078C00715D1354646E004F12800B0
:104CB000022104F0D9FD06460028F2D1606ED8F832
:104CC000241021F440110843C8F82400002660781D
:104CD000C007E9D0A06D04280ED83546DFE800F003
:104CE0000412181E1E0000BFD8F80000354640F41C
:104CF0000030C8F8000011E0012501276078400766
:104D00001FD453E004F10800002104F019FD04E071
:104D100004F12800002104F0A7FD05462F461DB12F
:104D2000607840070DD441E0D8F82400A16D20F050
:104D3000070000250843C8F824003746607840077C
:104D400034D5D4F8A4004FEA705005280CD8DFE819
:104D500000F00311171D1D1DD8F8000040F40030AD
:104D6000C8F8000012E000BF0125012660780007A6
:104D700020D455E004F10800002104F0E1FC04E037
:104D800004F12800002104F06FFD05462E461DB1F8
:104D9000607800070ED443E0D8F82C00D4F8A410B3
:104DA00020F4600000250843C8F82C003E466078D7
:104DB000000735D5D4F8A8004FEA306005280DD893
:104DC000DFE800F00412181E1E1E00BFD8F8000015
:104DD00040F40030C8F8000012E000BF01250127B0
:104DE000E078800720D44EE004F10800002104F0B0
:104DF000A7FC04E004F12800002104F035FD05467D
:104E00002F461DB1E07880070ED43CE0D8F82C0086
:104E1000D4F8A81020F0E06000250843C8F82C0062
:104E20003746E07880072ED5E06C4FEA3010032833
:104E30000ED8DFE800F00903130900BFD8F800001E
:104E400040F40030C8F800002E467DB912E000BFE3
:104E5000012501266078C00619D44CE004F1080051
:104E6000022104F06DFC05462E461DB16078C00697
:104E70000DD440E0D8F82000E16C20F0300000258F
:104E80000843C8F820003E466078C00633D5E06D80
:104E90004FEA303004280DD8DFE800F00412181E65
:104EA0001E0000BFD8F8000040F40030C8F8000031
:104EB00012E000BF01250127607880061FD44EE074
:104EC00004F10800002104F03BFC04E004F1280098
:104ED000002104F0C9FC05462F461DB1607880060C
:104EE0000DD43CE0D8F82400E16D20F4E04000252A
:104EF0000843C8F824003746607880062FD5206E16
:104F00004FEA3040052809D8DFE800F0040E140409
:104F1000040400BF2E46ADB918E000BF01250126EC
:104F2000607840061FD44FE004F10800012104F02E
:104F300007FC04E004F12800012104F095FC05467B
:104F40002E461DB1607840060DD43DE0D8F824000F
:104F5000216E20F4E02000250843C8F824003E46D6
:104F60006078400630D5D4F8AC004FEA30700528A0
:104F700008D8DFE800F0030D130303032F46ADB993
:104F800018E000BF012501276078000620D442E028
:104F900004F10800012104F0D3FB04E004F128002F
:104FA000012104F061FC05462F461DB16078000622
:104FB0000ED430E0D8F82C00D4F8AC1020F0E0404B
:104FC00000250843C8F82C0037466078000622D533
:104FD000E06E58B1B0F1005F0CD0B0F1805F2FD11E
:104FE000D8F8000040F40030C8F800002E469DB903
:104FF00008E000BF04F10800012104F0A1FB054610
:105000002E464DB9D8F82400E16E20F0405000251E
:105010000843C8F824003E46E078C00733D0A06CAF
:10502000032813D8DFE800F008021A08D8F80000B7
:1050300040F40030C8F80000A946BDB91AE000BF2E
:1050400001250126E078C007E9D11CE001254FF0D9
:105050000109A07840061AD51CE000BF04F1080041
:10506000022104F06DFB0546A9461DB1A07840065B
:105070000DD50FE0D8F82000A16C20F0030000252A
:105080000843C8F82000B146A078400602D44F4635
:1050900018E000BFD8F8D40340F48070C8F8D403F7
:1050A000FFF796F8064600BFD8F8D403C00507D42A
:1050B000FFF78EF8801B6428F6D90325032701E04B
:1050C0002F468DB12078C00761D0A06F4FEAF00065
:1050D00005283BD8DFE800F004404604040400BF84
:1050E000002D2E4646D149E0D8F84410D4F8B0003F
:1050F000414011F4407F11D0D8F84410D8F8442032
:1051000042F48032C8F84420D8F8442021F4407199
:1051100022F48032C8F84420C8F84410B0F5807FEB
:1051200040F0CE82FFF754F8064641F2883A032554
:10513000032700BFD8F84400800700F1BF82FFF7C3
:1051400047F8801B5045F5D9BCE700BF0125012673
:10515000207880071FD44CE004F10800012104F0FE
:10516000EFFA04E004F12800012104F07DFB05467C
:105170002E461DB1207880070DD43AE0D8F82800DB
:10518000A16F20F0380000250843C8F828003E46EB
:10519000207880072DD5606F052809D8DFE800F05A
:1051A000040E1404040400BF2F46ADB918E000BF7C
:1051B00001250127207840071FD44DE004F10800A5
:1051C000012104F0BDFA04E004F12800012104F0FB
:1051D0004BFB05462F461DB1207840070DD43BE020
:1051E000D8F82800616F20F0070000250843C8F8B0
:1051F00028003746207840072ED5D4F8900005289F
:1052000008D8DFE800F0030D130303032E46ADB901
:1052100018E000BF012601252078800620D451E047
:1052200004F10800012104F08BFA04E004F12800E5
:10523000012104F019FB05462E461DB12078800699
:105240000ED43FE0D8F82C00D4F8901020F00700DE
:1052500000250843C8F82C003E462078800631D54A
:10526000D4F88C004FEA3070052809D8DFE800F048
:10527000040E1404040400BF2F46ADB918E000BFAB
:10528000012701252078400620D451E004F10800D0
:10529000002104F055FA04E004F12800022104F092
:1052A000E3FA05462F461DB1207840060ED43FE0B4
:1052B000D8F82800D4F88C1020F0E04000250843EE
:1052C000C8F8280037462078400631D5D4F8980031
:1052D0004FEAB020052809D8DFE800F0040E1404D6
:1052E000040400BF2E46ADB918E000BF0126012519
:1052F0002078000620D454E004F10800002104F0D6
:105300001FFA04E004F12800022104F0ADFA05467A
:105310002E461DB1207800060ED442E0D8F82C00AD
:10532000D4F8981020F4E05000250843C8F82C0069
:105330003E462078000634D5D4F89C004FEA703001
:1053400005280FD8DFE800F004141A04040400BF95
:105350002F46E5B12068010727D4C1063ED40003DB
:1053600055D475E00127012520680107F5D51CE01B
:1053700004F10800002104F0E3F904E004F128003E
:10538000022104F071FA0546002D2F46E2D1D8F82B
:105390002C00D4F89C1020F4604000250843C8F885
:1053A0002C00374620680107D7D5D4F88000B0F527
:1053B000805F09D104F12800022104F055FA002889
:1053C00018BF0127D4F88000D8F8281021F44051E4
:1053D0000843C8F828002068C106C0D5D4F8940056
:1053E000B0F5807F09D104F12800022104F03CFAD5
:1053F000002818BF0127D4F89400D8F82C1021F405
:1054000040710843C8F82C002068000320D5D4F868
:10541000A000B0F5003F0FD0B0F5803F06D078BBBC
:1054200004F10800002104F08BF904E004F12800E5
:10543000022104F019FA05462E4655B9D8F82C0079
:10544000D4F8A01020F4403000250843C8F82C0000
:105450003E46A07840072BD5D4F88400B0F5401F15
:105460000BD0B0F5001F11D0B0F5801F2AD1D8F8AD
:10547000000040F40030C8F800002F46CDB90DE020
:1054800001260125A0784007E6D411E004F12800A8
:10549000012104F0E9F905462F4655B9D8F828004E
:1054A000D4F8841020F4401000250843C8F82800E0
:1054B0003746A078C0070AD13E462168880016D535
:1054C00033E000BF01270125A078C007F4D0206D8C
:1054D000B0F5803F10D018BBD8F8000040F4003081
:1054E000C8F800002E4685B1216888001DD4606888
:1054F0008A0326D465E000BF04F10800022104F00D
:105500001FF90546002D2E46EED1D8F82000216D5A
:1055100020F4803000250843C8F82000CCE700BF05
:105520000126012521688800E1D504F12800022127
:1055300004F09AF9002818BF0126D4E900108A0364
:105540003FD5E26F6FF0010303EB3223022B0BD345
:105550004FEA322343B1012B40F0AA80D8F8003043
:1055600043F40033C8F8003025B3CA022CD48A02B1
:1055700034D44A003CD4CA0F49D1090251D4C107DE
:105580005AD1810763D441076CD4010776D4C10690
:1055900000F18080800607D504F12800022104F084
:1055A00063F9002818BF0125002D18BF01252846E2
:1055B000BDE8F087D8F8283023F440731A43C8F8C0
:1055C00028203546CA02D2D5D8F82420236F22F0ED
:1055D00000421A43C8F824208A02CAD5D8F82420E9
:1055E000A36E22F080721A43C8F824204A00C2D564
:1055F00058F81C2C22F4004248F81C2CD4F8B42093
:1056000058F81C3C1A4348F81C2CCA0FB5D0D8F8DF
:105610002020636D22F040521A43C8F8202009026E
:10562000ADD5D8F82810D4F8882021F440011143D2
:10563000C8F82810C107A4D004F10800002104F024
:105640007FF8002818BF0546606881079BD504F1E4
:105650000800012104F074F8002818BF05466068AE
:10566000410792D504F10800022104F069F80028EE
:1056700018BF0546606801077FF589AF04F128006F
:10568000002104F0F1F8002818BF05466068C10643
:105690007FF580AF04F12800012104F0E5F800282F
:1056A00018BF0546606880067FF57EAF74E700BFCF
:1056B0000125CA027FF55BAF86E700BFD4F8B000D2
:1056C0004FF6CF7358F81C2CC0F2FF0300F4407162
:1056D00022F47C5203EA10136FF31F30B1F5407FC0
:1056E00008BF1A43002548F81C2CD8F8441008437A
:1056F000C8F84400FFF7CBBC2DE9F04381B0002887
:1057000000F02A8142F200080446C5F200288946CA
:10571000D8F8000000F00F0088420ED2D8F8000040
:1057200020F00F0040EA0900C8F80000D8F8000097
:1057300000F00F00484540F00F81206844F2184700
:105740004107C5F602070AD521693A6802F07002DE
:10575000914204D93A6822F070021143396001077E
:105760000AD561697A6802F07002914204D97A68B8
:1057700022F0700211437960C1060AD5A1697A68E6
:1057800002F4E062914204D97A6822F4E0621143A3
:10579000796081060AD5E169BA6802F07002914227
:1057A00004D9BA6822F070021143B96010F0020106
:1057B0000AD0E2683B6803F00F039A4204D93B68C1
:1057C00023F00F031A433A60C20746D0386820F42A
:1057D0007061D4E90102012841EA0201396009D06F
:1057E00003280DD0022811D157F8181C890340F165
:1057F000B38010E057F8181CC90540F1AD800AE0ED
:1058000057F8181C890140F1A78004E057F8181CCC
:10581000490740F1A18057F8081C21F0070108430F
:1058200047F8080CFEF7D4FC064641F2883500BF65
:1058300057F8080C616800F03800B0EBC10F09D0D0
:10584000FEF7C6FC801BA842F2D9032001B0BDE8D8
:10585000F08300BF206800F0020151B1E1683A68AE
:1058600002F00F02914204D23A6822F00F02114373
:105870003960D8F8001001F00F0149450DD9D8F86A
:10588000001021F00F0141EA0901C8F80010D8F812
:10589000001001F00F0149455ED141070AD5216989
:1058A0003A6802F07002914204D23A6822F0700223
:1058B0001143396001070AD561697A6802F0700204
:1058C000914204D27A6822F0700211437960C106D5
:1058D0000AD5A1697A6802F4E062914204D27A683A
:1058E00022F4E0621143796080060AD5E069B96864
:1058F00001F07001884204D2B96821F070010843B8
:10590000B86000F0B5F839684CF236433A68C0F632
:105910000003C1F3032102F00F02595C9A5C01F00D
:105920001F0120FA01F102F01F0040F2040221FAE7
:1059300000F0C2F20002106040F2080040F20002E3
:10594000C2F20040C2F200020068116001B0BDE87E
:10595000F043FEF789BC00BF012001B0BDE8F08331
:1059600080B500F085F844F218414CF23643C5F694
:105970000201C0F600030A68096801F00F01C2F3D2
:105980000322595C9A5C02F01F0220FA02F201F035
:105990001F0040F2040122FA00F0C2F20001086088
:1059A00040F20001C2F200010A6080BD0000000068
:1059B00080B500F05DF844F2184C4CF23641C5F663
:1059C000020CC0F60001DCF80020DCF8003003F027
:1059D0000F03C2F30322CB5C8A5C02F01F02D040AB
:1059E00003F01F0240F2040320FA02F2C2F20003A5
:1059F0001A6040F20003C2F200031860DCF80400F1
:105A0000C0F30210085C00F01F0022FA00F080BD15
:105A100080B500F02DF844F2184C4CF23641C5F632
:105A2000020CC0F60001DCF80020DCF8003003F0C6
:105A30000F03C2F30322CB5C8A5C02F01F02D0404A
:105A400003F01F0240F2040320FA02F2C2F2000344
:105A50001A6040F20003C2F200031860DCF8040090
:105A6000C0F30220085C00F01F0022FA00F080BDA5
:105A700044F20041C5F602010869C0F3C2000328E0
:105A800010D002282ED098BB0868800649F200008A
:105A9000C0F2D03058BF70470968C1F3C101C84097
:105AA000704700BF8A6A886AC0F3051CC86ABCF1E7
:105AB000000F4B6B22D000F0010002F003024042C5
:105AC000022A00EAD3006FF35F3000EE100AB8EE4E
:105AD000400A15D0C2B90868800619D49FED281A6B
